{
  "address": "0x646900879430F27734881fc6Cf6e972Fb2D99Ca7",
  "abi": [
    {
      "inputs": [
        {
          "internalType": "string",
          "name": "_name",
          "type": "string"
        },
        {
          "internalType": "string",
          "name": "_symbol",
          "type": "string"
        },
        {
          "internalType": "string",
          "name": "_baseURI",
          "type": "string"
        },
        {
          "internalType": "address",
          "name": "_thesaurus",
          "type": "address"
        },
        {
          "internalType": "uint256",
          "name": "_price",
          "type": "uint256"
        },
        {
          "internalType": "uint256",
          "name": "_orangeAmount",
          "type": "uint256"
        },
        {
          "internalType": "uint256",
          "name": "_blueAmount",
          "type": "uint256"
        },
        {
          "internalType": "uint256",
          "name": "_greyAmount",
          "type": "uint256"
        },
        {
          "internalType": "uint256",
          "name": "_defAllowedMintAmount",
          "type": "uint256"
        },
        {
          "internalType": "bytes32",
          "name": "_merkleRoot",
          "type": "bytes32"
        }
      ],
      "stateMutability": "nonpayable",
      "type": "constructor"
    },
    {
      "anonymous": false,
      "inputs": [
        {
          "indexed": false,
          "internalType": "uint256",
          "name": "tokenId",
          "type": "uint256"
        },
        {
          "indexed": false,
          "internalType": "uint256",
          "name": "weight",
          "type": "uint256"
        },
        {
          "indexed": false,
          "internalType": "string",
          "name": "word",
          "type": "string"
        }
      ],
      "name": "AddWord",
      "type": "event"
    },
    {
      "anonymous": false,
      "inputs": [
        {
          "indexed": true,
          "internalType": "address",
          "name": "owner",
          "type": "address"
        },
        {
          "indexed": true,
          "internalType": "address",
          "name": "approved",
          "type": "address"
        },
        {
          "indexed": true,
          "internalType": "uint256",
          "name": "tokenId",
          "type": "uint256"
        }
      ],
      "name": "Approval",
      "type": "event"
    },
    {
      "anonymous": false,
      "inputs": [
        {
          "indexed": true,
          "internalType": "address",
          "name": "owner",
          "type": "address"
        },
        {
          "indexed": true,
          "internalType": "address",
          "name": "operator",
          "type": "address"
        },
        {
          "indexed": false,
          "internalType": "bool",
          "name": "approved",
          "type": "bool"
        }
      ],
      "name": "ApprovalForAll",
      "type": "event"
    },
    {
      "anonymous": false,
      "inputs": [
        {
          "indexed": false,
          "internalType": "address",
          "name": "_recipient",
          "type": "address"
        },
        {
          "indexed": false,
          "internalType": "uint256",
          "name": "_amount",
          "type": "uint256"
        }
      ],
      "name": "ClaimMintAmount",
      "type": "event"
    },
    {
      "anonymous": false,
      "inputs": [
        {
          "indexed": false,
          "internalType": "uint8",
          "name": "version",
          "type": "uint8"
        }
      ],
      "name": "Initialized",
      "type": "event"
    },
    {
      "anonymous": false,
      "inputs": [
        {
          "indexed": false,
          "internalType": "uint256",
          "name": "tokenId",
          "type": "uint256"
        }
      ],
      "name": "Locked",
      "type": "event"
    },
    {
      "anonymous": false,
      "inputs": [
        {
          "indexed": false,
          "internalType": "uint256",
          "name": "tokenId",
          "type": "uint256"
        },
        {
          "indexed": false,
          "internalType": "address",
          "name": "player",
          "type": "address"
        },
        {
          "indexed": false,
          "internalType": "string",
          "name": "verb",
          "type": "string"
        },
        {
          "indexed": false,
          "internalType": "string",
          "name": "adj",
          "type": "string"
        },
        {
          "indexed": false,
          "internalType": "string",
          "name": "noun",
          "type": "string"
        },
        {
          "indexed": false,
          "internalType": "uint8",
          "name": "types",
          "type": "uint8"
        }
      ],
      "name": "Mint",
      "type": "event"
    },
    {
      "anonymous": false,
      "inputs": [
        {
          "indexed": false,
          "internalType": "uint256",
          "name": "_old",
          "type": "uint256"
        },
        {
          "indexed": false,
          "internalType": "uint256",
          "name": "_new",
          "type": "uint256"
        }
      ],
      "name": "NewDefAllowedMintAmount",
      "type": "event"
    },
    {
      "anonymous": false,
      "inputs": [
        {
          "indexed": false,
          "internalType": "uint256",
          "name": "_old",
          "type": "uint256"
        },
        {
          "indexed": false,
          "internalType": "uint256",
          "name": "_new",
          "type": "uint256"
        }
      ],
      "name": "NewPrice",
      "type": "event"
    },
    {
      "anonymous": false,
      "inputs": [
        {
          "indexed": true,
          "internalType": "address",
          "name": "previousOwner",
          "type": "address"
        },
        {
          "indexed": true,
          "internalType": "address",
          "name": "newOwner",
          "type": "address"
        }
      ],
      "name": "OwnershipTransferred",
      "type": "event"
    },
    {
      "anonymous": false,
      "inputs": [
        {
          "indexed": false,
          "internalType": "uint256",
          "name": "tokenId",
          "type": "uint256"
        },
        {
          "indexed": false,
          "internalType": "string",
          "name": "verb",
          "type": "string"
        },
        {
          "indexed": false,
          "internalType": "string",
          "name": "adj",
          "type": "string"
        },
        {
          "indexed": false,
          "internalType": "string",
          "name": "noun",
          "type": "string"
        }
      ],
      "name": "RefreshWords",
      "type": "event"
    },
    {
      "anonymous": false,
      "inputs": [
        {
          "indexed": true,
          "internalType": "address",
          "name": "from",
          "type": "address"
        },
        {
          "indexed": true,
          "internalType": "address",
          "name": "to",
          "type": "address"
        },
        {
          "indexed": true,
          "internalType": "uint256",
          "name": "tokenId",
          "type": "uint256"
        }
      ],
      "name": "Transfer",
      "type": "event"
    },
    {
      "anonymous": false,
      "inputs": [
        {
          "indexed": false,
          "internalType": "address",
          "name": "_recipient",
          "type": "address"
        },
        {
          "indexed": false,
          "internalType": "uint256",
          "name": "_amount",
          "type": "uint256"
        }
      ],
      "name": "TransferEth",
      "type": "event"
    },
    {
      "stateMutability": "payable",
      "type": "fallback"
    },
    {
      "inputs": [
        {
          "internalType": "uint256",
          "name": "_tokenId",
          "type": "uint256"
        },
        {
          "internalType": "uint8",
          "name": "_type",
          "type": "uint8"
        },
        {
          "internalType": "string",
          "name": "_word",
          "type": "string"
        }
      ],
      "name": "addWord",
      "outputs": [],
      "stateMutability": "nonpayable",
      "type": "function"
    },
    {
      "inputs": [
        {
          "internalType": "uint256",
          "name": "",
          "type": "uint256"
        }
      ],
      "name": "added",
      "outputs": [
        {
          "internalType": "bool",
          "name": "",
          "type": "bool"
        }
      ],
      "stateMutability": "view",
      "type": "function"
    },
    {
      "inputs": [
        {
          "internalType": "uint256",
          "name": "",
          "type": "uint256"
        }
      ],
      "name": "adj",
      "outputs": [
        {
          "internalType": "string",
          "name": "",
          "type": "string"
        }
      ],
      "stateMutability": "view",
      "type": "function"
    },
    {
      "inputs": [
        {
          "internalType": "address",
          "name": "",
          "type": "address"
        }
      ],
      "name": "allowedMintAmount",
      "outputs": [
        {
          "internalType": "uint256",
          "name": "",
          "type": "uint256"
        }
      ],
      "stateMutability": "view",
      "type": "function"
    },
    {
      "inputs": [
        {
          "internalType": "address",
          "name": "to",
          "type": "address"
        },
        {
          "internalType": "uint256",
          "name": "tokenId",
          "type": "uint256"
        }
      ],
      "name": "approve",
      "outputs": [],
      "stateMutability": "nonpayable",
      "type": "function"
    },
    {
      "inputs": [
        {
          "internalType": "address",
          "name": "owner",
          "type": "address"
        }
      ],
      "name": "balanceOf",
      "outputs": [
        {
          "internalType": "uint256",
          "name": "",
          "type": "uint256"
        }
      ],
      "stateMutability": "view",
      "type": "function"
    },
    {
      "inputs": [],
      "name": "baseURI",
      "outputs": [
        {
          "internalType": "string",
          "name": "",
          "type": "string"
        }
      ],
      "stateMutability": "view",
      "type": "function"
    },
    {
      "inputs": [],
      "name": "blueAmount",
      "outputs": [
        {
          "internalType": "uint256",
          "name": "",
          "type": "uint256"
        }
      ],
      "stateMutability": "view",
      "type": "function"
    },
    {
      "inputs": [
        {
          "internalType": "address",
          "name": "_recipient",
          "type": "address"
        },
        {
          "internalType": "bytes32[]",
          "name": "_proof",
          "type": "bytes32[]"
        },
        {
          "internalType": "uint256",
          "name": "_amount",
          "type": "uint256"
        }
      ],
      "name": "claimMintAmount",
      "outputs": [],
      "stateMutability": "nonpayable",
      "type": "function"
    },
    {
      "inputs": [],
      "name": "defAllowedMintAmount",
      "outputs": [
        {
          "internalType": "uint256",
          "name": "",
          "type": "uint256"
        }
      ],
      "stateMutability": "view",
      "type": "function"
    },
    {
      "inputs": [
        {
          "internalType": "uint256",
          "name": "tokenId",
          "type": "uint256"
        }
      ],
      "name": "getApproved",
      "outputs": [
        {
          "internalType": "address",
          "name": "",
          "type": "address"
        }
      ],
      "stateMutability": "view",
      "type": "function"
    },
    {
      "inputs": [],
      "name": "greyAmount",
      "outputs": [
        {
          "internalType": "uint256",
          "name": "",
          "type": "uint256"
        }
      ],
      "stateMutability": "view",
      "type": "function"
    },
    {
      "inputs": [
        {
          "internalType": "string",
          "name": "_name",
          "type": "string"
        },
        {
          "internalType": "string",
          "name": "_symbol",
          "type": "string"
        },
        {
          "internalType": "string",
          "name": "_baseURI",
          "type": "string"
        },
        {
          "internalType": "address",
          "name": "_thesaurus",
          "type": "address"
        },
        {
          "internalType": "uint256",
          "name": "_price",
          "type": "uint256"
        },
        {
          "internalType": "uint256",
          "name": "_orangeAmount",
          "type": "uint256"
        },
        {
          "internalType": "uint256",
          "name": "_blueAmount",
          "type": "uint256"
        },
        {
          "internalType": "uint256",
          "name": "_greyAmount",
          "type": "uint256"
        },
        {
          "internalType": "uint256",
          "name": "_defAllowedMintAmount",
          "type": "uint256"
        },
        {
          "internalType": "bytes32",
          "name": "_merkleRoot",
          "type": "bytes32"
        }
      ],
      "name": "initialize",
      "outputs": [],
      "stateMutability": "nonpayable",
      "type": "function"
    },
    {
      "inputs": [
        {
          "internalType": "address",
          "name": "owner",
          "type": "address"
        },
        {
          "internalType": "address",
          "name": "operator",
          "type": "address"
        }
      ],
      "name": "isApprovedForAll",
      "outputs": [
        {
          "internalType": "bool",
          "name": "",
          "type": "bool"
        }
      ],
      "stateMutability": "view",
      "type": "function"
    },
    {
      "inputs": [
        {
          "internalType": "uint256",
          "name": "_tokenId",
          "type": "uint256"
        }
      ],
      "name": "lock",
      "outputs": [],
      "stateMutability": "nonpayable",
      "type": "function"
    },
    {
      "inputs": [
        {
          "internalType": "uint256",
          "name": "",
          "type": "uint256"
        }
      ],
      "name": "locked",
      "outputs": [
        {
          "internalType": "bool",
          "name": "",
          "type": "bool"
        }
      ],
      "stateMutability": "view",
      "type": "function"
    },
    {
      "inputs": [],
      "name": "merkleRoot",
      "outputs": [
        {
          "internalType": "bytes32",
          "name": "",
          "type": "bytes32"
        }
      ],
      "stateMutability": "view",
      "type": "function"
    },
    {
      "inputs": [
        {
          "internalType": "address",
          "name": "_player",
          "type": "address"
        },
        {
          "internalType": "uint256",
          "name": "_amount",
          "type": "uint256"
        }
      ],
      "name": "mint",
      "outputs": [
        {
          "internalType": "uint256[]",
          "name": "",
          "type": "uint256[]"
        }
      ],
      "stateMutability": "nonpayable",
      "type": "function"
    },
    {
      "inputs": [],
      "name": "name",
      "outputs": [
        {
          "internalType": "string",
          "name": "",
          "type": "string"
        }
      ],
      "stateMutability": "view",
      "type": "function"
    },
    {
      "inputs": [
        {
          "internalType": "uint256",
          "name": "",
          "type": "uint256"
        }
      ],
      "name": "noun",
      "outputs": [
        {
          "internalType": "string",
          "name": "",
          "type": "string"
        }
      ],
      "stateMutability": "view",
      "type": "function"
    },
    {
      "inputs": [],
      "name": "orangeAmount",
      "outputs": [
        {
          "internalType": "uint256",
          "name": "",
          "type": "uint256"
        }
      ],
      "stateMutability": "view",
      "type": "function"
    },
    {
      "inputs": [],
      "name": "owner",
      "outputs": [
        {
          "internalType": "address",
          "name": "",
          "type": "address"
        }
      ],
      "stateMutability": "view",
      "type": "function"
    },
    {
      "inputs": [
        {
          "internalType": "uint256",
          "name": "tokenId",
          "type": "uint256"
        }
      ],
      "name": "ownerOf",
      "outputs": [
        {
          "internalType": "address",
          "name": "",
          "type": "address"
        }
      ],
      "stateMutability": "view",
      "type": "function"
    },
    {
      "inputs": [],
      "name": "price",
      "outputs": [
        {
          "internalType": "uint256",
          "name": "",
          "type": "uint256"
        }
      ],
      "stateMutability": "view",
      "type": "function"
    },
    {
      "inputs": [
        {
          "internalType": "uint256",
          "name": "_tokenId",
          "type": "uint256"
        }
      ],
      "name": "refreshWords",
      "outputs": [],
      "stateMutability": "nonpayable",
      "type": "function"
    },
    {
      "inputs": [],
      "name": "renounceOwnership",
      "outputs": [],
      "stateMutability": "nonpayable",
      "type": "function"
    },
    {
      "inputs": [
        {
          "internalType": "address",
          "name": "from",
          "type": "address"
        },
        {
          "internalType": "address",
          "name": "to",
          "type": "address"
        },
        {
          "internalType": "uint256",
          "name": "tokenId",
          "type": "uint256"
        }
      ],
      "name": "safeTransferFrom",
      "outputs": [],
      "stateMutability": "nonpayable",
      "type": "function"
    },
    {
      "inputs": [
        {
          "internalType": "address",
          "name": "from",
          "type": "address"
        },
        {
          "internalType": "address",
          "name": "to",
          "type": "address"
        },
        {
          "internalType": "uint256",
          "name": "tokenId",
          "type": "uint256"
        },
        {
          "internalType": "bytes",
          "name": "_data",
          "type": "bytes"
        }
      ],
      "name": "safeTransferFrom",
      "outputs": [],
      "stateMutability": "nonpayable",
      "type": "function"
    },
    {
      "inputs": [
        {
          "internalType": "address",
          "name": "operator",
          "type": "address"
        },
        {
          "internalType": "bool",
          "name": "approved",
          "type": "bool"
        }
      ],
      "name": "setApprovalForAll",
      "outputs": [],
      "stateMutability": "nonpayable",
      "type": "function"
    },
    {
      "inputs": [
        {
          "internalType": "uint256",
          "name": "_amount",
          "type": "uint256"
        }
      ],
      "name": "setDefAllowedMintAmount",
      "outputs": [],
      "stateMutability": "nonpayable",
      "type": "function"
    },
    {
      "inputs": [
        {
          "internalType": "uint256",
          "name": "_price",
          "type": "uint256"
        }
      ],
      "name": "setPrice",
      "outputs": [],
      "stateMutability": "nonpayable",
      "type": "function"
    },
    {
      "inputs": [
        {
          "internalType": "bytes4",
          "name": "interfaceId",
          "type": "bytes4"
        }
      ],
      "name": "supportsInterface",
      "outputs": [
        {
          "internalType": "bool",
          "name": "",
          "type": "bool"
        }
      ],
      "stateMutability": "view",
      "type": "function"
    },
    {
      "inputs": [],
      "name": "symbol",
      "outputs": [
        {
          "internalType": "string",
          "name": "",
          "type": "string"
        }
      ],
      "stateMutability": "view",
      "type": "function"
    },
    {
      "inputs": [],
      "name": "thesaurus",
      "outputs": [
        {
          "internalType": "contract IThesaurus",
          "name": "",
          "type": "address"
        }
      ],
      "stateMutability": "view",
      "type": "function"
    },
    {
      "inputs": [
        {
          "internalType": "uint256",
          "name": "index",
          "type": "uint256"
        }
      ],
      "name": "tokenByIndex",
      "outputs": [
        {
          "internalType": "uint256",
          "name": "",
          "type": "uint256"
        }
      ],
      "stateMutability": "view",
      "type": "function"
    },
    {
      "inputs": [
        {
          "internalType": "address",
          "name": "owner",
          "type": "address"
        },
        {
          "internalType": "uint256",
          "name": "index",
          "type": "uint256"
        }
      ],
      "name": "tokenOfOwnerByIndex",
      "outputs": [
        {
          "internalType": "uint256",
          "name": "",
          "type": "uint256"
        }
      ],
      "stateMutability": "view",
      "type": "function"
    },
    {
      "inputs": [
        {
          "internalType": "uint256",
          "name": "_tokenId",
          "type": "uint256"
        }
      ],
      "name": "tokenURI",
      "outputs": [
        {
          "internalType": "string",
          "name": "",
          "type": "string"
        }
      ],
      "stateMutability": "view",
      "type": "function"
    },
    {
      "inputs": [],
      "name": "totalSupply",
      "outputs": [
        {
          "internalType": "uint256",
          "name": "",
          "type": "uint256"
        }
      ],
      "stateMutability": "view",
      "type": "function"
    },
    {
      "inputs": [
        {
          "internalType": "address",
          "name": "_recipient",
          "type": "address"
        },
        {
          "internalType": "uint256",
          "name": "_amount",
          "type": "uint256"
        }
      ],
      "name": "transferEth",
      "outputs": [],
      "stateMutability": "payable",
      "type": "function"
    },
    {
      "inputs": [
        {
          "internalType": "address",
          "name": "from",
          "type": "address"
        },
        {
          "internalType": "address",
          "name": "to",
          "type": "address"
        },
        {
          "internalType": "uint256",
          "name": "tokenId",
          "type": "uint256"
        }
      ],
      "name": "transferFrom",
      "outputs": [],
      "stateMutability": "nonpayable",
      "type": "function"
    },
    {
      "inputs": [
        {
          "internalType": "address",
          "name": "newOwner",
          "type": "address"
        }
      ],
      "name": "transferOwnership",
      "outputs": [],
      "stateMutability": "nonpayable",
      "type": "function"
    },
    {
      "inputs": [
        {
          "internalType": "uint256",
          "name": "",
          "type": "uint256"
        }
      ],
      "name": "types",
      "outputs": [
        {
          "internalType": "uint8",
          "name": "",
          "type": "uint8"
        }
      ],
      "stateMutability": "view",
      "type": "function"
    },
    {
      "inputs": [
        {
          "internalType": "uint256",
          "name": "",
          "type": "uint256"
        }
      ],
      "name": "verb",
      "outputs": [
        {
          "internalType": "string",
          "name": "",
          "type": "string"
        }
      ],
      "stateMutability": "view",
      "type": "function"
    },
    {
      "inputs": [
        {
          "internalType": "bytes32[]",
          "name": "_proof",
          "type": "bytes32[]"
        },
        {
          "internalType": "address",
          "name": "_recipient",
          "type": "address"
        },
        {
          "internalType": "uint256",
          "name": "_amount",
          "type": "uint256"
        }
      ],
      "name": "verifyProof",
      "outputs": [
        {
          "internalType": "bool",
          "name": "",
          "type": "bool"
        }
      ],
      "stateMutability": "view",
      "type": "function"
    },
    {
      "stateMutability": "payable",
      "type": "receive"
    }
  ],
  "transactionHash": "0x61e19d0b2b25526b9604702504051650ce5f352e6c8d15fe5005a0a596e581ed",
  "args": [
    "Digital Art Drive",
    "DAD",
    "https://www.google.com",
    "0x525fd08235DC2Bd58729ba19b4Dc70B51BB8C1f0",
    0,
    50,
    450,
    4500,
    1,
    "0xbb716b003040397e4b9210b019f46c573fcca87271087157114b6819f59bc9e8"
  ],
  "numDeployments": 1,
  "solcInputHash": "7409245b253a9873d3ee4bd5962a152d",
  "bytecode": "0x60806040523480156200001157600080fd5b506040516200421338038062004213833981016040819052620000349162000600565b620000488a8a8a8a8a8a8a8a8a8a62000058565b505050505050505050506200071d565b60006200006660016200013c565b905080156200007f576000805461ff0019166101001790555b6200008b8b8b62000253565b62000095620002bf565b8851620000aa9060fd9060208c019062000475565b5060fc80546001600160a01b0319166001600160a01b038a1617905561010187905560fe86905560ff85905561010084905561010383905561010282905580156200012f576000805461ff0019169055604051600181527f7f26b83ff96e1f2b6a682f133852f6798a09c465da95921460cefb38474024989060200160405180910390a15b5050505050505050505050565b60008054610100900460ff1615620001d5578160ff16600114801562000175575062000173306200032760201b62001bf01760201c565b155b620001cd5760405162461bcd60e51b815260206004820152602e6024820152600080516020620041d383398151915260448201526d191e481a5b9a5d1a585b1a5e995960921b60648201526084015b60405180910390fd5b506000919050565b60005460ff808416911610620002345760405162461bcd60e51b815260206004820152602e6024820152600080516020620041d383398151915260448201526d191e481a5b9a5d1a585b1a5e995960921b6064820152608401620001c4565b506000805460ff191660ff92909216919091179055600190565b919050565b600054610100900460ff16620002af5760405162461bcd60e51b815260206004820152602b6024820152600080516020620041f383398151915260448201526a6e697469616c697a696e6760a81b6064820152608401620001c4565b620002bb828262000336565b5050565b600054610100900460ff166200031b5760405162461bcd60e51b815260206004820152602b6024820152600080516020620041f383398151915260448201526a6e697469616c697a696e6760a81b6064820152608401620001c4565b62000325620003c2565b565b6001600160a01b03163b151590565b600054610100900460ff16620003925760405162461bcd60e51b815260206004820152602b6024820152600080516020620041f383398151915260448201526a6e697469616c697a696e6760a81b6064820152608401620001c4565b8151620003a790609790602085019062000475565b508051620003bd90609890602084019062000475565b505050565b600054610100900460ff166200041e5760405162461bcd60e51b815260206004820152602b6024820152600080516020620041f383398151915260448201526a6e697469616c697a696e6760a81b6064820152608401620001c4565b6200032533603380546001600160a01b038381166001600160a01b0319831681179093556040519116919082907f8be0079c531659141344cd1fd0a4f28419497f9722a3daafe3b4186f6b6457e090600090a35050565b8280546200048390620006e0565b90600052602060002090601f016020900481019282620004a75760008555620004f2565b82601f10620004c257805160ff1916838001178555620004f2565b82800160010185558215620004f2579182015b82811115620004f2578251825591602001919060010190620004d5565b506200050092915062000504565b5090565b5b8082111562000500576000815560010162000505565b634e487b7160e01b600052604160045260246000fd5b600082601f8301126200054357600080fd5b81516001600160401b03808211156200056057620005606200051b565b604051601f8301601f19908116603f011681019082821181831017156200058b576200058b6200051b565b81604052838152602092508683858801011115620005a857600080fd5b600091505b83821015620005cc5785820183015181830184015290820190620005ad565b83821115620005de5760008385830101525b9695505050505050565b80516001600160a01b03811681146200024e57600080fd5b6000806000806000806000806000806101408b8d0312156200062157600080fd5b8a516001600160401b03808211156200063957600080fd5b620006478e838f0162000531565b9b5060208d01519150808211156200065e57600080fd5b6200066c8e838f0162000531565b9a5060408d01519150808211156200068357600080fd5b50620006928d828e0162000531565b985050620006a360608c01620005e8565b965060808b0151955060a08b0151945060c08b0151935060e08b015192506101008b015191506101208b015190509295989b9194979a5092959850565b600181811c90821680620006f557607f821691505b602082108114156200071757634e487b7160e01b600052602260045260246000fd5b50919050565b613aa6806200072d6000396000f3fe6080604052600436106102535760003560e01c8063726d20fe11610138578063c87b56dd116100b0578063e985e9c511610077578063e985e9c514610739578063e9bb84c214610782578063ea71b92214610795578063ed76bd0b146107ac578063f2fde38b146107da578063fa4ad06d146107fa57005b8063c87b56dd14610680578063cefbfa36146106a0578063d88eae00146106e3578063dd467064146106f9578063e20b21271461071957005b8063a035b1fe116100ff578063a035b1fe146105c2578063a22cb465146105d9578063b45a3c0e146105f9578063b563f72d1461062a578063b88d4fde14610640578063b9fd27bd1461066057005b8063726d20fe1461052f5780638da5cb5b1461054f57806391b7f5ed1461056d578063929943b11461058d57806395d89b41146105ad57005b806340c10f19116101cb5780636286eb08116101925780636286eb081461048e5780636352211e146104ae578063655fe881146104ce5780636c0360eb146104e557806370a08231146104fa578063715018a61461051a57005b806340c10f19146103e157806342842e0e1461040e578063437f07281461042e5780634f6ccce71461044e57806355a498c81461046e57005b8063227eac8b1161021a578063227eac8b1461032a57806322abd4e31461034a57806323b872dd1461036a5780632eb4a7ab1461038a5780632f745c59146103a157806336b04f26146103c157005b806301ffc9a71461025c57806306fdde0314610291578063081812fc146102b3578063095ea7b3146102eb57806318160ddd1461030b57005b3661025a57005b005b34801561026857600080fd5b5061027c610277366004612e95565b61082b565b60405190151581526020015b60405180910390f35b34801561029d57600080fd5b506102a6610856565b6040516102889190612f0a565b3480156102bf57600080fd5b506102d36102ce366004612f1d565b6108e8565b6040516001600160a01b039091168152602001610288565b3480156102f757600080fd5b5061025a610306366004612f4d565b610975565b34801561031757600080fd5b5060cb545b604051908152602001610288565b34801561033657600080fd5b5061025a610345366004613044565b610a8b565b34801561035657600080fd5b5060fc546102d3906001600160a01b031681565b34801561037657600080fd5b5061025a6103853660046130a3565b610dd3565b34801561039657600080fd5b5061031c6101025481565b3480156103ad57600080fd5b5061031c6103bc366004612f4d565b610e04565b3480156103cd57600080fd5b506102a66103dc366004612f1d565b610e9a565b3480156103ed57600080fd5b506104016103fc366004612f4d565b610f35565b60405161028891906130df565b34801561041a57600080fd5b5061025a6104293660046130a3565b610fc9565b34801561043a57600080fd5b5061025a610449366004612f1d565b610fe4565b34801561045a57600080fd5b5061031c610469366004612f1d565b611055565b34801561047a57600080fd5b506102a6610489366004612f1d565b6110e8565b34801561049a57600080fd5b5061025a6104a9366004613123565b611102565b3480156104ba57600080fd5b506102d36104c9366004612f1d565b6111dc565b3480156104da57600080fd5b5061031c6101005481565b3480156104f157600080fd5b506102a6611253565b34801561050657600080fd5b5061031c6105153660046131f3565b611260565b34801561052657600080fd5b5061025a6112e7565b34801561053b57600080fd5b5061027c61054a36600461328e565b61131d565b34801561055b57600080fd5b506033546001600160a01b03166102d3565b34801561057957600080fd5b5061025a610588366004612f1d565b61136d565b34801561059957600080fd5b5061025a6105a83660046132d5565b6113d6565b3480156105b957600080fd5b506102a6611502565b3480156105ce57600080fd5b5061031c6101015481565b3480156105e557600080fd5b5061025a6105f436600461332c565b611511565b34801561060557600080fd5b5061027c610614366004612f1d565b6101086020526000908152604090205460ff1681565b34801561063657600080fd5b5061031c60ff5481565b34801561064c57600080fd5b5061025a61065b366004613368565b611520565b34801561066c57600080fd5b506102a661067b366004612f1d565b611558565b34801561068c57600080fd5b506102a661069b366004612f1d565b611572565b3480156106ac57600080fd5b506106d16106bb366004612f1d565b6101096020526000908152604090205460ff1681565b60405160ff9091168152602001610288565b3480156106ef57600080fd5b5061031c60fe5481565b34801561070557600080fd5b5061025a610714366004612f1d565b6117c1565b34801561072557600080fd5b5061025a610734366004612f1d565b6118fc565b34801561074557600080fd5b5061027c6107543660046133e4565b6001600160a01b039182166000908152609c6020908152604080832093909416825291909152205460ff1690565b61025a610790366004612f4d565b611ab5565b3480156107a157600080fd5b5061031c6101035481565b3480156107b857600080fd5b5061031c6107c73660046131f3565b61010a6020526000908152604090205481565b3480156107e657600080fd5b5061025a6107f53660046131f3565b611b55565b34801561080657600080fd5b5061027c610815366004612f1d565b6101076020526000908152604090205460ff1681565b60006001600160e01b0319821663780e9d6360e01b1480610850575061085082611bff565b92915050565b60606097805461086590613417565b80601f016020809104026020016040519081016040528092919081815260200182805461089190613417565b80156108de5780601f106108b3576101008083540402835291602001916108de565b820191906000526020600020905b8154815290600101906020018083116108c157829003601f168201915b5050505050905090565b60006108f382611c4f565b6109595760405162461bcd60e51b815260206004820152602c60248201527f4552433732313a20617070726f76656420717565727920666f72206e6f6e657860448201526b34b9ba32b73a103a37b5b2b760a11b60648201526084015b60405180910390fd5b506000908152609b60205260409020546001600160a01b031690565b6000610980826111dc565b9050806001600160a01b0316836001600160a01b031614156109ee5760405162461bcd60e51b815260206004820152602160248201527f4552433732313a20617070726f76616c20746f2063757272656e74206f776e656044820152603960f91b6064820152608401610950565b336001600160a01b0382161480610a0a5750610a0a8133610754565b610a7c5760405162461bcd60e51b815260206004820152603860248201527f4552433732313a20617070726f76652063616c6c6572206973206e6f74206f7760448201527f6e6572206e6f7220617070726f76656420666f7220616c6c00000000000000006064820152608401610950565b610a868383611c6c565b505050565b610a9483611c4f565b610ab05760405162461bcd60e51b815260040161095090613452565b33610aba846111dc565b6001600160a01b031614610b105760405162461bcd60e51b815260206004820152601c60248201527f4172744472697665723a20596f7520617265206e6f74206f776e6572000000006044820152606401610950565b6000838152610107602052604090205460ff16610b6f5760405162461bcd60e51b815260206004820152601960248201527f4172744472697665723a20746f6b656e206973206164646564000000000000006044820152606401610950565b601e8151108015610b81575060008151115b610be65760405162461bcd60e51b815260206004820152603060248201527f4172744472697665723a20776f7264206d696e696d756d20302c206d6178696d60448201526f756d203330206368617261637465727360801b6064820152608401610950565b6000838152610109602052604081205460ff1660011415610c0957506001610d2c565b6000848152610109602052604090205460ff1660021415610c2c57506005610d2c565b6000848152610109602052604090205460ff1660031415610cdf57610cd8606460fc60009054906101000a90046001600160a01b03166001600160a01b03166366ac564a6040518163ffffffff1660e01b815260040160206040518083038186803b158015610c9a57600080fd5b505afa158015610cae573d6000803e3d6000fd5b505050506040513d601f19601f82011682018060405250810190610cd2919061349c565b90611cda565b9050610d2c565b6000610ced8460ff16611ced565b604051602001610cfd91906134d1565b60405160208183030381529060405290610d2a5760405162461bcd60e51b81526004016109509190612f0a565b505b60fc5460405163012b1d7b60e21b81526001600160a01b03909116906304ac75ec90610d609086908590879060040161352d565b600060405180830381600087803b158015610d7a57600080fd5b505af1158015610d8e573d6000803e3d6000fd5b505050507ffdac6959a3a5882f20eeb4ea8e8a0007e1e99d29434bed07ce50b0d675d1f60f848284604051610dc59392919061354f565b60405180910390a150505050565b610ddd3382611df3565b610df95760405162461bcd60e51b81526004016109509061356e565b610a86838383611edc565b6000610e0f83611260565b8210610e715760405162461bcd60e51b815260206004820152602b60248201527f455243373231456e756d657261626c653a206f776e657220696e646578206f7560448201526a74206f6620626f756e647360a81b6064820152608401610950565b506001600160a01b0391909116600090815260c960209081526040808320938352929052205490565b6101056020526000908152604090208054610eb490613417565b80601f0160208091040260200160405190810160405280929190818152602001828054610ee090613417565b8015610f2d5780601f10610f0257610100808354040283529160200191610f2d565b820191906000526020600020905b815481529060010190602001808311610f1057829003601f168201915b505050505081565b606060008267ffffffffffffffff811115610f5257610f52612f77565b604051908082528060200260200182016040528015610f7b578160200160208202803683370190505b50905060005b83811015610fc157610f9285612083565b828281518110610fa457610fa46135bf565b602090810291909101015280610fb9816135eb565b915050610f81565b509392505050565b610a8683838360405180602001604052806000815250611520565b6033546001600160a01b0316331461100e5760405162461bcd60e51b815260040161095090613606565b61010380549082905560408051828152602081018490527fd69665acf13372710dd6e2cb5397fc0424e25f4e490ae03215736546ba2dddf291015b60405180910390a15050565b600061106060cb5490565b82106110c35760405162461bcd60e51b815260206004820152602c60248201527f455243373231456e756d657261626c653a20676c6f62616c20696e646578206f60448201526b7574206f6620626f756e647360a01b6064820152608401610950565b60cb82815481106110d6576110d66135bf565b90600052602060002001549050919050565b6101046020526000908152604090208054610eb490613417565b600061110e6001612342565b90508015611126576000805461ff0019166101001790555b6111308b8b6123cf565b611138612400565b885161114b9060fd9060208c0190612de6565b5060fc80546001600160a01b0319166001600160a01b038a1617905561010187905560fe86905560ff85905561010084905561010383905561010282905580156111cf576000805461ff0019169055604051600181527f7f26b83ff96e1f2b6a682f133852f6798a09c465da95921460cefb38474024989060200160405180910390a15b5050505050505050505050565b6000818152609960205260408120546001600160a01b0316806108505760405162461bcd60e51b815260206004820152602960248201527f4552433732313a206f776e657220717565727920666f72206e6f6e657869737460448201526832b73a103a37b5b2b760b91b6064820152608401610950565b60fd8054610eb490613417565b60006001600160a01b0382166112cb5760405162461bcd60e51b815260206004820152602a60248201527f4552433732313a2062616c616e636520717565727920666f7220746865207a65604482015269726f206164647265737360b01b6064820152608401610950565b506001600160a01b03166000908152609a602052604090205490565b6033546001600160a01b031633146113115760405162461bcd60e51b815260040161095090613606565b61131b600061242f565b565b604080516001600160a01b03841660208201529081018290526000908190606001604051602081830303815290604052805190602001209050611364856101025483612481565b95945050505050565b6033546001600160a01b031633146113975760405162461bcd60e51b815260040161095090613606565b61010180549082905560408051828152602081018490527fb9362b96e28efbb7a7e63bb4a97faf9924ec0394635feff8588a6ae2a5f784fe9101611049565b6001600160a01b038316600090815261010a60205260409020541561143d5760405162461bcd60e51b815260206004820152601b60248201527f4172744472697665723a20416c726561647920726563656976656400000000006044820152606401610950565b61144882848361131d565b6114a85760405162461bcd60e51b815260206004820152602b60248201527f4172744472697665723a205468652070726f6f6620636f756c64206e6f74206260448201526a32903b32b934b334b2b21760a91b6064820152608401610950565b6001600160a01b038316600081815261010a6020908152604091829020849055815192835282018390527fba5ec43de175afadf4606466cf5d34a6a29fe6bd172df29a0476e8eadb7b38e7910160405180910390a1505050565b60606098805461086590613417565b61151c338383612497565b5050565b61152a3383611df3565b6115465760405162461bcd60e51b81526004016109509061356e565b61155284848484612566565b50505050565b6101066020526000908152604090208054610eb490613417565b606061157d82611c4f565b6115995760405162461bcd60e51b815260040161095090613452565b60008281526101046020526040812080546115b390613417565b80601f01602080910402602001604051908101604052809291908181526020018280546115df90613417565b801561162c5780601f106116015761010080835404028352916020019161162c565b820191906000526020600020905b81548152906001019060200180831161160f57829003601f168201915b5050505050905060006101056000858152602001908152602001600020805461165490613417565b80601f016020809104026020016040519081016040528092919081815260200182805461168090613417565b80156116cd5780601f106116a2576101008083540402835291602001916116cd565b820191906000526020600020905b8154815290600101906020018083116116b057829003601f168201915b505050505090506000610106600086815260200190815260200160002080546116f590613417565b80601f016020809104026020016040519081016040528092919081815260200182805461172190613417565b801561176e5780601f106117435761010080835404028352916020019161176e565b820191906000526020600020905b81548152906001019060200180831161175157829003601f168201915b5050506000888152610109602090815260409182902054915194955060ff909116936117a7935060fd925084918891889188910161363b565b604051602081830303815290604052945050505050919050565b6117ca81611c4f565b6117e65760405162461bcd60e51b815260040161095090613452565b6000818152610108602052604090205460ff166118455760405162461bcd60e51b815260206004820152601a60248201527f4172744472697665723a20746f6b656e206973206c6f636b65640000000000006044820152606401610950565b3361184f826111dc565b6001600160a01b0316146118a55760405162461bcd60e51b815260206004820152601c60248201527f4172744472697665723a20596f7520617265206e6f74206f776e6572000000006044820152606401610950565b6000818152610108602052604090819020805460ff19166001179055517f032bc66be43dbccb7487781d168eb7bda224628a3b2c3388bdf69b532a3a1611906118f19083815260200190565b60405180910390a150565b61190581611c4f565b6119215760405162461bcd60e51b815260040161095090613452565b6000818152610108602052604090205460ff166119805760405162461bcd60e51b815260206004820152601a60248201527f4172744472697665723a20746f6b656e206973206c6f636b65640000000000006044820152606401610950565b60fc54600090819081906001600160a01b031663beff730f6119a160cb5490565b6040518263ffffffff1660e01b81526004016119bf91815260200190565b60006040518083038186803b1580156119d757600080fd5b505afa1580156119eb573d6000803e3d6000fd5b505050506040513d6000823e601f3d908101601f19168201604052611a139190810190613784565b6000878152610104602090815260409091208451949750929550909350611a3d9290860190612de6565b506000848152610105602090815260409091208351611a5e92850190612de6565b506000848152610106602090815260409091208251611a7f92840190612de6565b507f57f3798e8ce1fb9ea6eea73c23e95f2e6fabfbc4c8dd4586374c5c176393b74084848484604051610dc59493929190613802565b6033546001600160a01b03163314611adf5760405162461bcd60e51b815260040161095090613606565b6040516001600160a01b0383169082156108fc029083906000818181858888f19350505050158015611b15573d6000803e3d6000fd5b50604080516001600160a01b0384168152602081018390527fd9b66890b56321a19d7a216dd918f8c0d4023759afc4088deb9be15aca68ece29101611049565b6033546001600160a01b03163314611b7f5760405162461bcd60e51b815260040161095090613606565b6001600160a01b038116611be45760405162461bcd60e51b815260206004820152602660248201527f4f776e61626c653a206e6577206f776e657220697320746865207a65726f206160448201526564647265737360d01b6064820152608401610950565b611bed8161242f565b50565b6001600160a01b03163b151590565b60006001600160e01b031982166380ac58cd60e01b1480611c3057506001600160e01b03198216635b5e139f60e01b145b8061085057506301ffc9a760e01b6001600160e01b0319831614610850565b6000908152609960205260409020546001600160a01b0316151590565b6000818152609b6020526040902080546001600160a01b0319166001600160a01b0384169081179091558190611ca1826111dc565b6001600160a01b03167f8c5be1e5ebec7d5bd14f71427d1e84f3dd0314c0f7b2291e5b200ac8c7c3b92560405160405180910390a45050565b6000611ce68284613857565b9392505050565b606081611d115750506040805180820190915260018152600360fc1b602082015290565b8160005b8115611d3b5780611d25816135eb565b9150611d349050600a83613857565b9150611d15565b60008167ffffffffffffffff811115611d5657611d56612f77565b6040519080825280601f01601f191660200182016040528015611d80576020820181803683370190505b5090505b8415611deb57611d9560018361386b565b9150611da2600a86613882565b611dad906030613896565b60f81b818381518110611dc257611dc26135bf565b60200101906001600160f81b031916908160001a905350611de4600a86613857565b9450611d84565b949350505050565b6000611dfe82611c4f565b611e5f5760405162461bcd60e51b815260206004820152602c60248201527f4552433732313a206f70657261746f7220717565727920666f72206e6f6e657860448201526b34b9ba32b73a103a37b5b2b760a11b6064820152608401610950565b6000611e6a836111dc565b9050806001600160a01b0316846001600160a01b03161480611eb157506001600160a01b038082166000908152609c602090815260408083209388168352929052205460ff165b80611deb5750836001600160a01b0316611eca846108e8565b6001600160a01b031614949350505050565b826001600160a01b0316611eef826111dc565b6001600160a01b031614611f535760405162461bcd60e51b815260206004820152602560248201527f4552433732313a207472616e736665722066726f6d20696e636f72726563742060448201526437bbb732b960d91b6064820152608401610950565b6001600160a01b038216611fb55760405162461bcd60e51b8152602060048201526024808201527f4552433732313a207472616e7366657220746f20746865207a65726f206164646044820152637265737360e01b6064820152608401610950565b611fc0838383612599565b611fcb600082611c6c565b6001600160a01b0383166000908152609a60205260408120805460019290611ff490849061386b565b90915550506001600160a01b0382166000908152609a60205260408120805460019290612022908490613896565b909155505060008181526099602052604080822080546001600160a01b0319166001600160a01b0386811691821790925591518493918716917fddf252ad1be2c89b69c2b068fc378daa952ba7f163c4a11628f55a4df523b3ef91a4505050565b60006120976033546001600160a01b031690565b6001600160a01b0316336001600160a01b0316146121bd576001600160a01b038216600090815261010a6020526040902054610103546120d691612651565b6120df83611260565b106121425760405162461bcd60e51b815260206004820152602d60248201527f4172744472697665723a204578636565647320746865206d6178696d756d206e60448201526c1d5b58995c881bd9881b5a5b9d609a1b6064820152608401610950565b6001600160a01b038216600090815261010a602052604090205461216583611260565b106121bd57610101543410156121bd5760405162461bcd60e51b815260206004820152601f60248201527f4172744472697665723a206d73672e76616c756520446566696369656e6379006044820152606401610950565b5060fb5460fc5460cb5460405163beff730f60e01b81526004810191909152600091829182916001600160a01b03169063beff730f9060240160006040518083038186803b15801561220e57600080fd5b505afa158015612222573d6000803e3d6000fd5b505050506040513d6000823e601f3d908101601f1916820160405261224a9190810190613784565b60008781526101046020908152604090912084519497509295509093506122749290860190612de6565b50600084815261010560209081526040909120835161229592850190612de6565b5060008481526101066020908152604090912082516122b692840190612de6565b5060006122c28561265d565b600086815261010960205260409020805460ff191660ff831617905590506122ea868661275c565b6122f860fb80546001019055565b7f06d462992b94a71271caecaa4d7031f82eed46383a2d5c24c15f7ab75b9a7a94858786868686604051612331969594939291906138ae565b60405180910390a150505050919050565b60008054610100900460ff1615612389578160ff1660011480156123655750303b155b6123815760405162461bcd60e51b815260040161095090613915565b506000919050565b60005460ff8084169116106123b05760405162461bcd60e51b815260040161095090613915565b506000805460ff191660ff92909216919091179055600190565b919050565b600054610100900460ff166123f65760405162461bcd60e51b815260040161095090613963565b61151c828261289b565b600054610100900460ff166124275760405162461bcd60e51b815260040161095090613963565b61131b6128e9565b603380546001600160a01b038381166001600160a01b0319831681179093556040519116919082907f8be0079c531659141344cd1fd0a4f28419497f9722a3daafe3b4186f6b6457e090600090a35050565b60008261248e8584612919565b14949350505050565b816001600160a01b0316836001600160a01b031614156124f95760405162461bcd60e51b815260206004820152601960248201527f4552433732313a20617070726f766520746f2063616c6c6572000000000000006044820152606401610950565b6001600160a01b038381166000818152609c6020908152604080832094871680845294825291829020805460ff191686151590811790915591519182527f17307eab39ab6107e8899845ad3d59bd9653f200f220920489ca2b5937696c31910160405180910390a3505050565b612571848484611edc565b61257d84848484612985565b6115525760405162461bcd60e51b8152600401610950906139ae565b6001600160a01b0383166125f4576125ef8160cb8054600083815260cc60205260408120829055600182018355919091527fa7ce836d032b2bf62b7e2097a8e0a6d8aeb35405ad15271e96d3b0188a1d06fb0155565b612617565b816001600160a01b0316836001600160a01b031614612617576126178382612a92565b6001600160a01b03821661262e57610a8681612b2f565b826001600160a01b0316826001600160a01b031614610a8657610a868282612bde565b6000611ce68284613896565b604080516003808252608082019092526000918291906020820160608036833750506101005491925050156126b6576001816000815181106126a1576126a16135bf565b602002602001019060ff16908160ff16815250505b60ff54156126e8576002816001815181106126d3576126d36135bf565b602002602001019060ff16908160ff16815250505b60fe541561271a57600381600281518110612705576127056135bf565b602002602001019060ff16908160ff16815250505b61272381612c22565b905060006127346000835186612d62565b9050818160ff168151811061274b5761274b6135bf565b602002602001015192505050919050565b6001600160a01b0382166127b25760405162461bcd60e51b815260206004820181905260248201527f4552433732313a206d696e7420746f20746865207a65726f20616464726573736044820152606401610950565b6127bb81611c4f565b156128085760405162461bcd60e51b815260206004820152601c60248201527f4552433732313a20746f6b656e20616c7265616479206d696e746564000000006044820152606401610950565b61281460008383612599565b6001600160a01b0382166000908152609a6020526040812080546001929061283d908490613896565b909155505060008181526099602052604080822080546001600160a01b0319166001600160a01b03861690811790915590518392907fddf252ad1be2c89b69c2b068fc378daa952ba7f163c4a11628f55a4df523b3ef908290a45050565b600054610100900460ff166128c25760405162461bcd60e51b815260040161095090613963565b81516128d5906097906020850190612de6565b508051610a86906098906020840190612de6565b600054610100900460ff166129105760405162461bcd60e51b815260040161095090613963565b61131b3361242f565b600081815b8451811015610fc157600085828151811061293b5761293b6135bf565b602002602001015190508083116129615760008381526020829052604090209250612972565b600081815260208490526040902092505b508061297d816135eb565b91505061291e565b60006001600160a01b0384163b15612a8757604051630a85bd0160e11b81526001600160a01b0385169063150b7a02906129c9903390899088908890600401613a00565b602060405180830381600087803b1580156129e357600080fd5b505af1925050508015612a13575060408051601f3d908101601f19168201909252612a1091810190613a3d565b60015b612a6d573d808015612a41576040519150601f19603f3d011682016040523d82523d6000602084013e612a46565b606091505b508051612a655760405162461bcd60e51b8152600401610950906139ae565b805181602001fd5b6001600160e01b031916630a85bd0160e11b149050611deb565b506001949350505050565b60006001612a9f84611260565b612aa9919061386b565b600083815260ca6020526040902054909150808214612afc576001600160a01b038416600090815260c960209081526040808320858452825280832054848452818420819055835260ca90915290208190555b50600091825260ca602090815260408084208490556001600160a01b03909416835260c981528383209183525290812055565b60cb54600090612b419060019061386b565b600083815260cc602052604081205460cb8054939450909284908110612b6957612b696135bf565b906000526020600020015490508060cb8381548110612b8a57612b8a6135bf565b600091825260208083209091019290925582815260cc909152604080822084905585825281205560cb805480612bc257612bc2613a5a565b6001900381819060005260206000200160009055905550505050565b6000612be983611260565b6001600160a01b03909316600090815260c960209081526040808320868452825280832085905593825260ca9052919091209190915550565b60606000805b8351811015612c7857600060ff16848281518110612c4857612c486135bf565b602002602001015160ff1614612c665781612c62816135eb565b9250505b80612c70816135eb565b915050612c28565b5060008167ffffffffffffffff811115612c9457612c94612f77565b604051908082528060200260200182016040528015612cbd578160200160208202803683370190505b5090506000805b8551811015612d5857600060ff16868281518110612ce457612ce46135bf565b602002602001015160ff161415612cfa57612d46565b858181518110612d0c57612d0c6135bf565b6020026020010151838381518110612d2657612d266135bf565b60ff9092166020928302919091019091015281612d42816135eb565b9250505b80612d50816135eb565b915050612cc4565b5090949350505050565b6000611deb848484604080514260208083018290524483850181905260608085018790528551808603909101815260808501865280519083012060a085019390935260c084015260e08084018390528451808503909101815261010090930190935281519190920120600091908590612ddc908690613882565b6113649190613896565b828054612df290613417565b90600052602060002090601f016020900481019282612e145760008555612e5a565b82601f10612e2d57805160ff1916838001178555612e5a565b82800160010185558215612e5a579182015b82811115612e5a578251825591602001919060010190612e3f565b50612e66929150612e6a565b5090565b5b80821115612e665760008155600101612e6b565b6001600160e01b031981168114611bed57600080fd5b600060208284031215612ea757600080fd5b8135611ce681612e7f565b60005b83811015612ecd578181015183820152602001612eb5565b838111156115525750506000910152565b60008151808452612ef6816020860160208601612eb2565b601f01601f19169290920160200192915050565b602081526000611ce66020830184612ede565b600060208284031215612f2f57600080fd5b5035919050565b80356001600160a01b03811681146123ca57600080fd5b60008060408385031215612f6057600080fd5b612f6983612f36565b946020939093013593505050565b634e487b7160e01b600052604160045260246000fd5b604051601f8201601f1916810167ffffffffffffffff81118282101715612fb657612fb6612f77565b604052919050565b600067ffffffffffffffff821115612fd857612fd8612f77565b50601f01601f191660200190565b6000612ff9612ff484612fbe565b612f8d565b905082815283838301111561300d57600080fd5b828260208301376000602084830101529392505050565b600082601f83011261303557600080fd5b611ce683833560208501612fe6565b60008060006060848603121561305957600080fd5b83359250602084013560ff8116811461307157600080fd5b9150604084013567ffffffffffffffff81111561308d57600080fd5b61309986828701613024565b9150509250925092565b6000806000606084860312156130b857600080fd5b6130c184612f36565b92506130cf60208501612f36565b9150604084013590509250925092565b6020808252825182820181905260009190848201906040850190845b81811015613117578351835292840192918401916001016130fb565b50909695505050505050565b6000806000806000806000806000806101408b8d03121561314357600080fd5b8a3567ffffffffffffffff8082111561315b57600080fd5b6131678e838f01613024565b9b5060208d013591508082111561317d57600080fd5b6131898e838f01613024565b9a5060408d013591508082111561319f57600080fd5b506131ac8d828e01613024565b9850506131bb60608c01612f36565b999c989b50969960808101359860a0820135985060c0820135975060e082013596506101008201359550610120909101359350915050565b60006020828403121561320557600080fd5b611ce682612f36565b600082601f83011261321f57600080fd5b8135602067ffffffffffffffff82111561323b5761323b612f77565b8160051b61324a828201612f8d565b928352848101820192828101908785111561326457600080fd5b83870192505b848310156132835782358252918301919083019061326a565b979650505050505050565b6000806000606084860312156132a357600080fd5b833567ffffffffffffffff8111156132ba57600080fd5b6132c68682870161320e565b9350506130cf60208501612f36565b6000806000606084860312156132ea57600080fd5b6132f384612f36565b9250602084013567ffffffffffffffff81111561330f57600080fd5b61331b8682870161320e565b925050604084013590509250925092565b6000806040838503121561333f57600080fd5b61334883612f36565b91506020830135801515811461335d57600080fd5b809150509250929050565b6000806000806080858703121561337e57600080fd5b61338785612f36565b935061339560208601612f36565b925060408501359150606085013567ffffffffffffffff8111156133b857600080fd5b8501601f810187136133c957600080fd5b6133d887823560208401612fe6565b91505092959194509250565b600080604083850312156133f757600080fd5b61340083612f36565b915061340e60208401612f36565b90509250929050565b600181811c9082168061342b57607f821691505b6020821081141561344c57634e487b7160e01b600052602260045260246000fd5b50919050565b6020808252602a908201527f4172744472697665723a2055524920717565727920666f72206e6f6e657869736040820152693a32b73a103a37b5b2b760b11b606082015260800190565b6000602082840312156134ae57600080fd5b5051919050565b600081516134c7818560208601612eb2565b9290920192915050565b7f4172744472697665723a205468657265206973206e6f20737563682074797065815261205b60f01b602082015260008251613514816022850160208701612eb2565b61205d60f01b6022939091019283015250602401919050565b60ff841681528260208201526060604082015260006113646060830184612ede565b8381528260208201526060604082015260006113646060830184612ede565b60208082526031908201527f4552433732313a207472616e736665722063616c6c6572206973206e6f74206f6040820152701ddb995c881b9bdc88185c1c1c9bdd9959607a1b606082015260800190565b634e487b7160e01b600052603260045260246000fd5b634e487b7160e01b600052601160045260246000fd5b60006000198214156135ff576135ff6135d5565b5060010190565b6020808252818101527f4f776e61626c653a2063616c6c6572206973206e6f7420746865206f776e6572604082015260600190565b600080875481600182811c91508083168061365757607f831692505b602080841082141561367757634e487b7160e01b86526022600452602486fd5b81801561368b576001811461369c576136c9565b60ff198616895284890196506136c9565b60008e81526020902060005b868110156136c15781548b8201529085019083016136a8565b505084890196505b5050602f60f81b8552506001840193506136ef848b60f81b6001600160f81b0319169052565b61373061372a613717613724613717613711868a01602f60f81b815260010190565b8e6134b5565b602f60f81b815260010190565b8b6134b5565b886134b5565b9b9a5050505050505050505050565b600082601f83011261375057600080fd5b815161375e612ff482612fbe565b81815284602083860101111561377357600080fd5b611deb826020830160208701612eb2565b60008060006060848603121561379957600080fd5b835167ffffffffffffffff808211156137b157600080fd5b6137bd8783880161373f565b945060208601519150808211156137d357600080fd5b6137df8783880161373f565b935060408601519150808211156137f557600080fd5b506130998682870161373f565b84815260806020820152600061381b6080830186612ede565b828103604084015261382d8186612ede565b905082810360608401526132838185612ede565b634e487b7160e01b600052601260045260246000fd5b60008261386657613866613841565b500490565b60008282101561387d5761387d6135d5565b500390565b60008261389157613891613841565b500690565b600082198211156138a9576138a96135d5565b500190565b8681526001600160a01b038616602082015260c0604082018190526000906138d890830187612ede565b82810360608401526138ea8187612ede565b905082810360808401526138fe8186612ede565b91505060ff831660a0830152979650505050505050565b6020808252602e908201527f496e697469616c697a61626c653a20636f6e747261637420697320616c72656160408201526d191e481a5b9a5d1a585b1a5e995960921b606082015260800190565b6020808252602b908201527f496e697469616c697a61626c653a20636f6e7472616374206973206e6f74206960408201526a6e697469616c697a696e6760a81b606082015260800190565b60208082526032908201527f4552433732313a207472616e7366657220746f206e6f6e20455243373231526560408201527131b2b4bb32b91034b6b83632b6b2b73a32b960711b606082015260800190565b6001600160a01b0385811682528416602082015260408101839052608060608201819052600090613a3390830184612ede565b9695505050505050565b600060208284031215613a4f57600080fd5b8151611ce681612e7f565b634e487b7160e01b600052603160045260246000fdfea2646970667358221220e55946c5bd75bf54612b462f527937029085bd4fc20424a8a0a5f4dbdbf483da64736f6c63430008090033496e697469616c697a61626c653a20636f6e747261637420697320616c726561496e697469616c697a61626c653a20636f6e7472616374206973206e6f742069",
  "devdoc": {
    "kind": "dev",
    "methods": {
      "approve(address,uint256)": {
        "details": "See {IERC721-approve}."
      },
      "balanceOf(address)": {
        "details": "See {IERC721-balanceOf}."
      },
      "getApproved(uint256)": {
        "details": "See {IERC721-getApproved}."
      },
      "isApprovedForAll(address,address)": {
        "details": "See {IERC721-isApprovedForAll}."
      },
      "name()": {
        "details": "See {IERC721Metadata-name}."
      },
      "owner()": {
        "details": "Returns the address of the current owner."
      },
      "ownerOf(uint256)": {
        "details": "See {IERC721-ownerOf}."
      },
      "renounceOwnership()": {
        "details": "Leaves the contract without owner. It will not be possible to call `onlyOwner` functions anymore. Can only be called by the current owner. NOTE: Renouncing ownership will leave the contract without an owner, thereby removing any functionality that is only available to the owner."
      },
      "safeTransferFrom(address,address,uint256)": {
        "details": "See {IERC721-safeTransferFrom}."
      },
      "safeTransferFrom(address,address,uint256,bytes)": {
        "details": "See {IERC721-safeTransferFrom}."
      },
      "setApprovalForAll(address,bool)": {
        "details": "See {IERC721-setApprovalForAll}."
      },
      "supportsInterface(bytes4)": {
        "details": "See {IERC165-supportsInterface}."
      },
      "symbol()": {
        "details": "See {IERC721Metadata-symbol}."
      },
      "tokenByIndex(uint256)": {
        "details": "See {IERC721Enumerable-tokenByIndex}."
      },
      "tokenOfOwnerByIndex(address,uint256)": {
        "details": "See {IERC721Enumerable-tokenOfOwnerByIndex}."
      },
      "totalSupply()": {
        "details": "See {IERC721Enumerable-totalSupply}."
      },
      "transferFrom(address,address,uint256)": {
        "details": "See {IERC721-transferFrom}."
      },
      "transferOwnership(address)": {
        "details": "Transfers ownership of the contract to a new account (`newOwner`). Can only be called by the current owner."
      }
    },
    "version": 1
  },
  "userdoc": {
    "kind": "user",
    "methods": {},
    "version": 1
  },
  "storageLayout": {
    "storage": [
      {
        "astId": 130,
        "contract": "contracts/ArtDrive.sol:ArtDrive",
        "label": "_initialized",
        "offset": 0,
        "slot": "0",
        "type": "t_uint8"
      },
      {
        "astId": 133,
        "contract": "contracts/ArtDrive.sol:ArtDrive",
        "label": "_initializing",
        "offset": 1,
        "slot": "0",
        "type": "t_bool"
      },
      {
        "astId": 1990,
        "contract": "contracts/ArtDrive.sol:ArtDrive",
        "label": "__gap",
        "offset": 0,
        "slot": "1",
        "type": "t_array(t_uint256)50_storage"
      },
      {
        "astId": 10,
        "contract": "contracts/ArtDrive.sol:ArtDrive",
        "label": "_owner",
        "offset": 0,
        "slot": "51",
        "type": "t_address"
      },
      {
        "astId": 122,
        "contract": "contracts/ArtDrive.sol:ArtDrive",
        "label": "__gap",
        "offset": 0,
        "slot": "52",
        "type": "t_array(t_uint256)49_storage"
      },
      {
        "astId": 2404,
        "contract": "contracts/ArtDrive.sol:ArtDrive",
        "label": "__gap",
        "offset": 0,
        "slot": "101",
        "type": "t_array(t_uint256)50_storage"
      },
      {
        "astId": 294,
        "contract": "contracts/ArtDrive.sol:ArtDrive",
        "label": "_name",
        "offset": 0,
        "slot": "151",
        "type": "t_string_storage"
      },
      {
        "astId": 296,
        "contract": "contracts/ArtDrive.sol:ArtDrive",
        "label": "_symbol",
        "offset": 0,
        "slot": "152",
        "type": "t_string_storage"
      },
      {
        "astId": 300,
        "contract": "contracts/ArtDrive.sol:ArtDrive",
        "label": "_owners",
        "offset": 0,
        "slot": "153",
        "type": "t_mapping(t_uint256,t_address)"
      },
      {
        "astId": 304,
        "contract": "contracts/ArtDrive.sol:ArtDrive",
        "label": "_balances",
        "offset": 0,
        "slot": "154",
        "type": "t_mapping(t_address,t_uint256)"
      },
      {
        "astId": 308,
        "contract": "contracts/ArtDrive.sol:ArtDrive",
        "label": "_tokenApprovals",
        "offset": 0,
        "slot": "155",
        "type": "t_mapping(t_uint256,t_address)"
      },
      {
        "astId": 314,
        "contract": "contracts/ArtDrive.sol:ArtDrive",
        "label": "_operatorApprovals",
        "offset": 0,
        "slot": "156",
        "type": "t_mapping(t_address,t_mapping(t_address,t_bool))"
      },
      {
        "astId": 1155,
        "contract": "contracts/ArtDrive.sol:ArtDrive",
        "label": "__gap",
        "offset": 0,
        "slot": "157",
        "type": "t_array(t_uint256)44_storage"
      },
      {
        "astId": 1320,
        "contract": "contracts/ArtDrive.sol:ArtDrive",
        "label": "_ownedTokens",
        "offset": 0,
        "slot": "201",
        "type": "t_mapping(t_address,t_mapping(t_uint256,t_uint256))"
      },
      {
        "astId": 1324,
        "contract": "contracts/ArtDrive.sol:ArtDrive",
        "label": "_ownedTokensIndex",
        "offset": 0,
        "slot": "202",
        "type": "t_mapping(t_uint256,t_uint256)"
      },
      {
        "astId": 1327,
        "contract": "contracts/ArtDrive.sol:ArtDrive",
        "label": "_allTokens",
        "offset": 0,
        "slot": "203",
        "type": "t_array(t_uint256)dyn_storage"
      },
      {
        "astId": 1331,
        "contract": "contracts/ArtDrive.sol:ArtDrive",
        "label": "_allTokensIndex",
        "offset": 0,
        "slot": "204",
        "type": "t_mapping(t_uint256,t_uint256)"
      },
      {
        "astId": 1647,
        "contract": "contracts/ArtDrive.sol:ArtDrive",
        "label": "__gap",
        "offset": 0,
        "slot": "205",
        "type": "t_array(t_uint256)46_storage"
      },
      {
        "astId": 2960,
        "contract": "contracts/ArtDrive.sol:ArtDrive",
        "label": "_tokenIds",
        "offset": 0,
        "slot": "251",
        "type": "t_struct(Counter)1997_storage"
      },
      {
        "astId": 2972,
        "contract": "contracts/ArtDrive.sol:ArtDrive",
        "label": "thesaurus",
        "offset": 0,
        "slot": "252",
        "type": "t_contract(IThesaurus)4256"
      },
      {
        "astId": 2974,
        "contract": "contracts/ArtDrive.sol:ArtDrive",
        "label": "baseURI",
        "offset": 0,
        "slot": "253",
        "type": "t_string_storage"
      },
      {
        "astId": 2976,
        "contract": "contracts/ArtDrive.sol:ArtDrive",
        "label": "orangeAmount",
        "offset": 0,
        "slot": "254",
        "type": "t_uint256"
      },
      {
        "astId": 2978,
        "contract": "contracts/ArtDrive.sol:ArtDrive",
        "label": "blueAmount",
        "offset": 0,
        "slot": "255",
        "type": "t_uint256"
      },
      {
        "astId": 2980,
        "contract": "contracts/ArtDrive.sol:ArtDrive",
        "label": "greyAmount",
        "offset": 0,
        "slot": "256",
        "type": "t_uint256"
      },
      {
        "astId": 2982,
        "contract": "contracts/ArtDrive.sol:ArtDrive",
        "label": "price",
        "offset": 0,
        "slot": "257",
        "type": "t_uint256"
      },
      {
        "astId": 2984,
        "contract": "contracts/ArtDrive.sol:ArtDrive",
        "label": "merkleRoot",
        "offset": 0,
        "slot": "258",
        "type": "t_bytes32"
      },
      {
        "astId": 2986,
        "contract": "contracts/ArtDrive.sol:ArtDrive",
        "label": "defAllowedMintAmount",
        "offset": 0,
        "slot": "259",
        "type": "t_uint256"
      },
      {
        "astId": 2990,
        "contract": "contracts/ArtDrive.sol:ArtDrive",
        "label": "verb",
        "offset": 0,
        "slot": "260",
        "type": "t_mapping(t_uint256,t_string_storage)"
      },
      {
        "astId": 2994,
        "contract": "contracts/ArtDrive.sol:ArtDrive",
        "label": "adj",
        "offset": 0,
        "slot": "261",
        "type": "t_mapping(t_uint256,t_string_storage)"
      },
      {
        "astId": 2998,
        "contract": "contracts/ArtDrive.sol:ArtDrive",
        "label": "noun",
        "offset": 0,
        "slot": "262",
        "type": "t_mapping(t_uint256,t_string_storage)"
      },
      {
        "astId": 3002,
        "contract": "contracts/ArtDrive.sol:ArtDrive",
        "label": "added",
        "offset": 0,
        "slot": "263",
        "type": "t_mapping(t_uint256,t_bool)"
      },
      {
        "astId": 3006,
        "contract": "contracts/ArtDrive.sol:ArtDrive",
        "label": "locked",
        "offset": 0,
        "slot": "264",
        "type": "t_mapping(t_uint256,t_bool)"
      },
      {
        "astId": 3010,
        "contract": "contracts/ArtDrive.sol:ArtDrive",
        "label": "types",
        "offset": 0,
        "slot": "265",
        "type": "t_mapping(t_uint256,t_uint8)"
      },
      {
        "astId": 3014,
        "contract": "contracts/ArtDrive.sol:ArtDrive",
        "label": "allowedMintAmount",
        "offset": 0,
        "slot": "266",
        "type": "t_mapping(t_address,t_uint256)"
      }
    ],
    "types": {
      "t_address": {
        "encoding": "inplace",
        "label": "address",
        "numberOfBytes": "20"
      },
      "t_array(t_uint256)44_storage": {
        "base": "t_uint256",
        "encoding": "inplace",
        "label": "uint256[44]",
        "numberOfBytes": "1408"
      },
      "t_array(t_uint256)46_storage": {
        "base": "t_uint256",
        "encoding": "inplace",
        "label": "uint256[46]",
        "numberOfBytes": "1472"
      },
      "t_array(t_uint256)49_storage": {
        "base": "t_uint256",
        "encoding": "inplace",
        "label": "uint256[49]",
        "numberOfBytes": "1568"
      },
      "t_array(t_uint256)50_storage": {
        "base": "t_uint256",
        "encoding": "inplace",
        "label": "uint256[50]",
        "numberOfBytes": "1600"
      },
      "t_array(t_uint256)dyn_storage": {
        "base": "t_uint256",
        "encoding": "dynamic_array",
        "label": "uint256[]",
        "numberOfBytes": "32"
      },
      "t_bool": {
        "encoding": "inplace",
        "label": "bool",
        "numberOfBytes": "1"
      },
      "t_bytes32": {
        "encoding": "inplace",
        "label": "bytes32",
        "numberOfBytes": "32"
      },
      "t_contract(IThesaurus)4256": {
        "encoding": "inplace",
        "label": "contract IThesaurus",
        "numberOfBytes": "20"
      },
      "t_mapping(t_address,t_bool)": {
        "encoding": "mapping",
        "key": "t_address",
        "label": "mapping(address => bool)",
        "numberOfBytes": "32",
        "value": "t_bool"
      },
      "t_mapping(t_address,t_mapping(t_address,t_bool))": {
        "encoding": "mapping",
        "key": "t_address",
        "label": "mapping(address => mapping(address => bool))",
        "numberOfBytes": "32",
        "value": "t_mapping(t_address,t_bool)"
      },
      "t_mapping(t_address,t_mapping(t_uint256,t_uint256))": {
        "encoding": "mapping",
        "key": "t_address",
        "label": "mapping(address => mapping(uint256 => uint256))",
        "numberOfBytes": "32",
        "value": "t_mapping(t_uint256,t_uint256)"
      },
      "t_mapping(t_address,t_uint256)": {
        "encoding": "mapping",
        "key": "t_address",
        "label": "mapping(address => uint256)",
        "numberOfBytes": "32",
        "value": "t_uint256"
      },
      "t_mapping(t_uint256,t_address)": {
        "encoding": "mapping",
        "key": "t_uint256",
        "label": "mapping(uint256 => address)",
        "numberOfBytes": "32",
        "value": "t_address"
      },
      "t_mapping(t_uint256,t_bool)": {
        "encoding": "mapping",
        "key": "t_uint256",
        "label": "mapping(uint256 => bool)",
        "numberOfBytes": "32",
        "value": "t_bool"
      },
      "t_mapping(t_uint256,t_string_storage)": {
        "encoding": "mapping",
        "key": "t_uint256",
        "label": "mapping(uint256 => string)",
        "numberOfBytes": "32",
        "value": "t_string_storage"
      },
      "t_mapping(t_uint256,t_uint256)": {
        "encoding": "mapping",
        "key": "t_uint256",
        "label": "mapping(uint256 => uint256)",
        "numberOfBytes": "32",
        "value": "t_uint256"
      },
      "t_mapping(t_uint256,t_uint8)": {
        "encoding": "mapping",
        "key": "t_uint256",
        "label": "mapping(uint256 => uint8)",
        "numberOfBytes": "32",
        "value": "t_uint8"
      },
      "t_string_storage": {
        "encoding": "bytes",
        "label": "string",
        "numberOfBytes": "32"
      },
      "t_struct(Counter)1997_storage": {
        "encoding": "inplace",
        "label": "struct CountersUpgradeable.Counter",
        "members": [
          {
            "astId": 1996,
            "contract": "contracts/ArtDrive.sol:ArtDrive",
            "label": "_value",
            "offset": 0,
            "slot": "0",
            "type": "t_uint256"
          }
        ],
        "numberOfBytes": "32"
      },
      "t_uint256": {
        "encoding": "inplace",
        "label": "uint256",
        "numberOfBytes": "32"
      },
      "t_uint8": {
        "encoding": "inplace",
        "label": "uint8",
        "numberOfBytes": "1"
      }
    }
  }
}