{
  "address": "0x63C7aA566d954d763006206aC2053827e9051c79",
  "abi": [
    {
      "inputs": [],
      "stateMutability": "nonpayable",
      "type": "constructor"
    },
    {
      "anonymous": false,
      "inputs": [
        {
          "indexed": false,
          "internalType": "address",
          "name": "minter",
          "type": "address"
        }
      ],
      "name": "AddMinter",
      "type": "event"
    },
    {
      "anonymous": false,
      "inputs": [
        {
          "indexed": false,
          "internalType": "uint8",
          "name": "version",
          "type": "uint8"
        }
      ],
      "name": "Initialized",
      "type": "event"
    },
    {
      "anonymous": false,
      "inputs": [
        {
          "indexed": true,
          "internalType": "address",
          "name": "previousOwner",
          "type": "address"
        },
        {
          "indexed": true,
          "internalType": "address",
          "name": "newOwner",
          "type": "address"
        }
      ],
      "name": "OwnershipTransferred",
      "type": "event"
    },
    {
      "anonymous": false,
      "inputs": [
        {
          "indexed": false,
          "internalType": "address",
          "name": "minter",
          "type": "address"
        }
      ],
      "name": "SubMinter",
      "type": "event"
    },
    {
      "inputs": [],
      "name": "ADJ_TYPE",
      "outputs": [
        {
          "internalType": "uint8",
          "name": "",
          "type": "uint8"
        }
      ],
      "stateMutability": "pure",
      "type": "function"
    },
    {
      "inputs": [],
      "name": "NOUN_TYPE",
      "outputs": [
        {
          "internalType": "uint8",
          "name": "",
          "type": "uint8"
        }
      ],
      "stateMutability": "pure",
      "type": "function"
    },
    {
      "inputs": [],
      "name": "VERB_TYPE",
      "outputs": [
        {
          "internalType": "uint8",
          "name": "",
          "type": "uint8"
        }
      ],
      "stateMutability": "pure",
      "type": "function"
    },
    {
      "inputs": [
        {
          "internalType": "address",
          "name": "_minter",
          "type": "address"
        }
      ],
      "name": "addMinter",
      "outputs": [],
      "stateMutability": "nonpayable",
      "type": "function"
    },
    {
      "inputs": [
        {
          "internalType": "uint8",
          "name": "_type",
          "type": "uint8"
        },
        {
          "internalType": "uint256",
          "name": "_weight",
          "type": "uint256"
        },
        {
          "internalType": "string",
          "name": "_word",
          "type": "string"
        }
      ],
      "name": "addWord",
      "outputs": [],
      "stateMutability": "nonpayable",
      "type": "function"
    },
    {
      "inputs": [
        {
          "internalType": "uint8",
          "name": "_type",
          "type": "uint8"
        },
        {
          "internalType": "string[]",
          "name": "_words",
          "type": "string[]"
        }
      ],
      "name": "addWords",
      "outputs": [],
      "stateMutability": "nonpayable",
      "type": "function"
    },
    {
      "inputs": [
        {
          "internalType": "uint256",
          "name": "",
          "type": "uint256"
        }
      ],
      "name": "adjs",
      "outputs": [
        {
          "internalType": "string",
          "name": "",
          "type": "string"
        }
      ],
      "stateMutability": "view",
      "type": "function"
    },
    {
      "inputs": [],
      "name": "adjsAmount",
      "outputs": [
        {
          "internalType": "uint256",
          "name": "",
          "type": "uint256"
        }
      ],
      "stateMutability": "view",
      "type": "function"
    },
    {
      "inputs": [],
      "name": "initialize",
      "outputs": [],
      "stateMutability": "nonpayable",
      "type": "function"
    },
    {
      "inputs": [
        {
          "internalType": "address",
          "name": "",
          "type": "address"
        }
      ],
      "name": "minters",
      "outputs": [
        {
          "internalType": "bool",
          "name": "",
          "type": "bool"
        }
      ],
      "stateMutability": "view",
      "type": "function"
    },
    {
      "inputs": [
        {
          "internalType": "uint256",
          "name": "",
          "type": "uint256"
        }
      ],
      "name": "nouns",
      "outputs": [
        {
          "internalType": "string",
          "name": "",
          "type": "string"
        }
      ],
      "stateMutability": "view",
      "type": "function"
    },
    {
      "inputs": [],
      "name": "nounsAmount",
      "outputs": [
        {
          "internalType": "uint256",
          "name": "",
          "type": "uint256"
        }
      ],
      "stateMutability": "view",
      "type": "function"
    },
    {
      "inputs": [],
      "name": "owner",
      "outputs": [
        {
          "internalType": "address",
          "name": "",
          "type": "address"
        }
      ],
      "stateMutability": "view",
      "type": "function"
    },
    {
      "inputs": [
        {
          "internalType": "uint256",
          "name": "_nonce",
          "type": "uint256"
        }
      ],
      "name": "randomWords",
      "outputs": [
        {
          "internalType": "string",
          "name": "_verb",
          "type": "string"
        },
        {
          "internalType": "string",
          "name": "_adj",
          "type": "string"
        },
        {
          "internalType": "string",
          "name": "_noun",
          "type": "string"
        }
      ],
      "stateMutability": "view",
      "type": "function"
    },
    {
      "inputs": [],
      "name": "renounceOwnership",
      "outputs": [],
      "stateMutability": "nonpayable",
      "type": "function"
    },
    {
      "inputs": [
        {
          "internalType": "address",
          "name": "_minter",
          "type": "address"
        }
      ],
      "name": "subMinter",
      "outputs": [],
      "stateMutability": "nonpayable",
      "type": "function"
    },
    {
      "inputs": [],
      "name": "totalWordsAmount",
      "outputs": [
        {
          "internalType": "uint256",
          "name": "",
          "type": "uint256"
        }
      ],
      "stateMutability": "view",
      "type": "function"
    },
    {
      "inputs": [
        {
          "internalType": "address",
          "name": "newOwner",
          "type": "address"
        }
      ],
      "name": "transferOwnership",
      "outputs": [],
      "stateMutability": "nonpayable",
      "type": "function"
    },
    {
      "inputs": [
        {
          "internalType": "uint256",
          "name": "",
          "type": "uint256"
        }
      ],
      "name": "verbs",
      "outputs": [
        {
          "internalType": "string",
          "name": "",
          "type": "string"
        }
      ],
      "stateMutability": "view",
      "type": "function"
    },
    {
      "inputs": [],
      "name": "verbsAmount",
      "outputs": [
        {
          "internalType": "uint256",
          "name": "",
          "type": "uint256"
        }
      ],
      "stateMutability": "view",
      "type": "function"
    }
  ],
  "transactionHash": "0xb868bf3fbbb00e4b4009da2d8487bb1517dcbd5d3354e28d80e02b3b94401b9e",
  "args": [],
  "numDeployments": 1,
  "solcInputHash": "7409245b253a9873d3ee4bd5962a152d",
  "bytecode": "0x60806040523480156200001157600080fd5b506200001c62000022565b620002f9565b6000620000306001620000bd565b9050801562000049576000805461ff0019166101001790555b62000053620001cf565b60668054600190810190915560678054820190556068805490910181556000528015620000ba576000805461ff0019169055604051600181527f7f26b83ff96e1f2b6a682f133852f6798a09c465da95921460cefb38474024989060200160405180910390a15b50565b60008054610100900460ff161562000156578160ff166001148015620000f65750620000f4306200023760201b62000aab1760201c565b155b6200014e5760405162461bcd60e51b815260206004820152602e60248201526000805160206200171183398151915260448201526d191e481a5b9a5d1a585b1a5e995960921b60648201526084015b60405180910390fd5b506000919050565b60005460ff808416911610620001b55760405162461bcd60e51b815260206004820152602e60248201526000805160206200171183398151915260448201526d191e481a5b9a5d1a585b1a5e995960921b606482015260840162000145565b506000805460ff191660ff92909216919091179055600190565b600054610100900460ff166200022b5760405162461bcd60e51b815260206004820152602b60248201526000805160206200173183398151915260448201526a6e697469616c697a696e6760a81b606482015260840162000145565b6200023562000246565b565b6001600160a01b03163b151590565b600054610100900460ff16620002a25760405162461bcd60e51b815260206004820152602b60248201526000805160206200173183398151915260448201526a6e697469616c697a696e6760a81b606482015260840162000145565b6200023533603380546001600160a01b038381166001600160a01b0319831681179093556040519116919082907f8be0079c531659141344cd1fd0a4f28419497f9722a3daafe3b4186f6b6457e090600090a35050565b61140880620003096000396000f3fe608060405234801561001057600080fd5b506004361061012c5760003560e01c806393feca60116100ad578063c67141b311610071578063c67141b314610245578063cc3a02e614610258578063e69543a014610260578063f2fde38b14610268578063f46eccc41461027b57600080fd5b806393feca60146101ef578063961b87ec146101f6578063983b2d5614610209578063beff730f1461021c578063c537a39b1461023e57600080fd5b806366ac564a116100f457806366ac564a146101a957806368ab2650146101b1578063715018a6146101c45780638129fc1c146101cc5780638da5cb5b146101d457600080fd5b806302680304146101315780630427b2631461014657806304ac75ec1461016057806313871bfc146101735780634f54ea3214610193575b600080fd5b61014461013f366004610ec4565b6102ae565b005b60015b60405160ff90911681526020015b60405180910390f35b61014461016e366004610fbc565b610339565b610186610181366004611013565b610449565b6040516101579190611084565b61019b6104f5565b604051908152602001610157565b61019b61050c565b6101866101bf366004611013565b61053b565b61014461054b565b610144610581565b6033546040516001600160a01b039091168152602001610157565b6002610149565b610186610204366004611013565b610612565b610144610217366004610ec4565b610622565b61022f61022a366004611013565b6106a0565b60405161015793929190611097565b6003610149565b6101446102533660046110da565b610931565b61019b6109ef565b61019b610a01565b610144610276366004610ec4565b610a13565b61029e610289366004610ec4565b60656020526000908152604090205460ff1681565b6040519015158152602001610157565b6033546001600160a01b031633146102e15760405162461bcd60e51b81526004016102d8906111b0565b60405180910390fd5b6001600160a01b038116600081815260656020908152604091829020805460ff1916905590519182527f946494d8c60533bc043c2cb72a2515efd8ef8aa39952f24cdb27d2deda784cda91015b60405180910390a150565b3360009081526065602052604090205460ff166103ab5760405162461bcd60e51b815260206004820152602a60248201527f4172744472697665725468657361757275733a2073656e646572206973206e6f6044820152693a10309036b4b73a32b960b11b60648201526084016102d8565b60ff8316600114156103c8576103c382826066610aba565b505050565b60ff8316600214156103e0576103c382826067610aba565b60ff8316600314156103f8576103c382826068610aba565b60006104068460ff16610afe565b60405160200161041691906111e5565b604051602081830303815290604052906104435760405162461bcd60e51b81526004016102d89190611084565b50505050565b6066818154811061045957600080fd5b9060005260206000200160009150905080546104749061124a565b80601f01602080910402602001604051908101604052809291908181526020018280546104a09061124a565b80156104ed5780601f106104c2576101008083540402835291602001916104ed565b820191906000526020600020905b8154815290600101906020018083116104d057829003601f168201915b505050505081565b6068546000906105079060019061129b565b905090565b606854606754606654600092600392909161052791906112b2565b61053191906112b2565b610507919061129b565b6068818154811061045957600080fd5b6033546001600160a01b031633146105755760405162461bcd60e51b81526004016102d8906111b0565b61057f6000610c04565b565b600061058d6001610c56565b905080156105a5576000805461ff0019166101001790555b6105ad610ce3565b6066805460019081019091556067805482019055606880549091018155600052801561060f576000805461ff0019169055604051600181527f7f26b83ff96e1f2b6a682f133852f6798a09c465da95921460cefb38474024989060200161032e565b50565b6067818154811061045957600080fd5b6033546001600160a01b0316331461064c5760405162461bcd60e51b81526004016102d8906111b0565b6001600160a01b038116600081815260656020908152604091829020805460ff1916600117905590519182527f16baa937b08d58713325f93ac58b8a9369a4359bbefb4957d6d9b402735722ab910161032e565b606080606060004244866040516020016106cd939291909283526020830191909152604082015260600190565b60408051601f19818403018152919052805160209091012060668054919250906107059060019061070061014d8661129b565b610d12565b81548110610715576107156112ca565b90600052602060002001805461072a9061124a565b80601f01602080910402602001604051908101604052809291908181526020018280546107569061124a565b80156107a35780601f10610778576101008083540402835291602001916107a3565b820191906000526020600020905b81548152906001019060200180831161078657829003601f168201915b5050505050935060676107c46001606780549050606f85610700919061129b565b815481106107d4576107d46112ca565b9060005260206000200180546107e99061124a565b80601f01602080910402602001604051908101604052809291908181526020018280546108159061124a565b80156108625780601f1061083757610100808354040283529160200191610862565b820191906000526020600020905b81548152906001019060200180831161084557829003601f168201915b505050505092506068610884600160688054905061030985610700919061129b565b81548110610894576108946112ca565b9060005260206000200180546108a99061124a565b80601f01602080910402602001604051908101604052809291908181526020018280546108d59061124a565b80156109225780601f106108f757610100808354040283529160200191610922565b820191906000526020600020905b81548152906001019060200180831161090557829003601f168201915b50505050509150509193909250565b6033546001600160a01b0316331461095b5760405162461bcd60e51b81526004016102d8906111b0565b8160ff166001141561097657610972816066610d97565b5050565b8160ff166002141561098d57610972816067610d97565b8160ff16600314156109a457610972816068610d97565b60006109b28360ff16610afe565b6040516020016109c291906111e5565b604051602081830303815290604052906103c35760405162461bcd60e51b81526004016102d89190611084565b6066546000906105079060019061129b565b6067546000906105079060019061129b565b6033546001600160a01b03163314610a3d5760405162461bcd60e51b81526004016102d8906111b0565b6001600160a01b038116610aa25760405162461bcd60e51b815260206004820152602660248201527f4f776e61626c653a206e6577206f776e657220697320746865207a65726f206160448201526564647265737360d01b60648201526084016102d8565b61060f81610c04565b6001600160a01b03163b151590565b60005b8381101561044357815460018101835560008381526020908190208551610aeb939190910191860190610e2b565b5080610af6816112e0565b915050610abd565b606081610b225750506040805180820190915260018152600360fc1b602082015290565b8160005b8115610b4c5780610b36816112e0565b9150610b459050600a83611311565b9150610b26565b60008167ffffffffffffffff811115610b6757610b67610f05565b6040519080825280601f01601f191660200182016040528015610b91576020820181803683370190505b5090505b8415610bfc57610ba660018361129b565b9150610bb3600a86611325565b610bbe9060306112b2565b60f81b818381518110610bd357610bd36112ca565b60200101906001600160f81b031916908160001a905350610bf5600a86611311565b9450610b95565b949350505050565b603380546001600160a01b038381166001600160a01b0319831681179093556040519116919082907f8be0079c531659141344cd1fd0a4f28419497f9722a3daafe3b4186f6b6457e090600090a35050565b60008054610100900460ff1615610c9d578160ff166001148015610c795750303b155b610c955760405162461bcd60e51b81526004016102d890611339565b506000919050565b60005460ff808416911610610cc45760405162461bcd60e51b81526004016102d890611339565b506000805460ff191660ff92909216919091179055600190565b919050565b600054610100900460ff16610d0a5760405162461bcd60e51b81526004016102d890611387565b61057f610dfb565b604080514260208083018290524483850181905260608085018790528551808603909101815260808501865280519083012060a085019390935260c084015260e08084018390528451808503909101815261010090930190935281519190920120600091908590610d84908690611325565b610d8e91906112b2565b95945050505050565b60005b82518110156103c35781838281518110610db657610db66112ca565b60209081029190910181015182546001810184556000938452928290208151610de89491909101929190910190610e2b565b5080610df3816112e0565b915050610d9a565b600054610100900460ff16610e225760405162461bcd60e51b81526004016102d890611387565b61057f33610c04565b828054610e379061124a565b90600052602060002090601f016020900481019282610e595760008555610e9f565b82601f10610e7257805160ff1916838001178555610e9f565b82800160010185558215610e9f579182015b82811115610e9f578251825591602001919060010190610e84565b50610eab929150610eaf565b5090565b5b80821115610eab5760008155600101610eb0565b600060208284031215610ed657600080fd5b81356001600160a01b0381168114610eed57600080fd5b9392505050565b803560ff81168114610cde57600080fd5b634e487b7160e01b600052604160045260246000fd5b604051601f8201601f1916810167ffffffffffffffff81118282101715610f4457610f44610f05565b604052919050565b600082601f830112610f5d57600080fd5b813567ffffffffffffffff811115610f7757610f77610f05565b610f8a601f8201601f1916602001610f1b565b818152846020838601011115610f9f57600080fd5b816020850160208301376000918101602001919091529392505050565b600080600060608486031215610fd157600080fd5b610fda84610ef4565b925060208401359150604084013567ffffffffffffffff811115610ffd57600080fd5b61100986828701610f4c565b9150509250925092565b60006020828403121561102557600080fd5b5035919050565b60005b8381101561104757818101518382015260200161102f565b838111156104435750506000910152565b6000815180845261107081602086016020860161102c565b601f01601f19169290920160200192915050565b602081526000610eed6020830184611058565b6060815260006110aa6060830186611058565b82810360208401526110bc8186611058565b905082810360408401526110d08185611058565b9695505050505050565b600080604083850312156110ed57600080fd5b6110f683610ef4565b915060208084013567ffffffffffffffff8082111561111457600080fd5b818601915086601f83011261112857600080fd5b81358181111561113a5761113a610f05565b8060051b611149858201610f1b565b918252838101850191858101908a84111561116357600080fd5b86860192505b8383101561119f578235858111156111815760008081fd5b61118f8c89838a0101610f4c565b8352509186019190860190611169565b809750505050505050509250929050565b6020808252818101527f4f776e61626c653a2063616c6c6572206973206e6f7420746865206f776e6572604082015260600190565b7f4172744472697665725468657361757275733a205468657265206973206e6f2081526a737563682074797065205b60a81b60208201526000825161123181602b85016020870161102c565b61205d60f01b602b939091019283015250602d01919050565b600181811c9082168061125e57607f821691505b6020821081141561127f57634e487b7160e01b600052602260045260246000fd5b50919050565b634e487b7160e01b600052601160045260246000fd5b6000828210156112ad576112ad611285565b500390565b600082198211156112c5576112c5611285565b500190565b634e487b7160e01b600052603260045260246000fd5b60006000198214156112f4576112f4611285565b5060010190565b634e487b7160e01b600052601260045260246000fd5b600082611320576113206112fb565b500490565b600082611334576113346112fb565b500690565b6020808252602e908201527f496e697469616c697a61626c653a20636f6e747261637420697320616c72656160408201526d191e481a5b9a5d1a585b1a5e995960921b606082015260800190565b6020808252602b908201527f496e697469616c697a61626c653a20636f6e7472616374206973206e6f74206960408201526a6e697469616c697a696e6760a81b60608201526080019056fea26469706673582212203dd255736ec23b1c1b45f5681bdf8e9c7a74c71066b86d7572f120cf191985d864736f6c63430008090033496e697469616c697a61626c653a20636f6e747261637420697320616c726561496e697469616c697a61626c653a20636f6e7472616374206973206e6f742069",
  "devdoc": {
    "kind": "dev",
    "methods": {
      "owner()": {
        "details": "Returns the address of the current owner."
      },
      "renounceOwnership()": {
        "details": "Leaves the contract without owner. It will not be possible to call `onlyOwner` functions anymore. Can only be called by the current owner. NOTE: Renouncing ownership will leave the contract without an owner, thereby removing any functionality that is only available to the owner."
      },
      "transferOwnership(address)": {
        "details": "Transfers ownership of the contract to a new account (`newOwner`). Can only be called by the current owner."
      }
    },
    "version": 1
  },
  "userdoc": {
    "kind": "user",
    "methods": {},
    "version": 1
  },
  "storageLayout": {
    "storage": [
      {
        "astId": 130,
        "contract": "contracts/ArtDriveThesaurus.sol:ArtDriveThesaurus",
        "label": "_initialized",
        "offset": 0,
        "slot": "0",
        "type": "t_uint8"
      },
      {
        "astId": 133,
        "contract": "contracts/ArtDriveThesaurus.sol:ArtDriveThesaurus",
        "label": "_initializing",
        "offset": 1,
        "slot": "0",
        "type": "t_bool"
      },
      {
        "astId": 1990,
        "contract": "contracts/ArtDriveThesaurus.sol:ArtDriveThesaurus",
        "label": "__gap",
        "offset": 0,
        "slot": "1",
        "type": "t_array(t_uint256)50_storage"
      },
      {
        "astId": 10,
        "contract": "contracts/ArtDriveThesaurus.sol:ArtDriveThesaurus",
        "label": "_owner",
        "offset": 0,
        "slot": "51",
        "type": "t_address"
      },
      {
        "astId": 122,
        "contract": "contracts/ArtDriveThesaurus.sol:ArtDriveThesaurus",
        "label": "__gap",
        "offset": 0,
        "slot": "52",
        "type": "t_array(t_uint256)49_storage"
      },
      {
        "astId": 3783,
        "contract": "contracts/ArtDriveThesaurus.sol:ArtDriveThesaurus",
        "label": "minters",
        "offset": 0,
        "slot": "101",
        "type": "t_mapping(t_address,t_bool)"
      },
      {
        "astId": 3786,
        "contract": "contracts/ArtDriveThesaurus.sol:ArtDriveThesaurus",
        "label": "verbs",
        "offset": 0,
        "slot": "102",
        "type": "t_array(t_string_storage)dyn_storage"
      },
      {
        "astId": 3789,
        "contract": "contracts/ArtDriveThesaurus.sol:ArtDriveThesaurus",
        "label": "adjs",
        "offset": 0,
        "slot": "103",
        "type": "t_array(t_string_storage)dyn_storage"
      },
      {
        "astId": 3792,
        "contract": "contracts/ArtDriveThesaurus.sol:ArtDriveThesaurus",
        "label": "nouns",
        "offset": 0,
        "slot": "104",
        "type": "t_array(t_string_storage)dyn_storage"
      }
    ],
    "types": {
      "t_address": {
        "encoding": "inplace",
        "label": "address",
        "numberOfBytes": "20"
      },
      "t_array(t_string_storage)dyn_storage": {
        "base": "t_string_storage",
        "encoding": "dynamic_array",
        "label": "string[]",
        "numberOfBytes": "32"
      },
      "t_array(t_uint256)49_storage": {
        "base": "t_uint256",
        "encoding": "inplace",
        "label": "uint256[49]",
        "numberOfBytes": "1568"
      },
      "t_array(t_uint256)50_storage": {
        "base": "t_uint256",
        "encoding": "inplace",
        "label": "uint256[50]",
        "numberOfBytes": "1600"
      },
      "t_bool": {
        "encoding": "inplace",
        "label": "bool",
        "numberOfBytes": "1"
      },
      "t_mapping(t_address,t_bool)": {
        "encoding": "mapping",
        "key": "t_address",
        "label": "mapping(address => bool)",
        "numberOfBytes": "32",
        "value": "t_bool"
      },
      "t_string_storage": {
        "encoding": "bytes",
        "label": "string",
        "numberOfBytes": "32"
      },
      "t_uint256": {
        "encoding": "inplace",
        "label": "uint256",
        "numberOfBytes": "32"
      },
      "t_uint8": {
        "encoding": "inplace",
        "label": "uint8",
        "numberOfBytes": "1"
      }
    }
  }
}