{
  "address": "0xe25DD78d4bEdEe32c4667B32Fe018Fb12706798d",
  "abi": [
    {
      "inputs": [
        {
          "internalType": "string",
          "name": "_name",
          "type": "string"
        },
        {
          "internalType": "string",
          "name": "_symbol",
          "type": "string"
        },
        {
          "internalType": "string",
          "name": "_baseURI",
          "type": "string"
        },
        {
          "internalType": "address",
          "name": "_thesaurus",
          "type": "address"
        },
        {
          "internalType": "uint256",
          "name": "_price",
          "type": "uint256"
        },
        {
          "internalType": "uint256",
          "name": "_orangeAmount",
          "type": "uint256"
        },
        {
          "internalType": "uint256",
          "name": "_blueAmount",
          "type": "uint256"
        },
        {
          "internalType": "uint256",
          "name": "_greyAmount",
          "type": "uint256"
        },
        {
          "internalType": "bytes32",
          "name": "_merkleRoot",
          "type": "bytes32"
        },
        {
          "internalType": "uint256",
          "name": "_mintStartTime",
          "type": "uint256"
        }
      ],
      "stateMutability": "nonpayable",
      "type": "constructor"
    },
    {
      "anonymous": false,
      "inputs": [
        {
          "indexed": false,
          "internalType": "uint256",
          "name": "tokenId",
          "type": "uint256"
        },
        {
          "indexed": false,
          "internalType": "uint256",
          "name": "weight",
          "type": "uint256"
        },
        {
          "indexed": false,
          "internalType": "string",
          "name": "word",
          "type": "string"
        }
      ],
      "name": "AddWord",
      "type": "event"
    },
    {
      "anonymous": false,
      "inputs": [
        {
          "indexed": true,
          "internalType": "address",
          "name": "owner",
          "type": "address"
        },
        {
          "indexed": true,
          "internalType": "address",
          "name": "approved",
          "type": "address"
        },
        {
          "indexed": true,
          "internalType": "uint256",
          "name": "tokenId",
          "type": "uint256"
        }
      ],
      "name": "Approval",
      "type": "event"
    },
    {
      "anonymous": false,
      "inputs": [
        {
          "indexed": true,
          "internalType": "address",
          "name": "owner",
          "type": "address"
        },
        {
          "indexed": true,
          "internalType": "address",
          "name": "operator",
          "type": "address"
        },
        {
          "indexed": false,
          "internalType": "bool",
          "name": "approved",
          "type": "bool"
        }
      ],
      "name": "ApprovalForAll",
      "type": "event"
    },
    {
      "anonymous": false,
      "inputs": [
        {
          "indexed": false,
          "internalType": "address",
          "name": "_recipient",
          "type": "address"
        },
        {
          "indexed": false,
          "internalType": "uint256",
          "name": "_amount",
          "type": "uint256"
        }
      ],
      "name": "ClaimMintAmount",
      "type": "event"
    },
    {
      "anonymous": false,
      "inputs": [
        {
          "indexed": false,
          "internalType": "uint8",
          "name": "version",
          "type": "uint8"
        }
      ],
      "name": "Initialized",
      "type": "event"
    },
    {
      "anonymous": false,
      "inputs": [
        {
          "indexed": false,
          "internalType": "uint256",
          "name": "tokenId",
          "type": "uint256"
        }
      ],
      "name": "Locked",
      "type": "event"
    },
    {
      "anonymous": false,
      "inputs": [
        {
          "indexed": false,
          "internalType": "uint256",
          "name": "tokenId",
          "type": "uint256"
        },
        {
          "indexed": false,
          "internalType": "address",
          "name": "player",
          "type": "address"
        },
        {
          "indexed": false,
          "internalType": "string",
          "name": "verb",
          "type": "string"
        },
        {
          "indexed": false,
          "internalType": "string",
          "name": "adj",
          "type": "string"
        },
        {
          "indexed": false,
          "internalType": "string",
          "name": "noun",
          "type": "string"
        },
        {
          "indexed": false,
          "internalType": "uint8",
          "name": "types",
          "type": "uint8"
        }
      ],
      "name": "Mint",
      "type": "event"
    },
    {
      "anonymous": false,
      "inputs": [
        {
          "indexed": false,
          "internalType": "uint256",
          "name": "_old",
          "type": "uint256"
        },
        {
          "indexed": false,
          "internalType": "uint256",
          "name": "_new",
          "type": "uint256"
        }
      ],
      "name": "NewDefAllowedMintAmount",
      "type": "event"
    },
    {
      "anonymous": false,
      "inputs": [
        {
          "indexed": false,
          "internalType": "uint256",
          "name": "_old",
          "type": "uint256"
        },
        {
          "indexed": false,
          "internalType": "uint256",
          "name": "_new",
          "type": "uint256"
        }
      ],
      "name": "NewPrice",
      "type": "event"
    },
    {
      "anonymous": false,
      "inputs": [
        {
          "indexed": true,
          "internalType": "address",
          "name": "previousOwner",
          "type": "address"
        },
        {
          "indexed": true,
          "internalType": "address",
          "name": "newOwner",
          "type": "address"
        }
      ],
      "name": "OwnershipTransferred",
      "type": "event"
    },
    {
      "anonymous": false,
      "inputs": [
        {
          "indexed": false,
          "internalType": "uint256",
          "name": "tokenId",
          "type": "uint256"
        },
        {
          "indexed": false,
          "internalType": "string",
          "name": "verb",
          "type": "string"
        },
        {
          "indexed": false,
          "internalType": "string",
          "name": "adj",
          "type": "string"
        },
        {
          "indexed": false,
          "internalType": "string",
          "name": "noun",
          "type": "string"
        }
      ],
      "name": "RefreshWords",
      "type": "event"
    },
    {
      "anonymous": false,
      "inputs": [
        {
          "indexed": true,
          "internalType": "address",
          "name": "from",
          "type": "address"
        },
        {
          "indexed": true,
          "internalType": "address",
          "name": "to",
          "type": "address"
        },
        {
          "indexed": true,
          "internalType": "uint256",
          "name": "tokenId",
          "type": "uint256"
        }
      ],
      "name": "Transfer",
      "type": "event"
    },
    {
      "anonymous": false,
      "inputs": [
        {
          "indexed": false,
          "internalType": "address",
          "name": "_recipient",
          "type": "address"
        },
        {
          "indexed": false,
          "internalType": "uint256",
          "name": "_amount",
          "type": "uint256"
        }
      ],
      "name": "TransferEth",
      "type": "event"
    },
    {
      "stateMutability": "payable",
      "type": "fallback"
    },
    {
      "inputs": [
        {
          "internalType": "uint256",
          "name": "_tokenId",
          "type": "uint256"
        },
        {
          "internalType": "uint8",
          "name": "_type",
          "type": "uint8"
        },
        {
          "internalType": "string",
          "name": "_word",
          "type": "string"
        }
      ],
      "name": "addWord",
      "outputs": [],
      "stateMutability": "nonpayable",
      "type": "function"
    },
    {
      "inputs": [
        {
          "internalType": "uint256",
          "name": "",
          "type": "uint256"
        }
      ],
      "name": "added",
      "outputs": [
        {
          "internalType": "string",
          "name": "",
          "type": "string"
        }
      ],
      "stateMutability": "view",
      "type": "function"
    },
    {
      "inputs": [
        {
          "internalType": "uint256",
          "name": "",
          "type": "uint256"
        }
      ],
      "name": "adj",
      "outputs": [
        {
          "internalType": "string",
          "name": "",
          "type": "string"
        }
      ],
      "stateMutability": "view",
      "type": "function"
    },
    {
      "inputs": [
        {
          "internalType": "address",
          "name": "",
          "type": "address"
        }
      ],
      "name": "allowedMintAmount",
      "outputs": [
        {
          "internalType": "uint256",
          "name": "",
          "type": "uint256"
        }
      ],
      "stateMutability": "view",
      "type": "function"
    },
    {
      "inputs": [
        {
          "internalType": "address",
          "name": "to",
          "type": "address"
        },
        {
          "internalType": "uint256",
          "name": "tokenId",
          "type": "uint256"
        }
      ],
      "name": "approve",
      "outputs": [],
      "stateMutability": "nonpayable",
      "type": "function"
    },
    {
      "inputs": [
        {
          "internalType": "address",
          "name": "owner",
          "type": "address"
        }
      ],
      "name": "balanceOf",
      "outputs": [
        {
          "internalType": "uint256",
          "name": "",
          "type": "uint256"
        }
      ],
      "stateMutability": "view",
      "type": "function"
    },
    {
      "inputs": [],
      "name": "baseURI",
      "outputs": [
        {
          "internalType": "string",
          "name": "",
          "type": "string"
        }
      ],
      "stateMutability": "view",
      "type": "function"
    },
    {
      "inputs": [
        {
          "internalType": "address",
          "name": "_recipient",
          "type": "address"
        },
        {
          "internalType": "bytes32[]",
          "name": "_proof",
          "type": "bytes32[]"
        },
        {
          "internalType": "uint256",
          "name": "_amount",
          "type": "uint256"
        }
      ],
      "name": "claimMintAmount",
      "outputs": [],
      "stateMutability": "nonpayable",
      "type": "function"
    },
    {
      "inputs": [
        {
          "internalType": "address",
          "name": "",
          "type": "address"
        }
      ],
      "name": "claimed",
      "outputs": [
        {
          "internalType": "bool",
          "name": "",
          "type": "bool"
        }
      ],
      "stateMutability": "view",
      "type": "function"
    },
    {
      "inputs": [
        {
          "internalType": "address",
          "name": "_player",
          "type": "address"
        }
      ],
      "name": "freeMintAmount",
      "outputs": [
        {
          "internalType": "uint256",
          "name": "",
          "type": "uint256"
        }
      ],
      "stateMutability": "view",
      "type": "function"
    },
    {
      "inputs": [
        {
          "internalType": "uint256",
          "name": "tokenId",
          "type": "uint256"
        }
      ],
      "name": "getApproved",
      "outputs": [
        {
          "internalType": "address",
          "name": "",
          "type": "address"
        }
      ],
      "stateMutability": "view",
      "type": "function"
    },
    {
      "inputs": [
        {
          "internalType": "string",
          "name": "_name",
          "type": "string"
        },
        {
          "internalType": "string",
          "name": "_symbol",
          "type": "string"
        },
        {
          "internalType": "string",
          "name": "_baseURI",
          "type": "string"
        },
        {
          "internalType": "address",
          "name": "_thesaurus",
          "type": "address"
        },
        {
          "internalType": "uint256",
          "name": "_price",
          "type": "uint256"
        },
        {
          "internalType": "uint256",
          "name": "_orangeAmount",
          "type": "uint256"
        },
        {
          "internalType": "uint256",
          "name": "_blueAmount",
          "type": "uint256"
        },
        {
          "internalType": "uint256",
          "name": "_greyAmount",
          "type": "uint256"
        },
        {
          "internalType": "bytes32",
          "name": "_merkleRoot",
          "type": "bytes32"
        },
        {
          "internalType": "uint256",
          "name": "_mintStartTime",
          "type": "uint256"
        }
      ],
      "name": "initialize",
      "outputs": [],
      "stateMutability": "nonpayable",
      "type": "function"
    },
    {
      "inputs": [
        {
          "internalType": "address",
          "name": "owner",
          "type": "address"
        },
        {
          "internalType": "address",
          "name": "operator",
          "type": "address"
        }
      ],
      "name": "isApprovedForAll",
      "outputs": [
        {
          "internalType": "bool",
          "name": "",
          "type": "bool"
        }
      ],
      "stateMutability": "view",
      "type": "function"
    },
    {
      "inputs": [
        {
          "internalType": "uint256",
          "name": "_tokenId",
          "type": "uint256"
        }
      ],
      "name": "lock",
      "outputs": [],
      "stateMutability": "nonpayable",
      "type": "function"
    },
    {
      "inputs": [
        {
          "internalType": "uint256",
          "name": "",
          "type": "uint256"
        }
      ],
      "name": "locked",
      "outputs": [
        {
          "internalType": "bool",
          "name": "",
          "type": "bool"
        }
      ],
      "stateMutability": "view",
      "type": "function"
    },
    {
      "inputs": [],
      "name": "merkleRoot",
      "outputs": [
        {
          "internalType": "bytes32",
          "name": "",
          "type": "bytes32"
        }
      ],
      "stateMutability": "view",
      "type": "function"
    },
    {
      "inputs": [
        {
          "internalType": "address",
          "name": "_player",
          "type": "address"
        },
        {
          "internalType": "uint256",
          "name": "_amount",
          "type": "uint256"
        }
      ],
      "name": "mint",
      "outputs": [
        {
          "internalType": "uint256[]",
          "name": "",
          "type": "uint256[]"
        }
      ],
      "stateMutability": "payable",
      "type": "function"
    },
    {
      "inputs": [],
      "name": "mintStartTime",
      "outputs": [
        {
          "internalType": "uint256",
          "name": "",
          "type": "uint256"
        }
      ],
      "stateMutability": "view",
      "type": "function"
    },
    {
      "inputs": [
        {
          "internalType": "address",
          "name": "",
          "type": "address"
        }
      ],
      "name": "minted",
      "outputs": [
        {
          "internalType": "uint256",
          "name": "",
          "type": "uint256"
        }
      ],
      "stateMutability": "view",
      "type": "function"
    },
    {
      "inputs": [],
      "name": "name",
      "outputs": [
        {
          "internalType": "string",
          "name": "",
          "type": "string"
        }
      ],
      "stateMutability": "view",
      "type": "function"
    },
    {
      "inputs": [
        {
          "internalType": "uint256",
          "name": "",
          "type": "uint256"
        }
      ],
      "name": "noun",
      "outputs": [
        {
          "internalType": "string",
          "name": "",
          "type": "string"
        }
      ],
      "stateMutability": "view",
      "type": "function"
    },
    {
      "inputs": [],
      "name": "owner",
      "outputs": [
        {
          "internalType": "address",
          "name": "",
          "type": "address"
        }
      ],
      "stateMutability": "view",
      "type": "function"
    },
    {
      "inputs": [
        {
          "internalType": "uint256",
          "name": "tokenId",
          "type": "uint256"
        }
      ],
      "name": "ownerOf",
      "outputs": [
        {
          "internalType": "address",
          "name": "",
          "type": "address"
        }
      ],
      "stateMutability": "view",
      "type": "function"
    },
    {
      "inputs": [],
      "name": "price",
      "outputs": [
        {
          "internalType": "uint256",
          "name": "",
          "type": "uint256"
        }
      ],
      "stateMutability": "view",
      "type": "function"
    },
    {
      "inputs": [
        {
          "internalType": "uint256",
          "name": "_tokenId",
          "type": "uint256"
        }
      ],
      "name": "refreshWords",
      "outputs": [],
      "stateMutability": "nonpayable",
      "type": "function"
    },
    {
      "inputs": [],
      "name": "renounceOwnership",
      "outputs": [],
      "stateMutability": "nonpayable",
      "type": "function"
    },
    {
      "inputs": [
        {
          "internalType": "address",
          "name": "from",
          "type": "address"
        },
        {
          "internalType": "address",
          "name": "to",
          "type": "address"
        },
        {
          "internalType": "uint256",
          "name": "tokenId",
          "type": "uint256"
        }
      ],
      "name": "safeTransferFrom",
      "outputs": [],
      "stateMutability": "nonpayable",
      "type": "function"
    },
    {
      "inputs": [
        {
          "internalType": "address",
          "name": "from",
          "type": "address"
        },
        {
          "internalType": "address",
          "name": "to",
          "type": "address"
        },
        {
          "internalType": "uint256",
          "name": "tokenId",
          "type": "uint256"
        },
        {
          "internalType": "bytes",
          "name": "data",
          "type": "bytes"
        }
      ],
      "name": "safeTransferFrom",
      "outputs": [],
      "stateMutability": "nonpayable",
      "type": "function"
    },
    {
      "inputs": [
        {
          "internalType": "address",
          "name": "operator",
          "type": "address"
        },
        {
          "internalType": "bool",
          "name": "approved",
          "type": "bool"
        }
      ],
      "name": "setApprovalForAll",
      "outputs": [],
      "stateMutability": "nonpayable",
      "type": "function"
    },
    {
      "inputs": [
        {
          "internalType": "uint256",
          "name": "_price",
          "type": "uint256"
        }
      ],
      "name": "setPrice",
      "outputs": [],
      "stateMutability": "nonpayable",
      "type": "function"
    },
    {
      "inputs": [
        {
          "internalType": "bytes4",
          "name": "interfaceId",
          "type": "bytes4"
        }
      ],
      "name": "supportsInterface",
      "outputs": [
        {
          "internalType": "bool",
          "name": "",
          "type": "bool"
        }
      ],
      "stateMutability": "view",
      "type": "function"
    },
    {
      "inputs": [],
      "name": "symbol",
      "outputs": [
        {
          "internalType": "string",
          "name": "",
          "type": "string"
        }
      ],
      "stateMutability": "view",
      "type": "function"
    },
    {
      "inputs": [],
      "name": "thesaurus",
      "outputs": [
        {
          "internalType": "contract IThesaurus",
          "name": "",
          "type": "address"
        }
      ],
      "stateMutability": "view",
      "type": "function"
    },
    {
      "inputs": [
        {
          "internalType": "uint256",
          "name": "index",
          "type": "uint256"
        }
      ],
      "name": "tokenByIndex",
      "outputs": [
        {
          "internalType": "uint256",
          "name": "",
          "type": "uint256"
        }
      ],
      "stateMutability": "view",
      "type": "function"
    },
    {
      "inputs": [
        {
          "internalType": "address",
          "name": "owner",
          "type": "address"
        },
        {
          "internalType": "uint256",
          "name": "index",
          "type": "uint256"
        }
      ],
      "name": "tokenOfOwnerByIndex",
      "outputs": [
        {
          "internalType": "uint256",
          "name": "",
          "type": "uint256"
        }
      ],
      "stateMutability": "view",
      "type": "function"
    },
    {
      "inputs": [
        {
          "internalType": "uint256",
          "name": "_tokenId",
          "type": "uint256"
        }
      ],
      "name": "tokenURI",
      "outputs": [
        {
          "internalType": "string",
          "name": "",
          "type": "string"
        }
      ],
      "stateMutability": "view",
      "type": "function"
    },
    {
      "inputs": [],
      "name": "totalSupply",
      "outputs": [
        {
          "internalType": "uint256",
          "name": "",
          "type": "uint256"
        }
      ],
      "stateMutability": "view",
      "type": "function"
    },
    {
      "inputs": [
        {
          "internalType": "address",
          "name": "_recipient",
          "type": "address"
        },
        {
          "internalType": "uint256",
          "name": "_amount",
          "type": "uint256"
        }
      ],
      "name": "transferEth",
      "outputs": [],
      "stateMutability": "payable",
      "type": "function"
    },
    {
      "inputs": [
        {
          "internalType": "address",
          "name": "from",
          "type": "address"
        },
        {
          "internalType": "address",
          "name": "to",
          "type": "address"
        },
        {
          "internalType": "uint256",
          "name": "tokenId",
          "type": "uint256"
        }
      ],
      "name": "transferFrom",
      "outputs": [],
      "stateMutability": "nonpayable",
      "type": "function"
    },
    {
      "inputs": [
        {
          "internalType": "address",
          "name": "newOwner",
          "type": "address"
        }
      ],
      "name": "transferOwnership",
      "outputs": [],
      "stateMutability": "nonpayable",
      "type": "function"
    },
    {
      "inputs": [
        {
          "internalType": "uint8",
          "name": "",
          "type": "uint8"
        }
      ],
      "name": "typeAmount",
      "outputs": [
        {
          "internalType": "uint256",
          "name": "",
          "type": "uint256"
        }
      ],
      "stateMutability": "view",
      "type": "function"
    },
    {
      "inputs": [
        {
          "internalType": "uint256",
          "name": "",
          "type": "uint256"
        }
      ],
      "name": "types",
      "outputs": [
        {
          "internalType": "uint8",
          "name": "",
          "type": "uint8"
        }
      ],
      "stateMutability": "view",
      "type": "function"
    },
    {
      "inputs": [
        {
          "internalType": "uint256",
          "name": "",
          "type": "uint256"
        }
      ],
      "name": "verb",
      "outputs": [
        {
          "internalType": "string",
          "name": "",
          "type": "string"
        }
      ],
      "stateMutability": "view",
      "type": "function"
    },
    {
      "inputs": [
        {
          "internalType": "bytes32[]",
          "name": "_proof",
          "type": "bytes32[]"
        },
        {
          "internalType": "address",
          "name": "_recipient",
          "type": "address"
        },
        {
          "internalType": "uint256",
          "name": "_amount",
          "type": "uint256"
        }
      ],
      "name": "verifyProof",
      "outputs": [
        {
          "internalType": "bool",
          "name": "",
          "type": "bool"
        }
      ],
      "stateMutability": "view",
      "type": "function"
    },
    {
      "stateMutability": "payable",
      "type": "receive"
    }
  ],
  "transactionHash": "0xedb446f757fb253364513478a6ec5278cc30c2a8f73c6b2753130b9da7dee4a3",
  "args": [
    "Crypto Art Driver",
    "CAD",
    "https://cad-renderer.digitalcompound.org/metadata",
    "0x96DF4508d5Fb5f57363b28A0Fd56233dc6F2a5cD",
    "100000000000000000",
    30,
    270,
    2700,
    "0xf53ec53832bb9f9bc7117bda2f65068c7e5aef87d958c753610fb3470bd3cd03",
    "1667700000"
  ],
  "numDeployments": 1,
  "solcInputHash": "6d3599e8881947dd14f1b856467c7aca",
  "bytecode": "0x60806040523480156200001157600080fd5b50604051620040e2380380620040e283398101604081905262000034916200060a565b620000488a8a8a8a8a8a8a8a8a8a62000058565b5050505050505050505062000727565b600054610100900460ff1615808015620000795750600054600160ff909116105b80620000a9575062000096306200025860201b62001cf01760201c565b158015620000a9575060005460ff166001145b620001125760405162461bcd60e51b815260206004820152602e60248201527f496e697469616c697a61626c653a20636f6e747261637420697320616c72656160448201526d191e481a5b9a5d1a585b1a5e995960921b60648201526084015b60405180910390fd5b6000805460ff19166001179055801562000136576000805461ff0019166101001790555b620001428b8b62000267565b6200014c620002d3565b8851620001619060fd9060208c01906200047a565b5060fc80546001600160a01b0319166001600160a01b038a1617905560fe8790556101016020527f78cc36da285c6bcc00b8ad0e7f4d07c0a99aacb1489e96b1bd1973c526600fea8490557f34f48ecb70d0b9ceaba0af892a975df1c49d4004ccc0ec2341be01c6ba8eb11c85905560036000527f516f9dc56cb0fb57c0adc39ead1822888cd1b1d04946ab546ff9ab29341eed3986905560ff83905561010082905580156200024b576000805461ff0019169055604051600181527f7f26b83ff96e1f2b6a682f133852f6798a09c465da95921460cefb38474024989060200160405180910390a15b5050505050505050505050565b6001600160a01b03163b151590565b600054610100900460ff16620002c35760405162461bcd60e51b815260206004820152602b6024820152600080516020620040c283398151915260448201526a6e697469616c697a696e6760a81b606482015260840162000109565b620002cf82826200033b565b5050565b600054610100900460ff166200032f5760405162461bcd60e51b815260206004820152602b6024820152600080516020620040c283398151915260448201526a6e697469616c697a696e6760a81b606482015260840162000109565b62000339620003c7565b565b600054610100900460ff16620003975760405162461bcd60e51b815260206004820152602b6024820152600080516020620040c283398151915260448201526a6e697469616c697a696e6760a81b606482015260840162000109565b8151620003ac9060979060208501906200047a565b508051620003c29060989060208401906200047a565b505050565b600054610100900460ff16620004235760405162461bcd60e51b815260206004820152602b6024820152600080516020620040c283398151915260448201526a6e697469616c697a696e6760a81b606482015260840162000109565b6200033933603380546001600160a01b038381166001600160a01b0319831681179093556040519116919082907f8be0079c531659141344cd1fd0a4f28419497f9722a3daafe3b4186f6b6457e090600090a35050565b8280546200048890620006ea565b90600052602060002090601f016020900481019282620004ac5760008555620004f7565b82601f10620004c757805160ff1916838001178555620004f7565b82800160010185558215620004f7579182015b82811115620004f7578251825591602001919060010190620004da565b506200050592915062000509565b5090565b5b808211156200050557600081556001016200050a565b634e487b7160e01b600052604160045260246000fd5b600082601f8301126200054857600080fd5b81516001600160401b038082111562000565576200056562000520565b604051601f8301601f19908116603f0116810190828211818310171562000590576200059062000520565b81604052838152602092508683858801011115620005ad57600080fd5b600091505b83821015620005d15785820183015181830184015290820190620005b2565b83821115620005e35760008385830101525b9695505050505050565b80516001600160a01b03811681146200060557600080fd5b919050565b6000806000806000806000806000806101408b8d0312156200062b57600080fd5b8a516001600160401b03808211156200064357600080fd5b620006518e838f0162000536565b9b5060208d01519150808211156200066857600080fd5b620006768e838f0162000536565b9a5060408d01519150808211156200068d57600080fd5b506200069c8d828e0162000536565b985050620006ad60608c01620005ed565b965060808b0151955060a08b0151945060c08b0151935060e08b015192506101008b015191506101208b015190509295989b9194979a5092959850565b600181811c90821680620006ff57607f821691505b602082108114156200072157634e487b7160e01b600052602260045260246000fd5b50919050565b61398b80620007376000396000f3fe6080604052600436106102535760003560e01c806391b7f5ed11610138578063ca4e55e7116100b0578063e9bb84c211610077578063e9bb84c214610786578063ed76bd0b14610799578063f2807023146107c7578063f2fde38b146107f5578063f3ec6a7914610815578063fa4ad06d1461084c57005b8063ca4e55e71461069a578063cefbfa36146106ba578063dd467064146106fd578063e20b21271461071d578063e985e9c51461073d57005b8063a22cb465116100ff578063a22cb465146105b8578063b45a3c0e146105d8578063b88d4fde14610609578063b9fd27bd14610629578063c87b56dd14610649578063c884ef831461066957005b806391b7f5ed14610536578063929943b114610556578063931e2e491461057657806395d89b411461058d578063a035b1fe146105a257005b806336b04f26116101cb5780636352211e116101925780636352211e1461048e5780636c0360eb146104ae57806370a08231146104c3578063715018a6146104e3578063726d20fe146104f85780638da5cb5b1461051857005b806336b04f26146103ee57806340c10f191461040e57806342842e0e1461042e5780634f6ccce71461044e57806355a498c81461046e57005b80631e7269c51161021a5780631e7269c51461032a578063227eac8b1461035857806322abd4e31461037857806323b872dd146103985780632eb4a7ab146103b85780632f745c59146103ce57005b806301ffc9a71461025c57806306fdde0314610291578063081812fc146102b3578063095ea7b3146102eb57806318160ddd1461030b57005b3661025a57005b005b34801561026857600080fd5b5061027c610277366004612d9f565b61086c565b60405190151581526020015b60405180910390f35b34801561029d57600080fd5b506102a6610897565b6040516102889190612e14565b3480156102bf57600080fd5b506102d36102ce366004612e27565b610929565b6040516001600160a01b039091168152602001610288565b3480156102f757600080fd5b5061025a610306366004612e5c565b610950565b34801561031757600080fd5b5060cb545b604051908152602001610288565b34801561033657600080fd5b5061031c610345366004612e86565b61010a6020526000908152604090205481565b34801561036457600080fd5b5061025a610373366004612f7f565b610a6b565b34801561038457600080fd5b5060fc546102d3906001600160a01b031681565b3480156103a457600080fd5b5061025a6103b3366004612fd6565b610db9565b3480156103c457600080fd5b5061031c60ff5481565b3480156103da57600080fd5b5061031c6103e9366004612e5c565b610dea565b3480156103fa57600080fd5b506102a6610409366004612e27565b610e80565b61042161041c366004612e5c565b610f1b565b6040516102889190613012565b34801561043a57600080fd5b5061025a610449366004612fd6565b6111b4565b34801561045a57600080fd5b5061031c610469366004612e27565b6111cf565b34801561047a57600080fd5b506102a6610489366004612e27565b611262565b34801561049a57600080fd5b506102d36104a9366004612e27565b61127c565b3480156104ba57600080fd5b506102a66112dc565b3480156104cf57600080fd5b5061031c6104de366004612e86565b6112e9565b3480156104ef57600080fd5b5061025a61136f565b34801561050457600080fd5b5061027c6105133660046130d6565b611383565b34801561052457600080fd5b506033546001600160a01b03166102d3565b34801561054257600080fd5b5061025a610551366004612e27565b6113d2565b34801561056257600080fd5b5061025a61057136600461311d565b611420565b34801561058257600080fd5b5061031c6101005481565b34801561059957600080fd5b506102a661156d565b3480156105ae57600080fd5b5061031c60fe5481565b3480156105c457600080fd5b5061025a6105d3366004613174565b61157c565b3480156105e457600080fd5b5061027c6105f3366004612e27565b6101066020526000908152604090205460ff1681565b34801561061557600080fd5b5061025a6106243660046131b0565b61158b565b34801561063557600080fd5b506102a6610644366004612e27565b6115c3565b34801561065557600080fd5b506102a6610664366004612e27565b6115dd565b34801561067557600080fd5b5061027c610684366004612e86565b6101086020526000908152604090205460ff1681565b3480156106a657600080fd5b5061025a6106b536600461322c565b611690565b3480156106c657600080fd5b506106eb6106d5366004612e27565b6101076020526000908152604090205460ff1681565b60405160ff9091168152602001610288565b34801561070957600080fd5b5061025a610718366004612e27565b61186b565b34801561072957600080fd5b5061025a610738366004612e27565b6119b6565b34801561074957600080fd5b5061027c6107583660046132fc565b6001600160a01b039182166000908152609c6020908152604080832093909416825291909152205460ff1690565b61025a610794366004612e5c565b611bdf565b3480156107a557600080fd5b5061031c6107b4366004612e86565b6101096020526000908152604090205481565b3480156107d357600080fd5b5061031c6107e236600461332f565b6101016020526000908152604090205481565b34801561080157600080fd5b5061025a610810366004612e86565b611c5d565b34801561082157600080fd5b5061031c610830366004612e86565b6001600160a01b03166000908152610109602052604090205490565b34801561085857600080fd5b506102a6610867366004612e27565b611cd6565b60006001600160e01b0319821663780e9d6360e01b1480610891575061089182611cff565b92915050565b6060609780546108a69061334a565b80601f01602080910402602001604051908101604052809291908181526020018280546108d29061334a565b801561091f5780601f106108f45761010080835404028352916020019161091f565b820191906000526020600020905b81548152906001019060200180831161090257829003601f168201915b5050505050905090565b600061093482611d4f565b506000908152609b60205260409020546001600160a01b031690565b600061095b8261127c565b9050806001600160a01b0316836001600160a01b031614156109ce5760405162461bcd60e51b815260206004820152602160248201527f4552433732313a20617070726f76616c20746f2063757272656e74206f776e656044820152603960f91b60648201526084015b60405180910390fd5b336001600160a01b03821614806109ea57506109ea8133610758565b610a5c5760405162461bcd60e51b815260206004820152603e60248201527f4552433732313a20617070726f76652063616c6c6572206973206e6f7420746f60448201527f6b656e206f776e6572206e6f7220617070726f76656420666f7220616c6c000060648201526084016109c5565b610a668383611dae565b505050565b33610a758461127c565b6001600160a01b031614610acb5760405162461bcd60e51b815260206004820152601d60248201527f417274447269766572723a20596f7520617265206e6f74206f776e657200000060448201526064016109c5565b6000838152610105602052604090208054610ae59061334a565b159050610b345760405162461bcd60e51b815260206004820152601a60248201527f417274447269766572723a20746f6b656e20697320616464656400000000000060448201526064016109c5565b601e8151108015610b46575060008151115b610bab5760405162461bcd60e51b815260206004820152603060248201527f4172744472697665723a20776f7264206d696e696d756d20302c206d6178696d60448201526f756d203330206368617261637465727360801b60648201526084016109c5565b6000838152610105602090815260409091208251610bcb92840190612cf0565b506000838152610107602052604081205460ff1660011415610bef57506001610d12565b6000848152610107602052604090205460ff1660021415610c1257506005610d12565b6000848152610107602052604090205460ff1660031415610cc557610cbe606460fc60009054906101000a90046001600160a01b03166001600160a01b03166366ac564a6040518163ffffffff1660e01b815260040160206040518083038186803b158015610c8057600080fd5b505afa158015610c94573d6000803e3d6000fd5b505050506040513d601f19601f82011682018060405250810190610cb89190613385565b90611e1c565b9050610d12565b6000610cd38460ff16611e2f565b604051602001610ce3919061339e565b60405160208183030381529060405290610d105760405162461bcd60e51b81526004016109c59190612e14565b505b60fc5460405163012b1d7b60e21b81526001600160a01b03909116906304ac75ec90610d46908690859087906004016133fa565b600060405180830381600087803b158015610d6057600080fd5b505af1158015610d74573d6000803e3d6000fd5b505050507ffdac6959a3a5882f20eeb4ea8e8a0007e1e99d29434bed07ce50b0d675d1f60f848284604051610dab9392919061341c565b60405180910390a150505050565b610dc33382611f35565b610ddf5760405162461bcd60e51b81526004016109c59061343b565b610a66838383611fb3565b6000610df5836112e9565b8210610e575760405162461bcd60e51b815260206004820152602b60248201527f455243373231456e756d657261626c653a206f776e657220696e646578206f7560448201526a74206f6620626f756e647360a81b60648201526084016109c5565b506001600160a01b0391909116600090815260c960209081526040808320938352929052205490565b6101036020526000908152604090208054610e9a9061334a565b80601f0160208091040260200160405190810160405280929190818152602001828054610ec69061334a565b8015610f135780601f10610ee857610100808354040283529160200191610f13565b820191906000526020600020905b815481529060010190602001808311610ef657829003601f168201915b505050505081565b6060610f2f6033546001600160a01b031690565b6001600160a01b0316336001600160a01b031614611122576101005442101580610f7157506001600160a01b0383166000908152610109602052604090205415155b610fe35760405162461bcd60e51b815260206004820152603960248201527f4172744472697665723a204e6f6e2d77686974656c697374656420757365727360448201527f2068617665206e6f7420796574206f70656e6564206d696e740000000000000060648201526084016109c5565b610100544210801561100d57506001600160a01b0383166000908152610109602052604090205482115b1561102f576001600160a01b0383166000908152610109602052604090205491505b6001600160a01b038316600090815261010960205260408120548310611094576001600160a01b03841660009081526101096020526040902054611073908461349f565b6001600160a01b0385166000908152610109602052604081205590506110c3565b6001600160a01b03841660009081526101096020526040812080548592906110bd90849061349f565b90915550505b8060fe546110d191906134b6565b3410156111205760405162461bcd60e51b815260206004820152601f60248201527f4172744472697665723a206d73672e76616c756520446566696369656e63790060448201526064016109c5565b505b60008267ffffffffffffffff81111561113d5761113d612eb2565b604051908082528060200260200182016040528015611166578160200160208202803683370190505b50905060005b838110156111ac5761117d8561215a565b82828151811061118f5761118f6134d5565b6020908102919091010152806111a4816134eb565b91505061116c565b509392505050565b610a668383836040518060200160405280600081525061158b565b60006111da60cb5490565b821061123d5760405162461bcd60e51b815260206004820152602c60248201527f455243373231456e756d657261626c653a20676c6f62616c20696e646578206f60448201526b7574206f6620626f756e647360a01b60648201526084016109c5565b60cb8281548110611250576112506134d5565b90600052602060002001549050919050565b6101026020526000908152604090208054610e9a9061334a565b6000818152609960205260408120546001600160a01b0316806108915760405162461bcd60e51b8152602060048201526018602482015277115490cdcc8c4e881a5b9d985b1a59081d1bdad95b88125160421b60448201526064016109c5565b60fd8054610e9a9061334a565b60006001600160a01b0382166113535760405162461bcd60e51b815260206004820152602960248201527f4552433732313a2061646472657373207a65726f206973206e6f7420612076616044820152683634b21037bbb732b960b91b60648201526084016109c5565b506001600160a01b03166000908152609a602052604090205490565b61137761234c565b61138160006123a6565b565b604080516001600160a01b038416602082015290810182905260009081906060016040516020818303038152906040528051906020012090506113c98560ff54836123f8565b95945050505050565b6113da61234c565b60fe80549082905560408051828152602081018490527fb9362b96e28efbb7a7e63bb4a97faf9924ec0394635feff8588a6ae2a5f784fe91015b60405180910390a15050565b6001600160a01b0383166000908152610108602052604090205460ff16156114955760405162461bcd60e51b815260206004820152602260248201527f4172744472697665723a2054686973206164647265737320697320636c61696d604482015261195960f21b60648201526084016109c5565b6114a0828483611383565b6115005760405162461bcd60e51b815260206004820152602b60248201527f4172744472697665723a205468652070726f6f6620636f756c64206e6f74206260448201526a32903b32b934b334b2b21760a91b60648201526084016109c5565b6001600160a01b038316600081815261010960209081526040808320859055610108825291829020805460ff19166001179055815192835282018390527fba5ec43de175afadf4606466cf5d34a6a29fe6bd172df29a0476e8eadb7b38e7910160405180910390a1505050565b6060609880546108a69061334a565b61158733838361240e565b5050565b6115953383611f35565b6115b15760405162461bcd60e51b81526004016109c59061343b565b6115bd848484846124dd565b50505050565b6101046020526000908152604090208054610e9a9061334a565b6000818152609960205260409020546060906001600160a01b03166116145760405162461bcd60e51b81526004016109c590613506565b60fd61161f83611e2f565b6000848152610107602052604090205461163b9060ff16611e2f565b60008581526101026020908152604080832061010383528184206101048452828520610105855294839020925161167a989796959294919391016135ea565b6040516020818303038152906040529050919050565b600054610100900460ff16158080156116b05750600054600160ff909116105b806116ca5750303b1580156116ca575060005460ff166001145b61172d5760405162461bcd60e51b815260206004820152602e60248201527f496e697469616c697a61626c653a20636f6e747261637420697320616c72656160448201526d191e481a5b9a5d1a585b1a5e995960921b60648201526084016109c5565b6000805460ff191660011790558015611750576000805461ff0019166101001790555b61175a8b8b612510565b611762612541565b88516117759060fd9060208c0190612cf0565b5060fc80546001600160a01b0319166001600160a01b038a1617905560fe8790556101016020527f78cc36da285c6bcc00b8ad0e7f4d07c0a99aacb1489e96b1bd1973c526600fea8490557f34f48ecb70d0b9ceaba0af892a975df1c49d4004ccc0ec2341be01c6ba8eb11c85905560036000527f516f9dc56cb0fb57c0adc39ead1822888cd1b1d04946ab546ff9ab29341eed3986905560ff839055610100829055801561185e576000805461ff0019169055604051600181527f7f26b83ff96e1f2b6a682f133852f6798a09c465da95921460cefb38474024989060200160405180910390a15b5050505050505050505050565b6000818152609960205260409020546001600160a01b031661189f5760405162461bcd60e51b81526004016109c590613506565b6000818152610106602052604090205460ff16156118ff5760405162461bcd60e51b815260206004820152601a60248201527f4172744472697665723a20746f6b656e206973206c6f636b656400000000000060448201526064016109c5565b336119098261127c565b6001600160a01b03161461195f5760405162461bcd60e51b815260206004820152601c60248201527f4172744472697665723a20596f7520617265206e6f74206f776e65720000000060448201526064016109c5565b6000818152610106602052604090819020805460ff19166001179055517f032bc66be43dbccb7487781d168eb7bda224628a3b2c3388bdf69b532a3a1611906119ab9083815260200190565b60405180910390a150565b6000818152609960205260409020546001600160a01b03166119ea5760405162461bcd60e51b81526004016109c590613506565b6000818152610106602052604090205460ff1615611a4a5760405162461bcd60e51b815260206004820152601a60248201527f4172744472697665723a20746f6b656e206973206c6f636b656400000000000060448201526064016109c5565b33611a548261127c565b6001600160a01b031614611aaa5760405162461bcd60e51b815260206004820152601c60248201527f4172744472697665723a20596f7520617265206e6f74206f776e65720000000060448201526064016109c5565b60fc54600090819081906001600160a01b031663beff730f611acb60cb5490565b6040518263ffffffff1660e01b8152600401611ae991815260200190565b60006040518083038186803b158015611b0157600080fd5b505afa158015611b15573d6000803e3d6000fd5b505050506040513d6000823e601f3d908101601f19168201604052611b3d91908101906136ce565b6000878152610102602090815260409091208451949750929550909350611b679290860190612cf0565b506000848152610103602090815260409091208351611b8892850190612cf0565b506000848152610104602090815260409091208251611ba992840190612cf0565b507f57f3798e8ce1fb9ea6eea73c23e95f2e6fabfbc4c8dd4586374c5c176393b74084848484604051610dab949392919061374c565b611be761234c565b6040516001600160a01b0383169082156108fc029083906000818181858888f19350505050158015611c1d573d6000803e3d6000fd5b50604080516001600160a01b0384168152602081018390527fd9b66890b56321a19d7a216dd918f8c0d4023759afc4088deb9be15aca68ece29101611414565b611c6561234c565b6001600160a01b038116611cca5760405162461bcd60e51b815260206004820152602660248201527f4f776e61626c653a206e6577206f776e657220697320746865207a65726f206160448201526564647265737360d01b60648201526084016109c5565b611cd3816123a6565b50565b6101056020526000908152604090208054610e9a9061334a565b6001600160a01b03163b151590565b60006001600160e01b031982166380ac58cd60e01b1480611d3057506001600160e01b03198216635b5e139f60e01b145b8061089157506301ffc9a760e01b6001600160e01b0319831614610891565b6000818152609960205260409020546001600160a01b0316611cd35760405162461bcd60e51b8152602060048201526018602482015277115490cdcc8c4e881a5b9d985b1a59081d1bdad95b88125160421b60448201526064016109c5565b6000818152609b6020526040902080546001600160a01b0319166001600160a01b0384169081179091558190611de38261127c565b6001600160a01b03167f8c5be1e5ebec7d5bd14f71427d1e84f3dd0314c0f7b2291e5b200ac8c7c3b92560405160405180910390a45050565b6000611e2882846137a1565b9392505050565b606081611e535750506040805180820190915260018152600360fc1b602082015290565b8160005b8115611e7d5780611e67816134eb565b9150611e769050600a836137a1565b9150611e57565b60008167ffffffffffffffff811115611e9857611e98612eb2565b6040519080825280601f01601f191660200182016040528015611ec2576020820181803683370190505b5090505b8415611f2d57611ed760018361349f565b9150611ee4600a866137b5565b611eef9060306137c9565b60f81b818381518110611f0457611f046134d5565b60200101906001600160f81b031916908160001a905350611f26600a866137a1565b9450611ec6565b949350505050565b600080611f418361127c565b9050806001600160a01b0316846001600160a01b03161480611f8857506001600160a01b038082166000908152609c602090815260408083209388168352929052205460ff165b80611f2d5750836001600160a01b0316611fa184610929565b6001600160a01b031614949350505050565b826001600160a01b0316611fc68261127c565b6001600160a01b03161461202a5760405162461bcd60e51b815260206004820152602560248201527f4552433732313a207472616e736665722066726f6d20696e636f72726563742060448201526437bbb732b960d91b60648201526084016109c5565b6001600160a01b03821661208c5760405162461bcd60e51b8152602060048201526024808201527f4552433732313a207472616e7366657220746f20746865207a65726f206164646044820152637265737360e01b60648201526084016109c5565b612097838383612570565b6120a2600082611dae565b6001600160a01b0383166000908152609a602052604081208054600192906120cb90849061349f565b90915550506001600160a01b0382166000908152609a602052604081208054600192906120f99084906137c9565b909155505060008181526099602052604080822080546001600160a01b0319166001600160a01b0386811691821790925591518493918716917fddf252ad1be2c89b69c2b068fc378daa952ba7f163c4a11628f55a4df523b3ef91a4505050565b600061216560fb5490565b60fc54909150600090819081906001600160a01b031663beff730f61218960cb5490565b6040518263ffffffff1660e01b81526004016121a791815260200190565b60006040518083038186803b1580156121bf57600080fd5b505afa1580156121d3573d6000803e3d6000fd5b505050506040513d6000823e601f3d908101601f191682016040526121fb91908101906136ce565b60008781526101026020908152604090912084519497509295509093506122259290860190612cf0565b50600084815261010360209081526040909120835161224692850190612cf0565b50600084815261010460209081526040909120825161226792840190612cf0565b50600061227385612628565b600086815261010760209081526040808320805460ff191660ff86169081179091558352610101909152812080549293506001929091906122b590849061349f565b90915550506001600160a01b038616600090815261010a602052604081208054600192906122e49084906137c9565b909155506122f49050868661278a565b61230260fb80546001019055565b7f06d462992b94a71271caecaa4d7031f82eed46383a2d5c24c15f7ab75b9a7a9485878686868660405161233b969594939291906137e1565b60405180910390a150505050919050565b6033546001600160a01b031633146113815760405162461bcd60e51b815260206004820181905260248201527f4f776e61626c653a2063616c6c6572206973206e6f7420746865206f776e657260448201526064016109c5565b603380546001600160a01b038381166001600160a01b0319831681179093556040519116919082907f8be0079c531659141344cd1fd0a4f28419497f9722a3daafe3b4186f6b6457e090600090a35050565b60008261240585846128d8565b14949350505050565b816001600160a01b0316836001600160a01b031614156124705760405162461bcd60e51b815260206004820152601960248201527f4552433732313a20617070726f766520746f2063616c6c65720000000000000060448201526064016109c5565b6001600160a01b038381166000818152609c6020908152604080832094871680845294825291829020805460ff191686151590811790915591519182527f17307eab39ab6107e8899845ad3d59bd9653f200f220920489ca2b5937696c31910160405180910390a3505050565b6124e8848484611fb3565b6124f48484848461291d565b6115bd5760405162461bcd60e51b81526004016109c590613848565b600054610100900460ff166125375760405162461bcd60e51b81526004016109c59061389a565b6115878282612a2a565b600054610100900460ff166125685760405162461bcd60e51b81526004016109c59061389a565b611381612a78565b6001600160a01b0383166125cb576125c68160cb8054600083815260cc60205260408120829055600182018355919091527fa7ce836d032b2bf62b7e2097a8e0a6d8aeb35405ad15271e96d3b0188a1d06fb0155565b6125ee565b816001600160a01b0316836001600160a01b0316146125ee576125ee8382612aa8565b6001600160a01b03821661260557610a6681612b45565b826001600160a01b0316826001600160a01b031614610a6657610a668282612bf4565b600260009081526101016020527f34f48ecb70d0b9ceaba0af892a975df1c49d4004ccc0ec2341be01c6ba8eb11c5415801561268e575060036000526101016020527f516f9dc56cb0fb57c0adc39ead1822888cd1b1d04946ab546ff9ab29341eed3954155b1561269b57506001919050565b606460006126ab60018386612c38565b90508060ff16606414156126c257600392506126eb565b8060ff1660641180156126d857508060ff16605a105b156126e657600292506126eb565b600192505b60ff83166003148015612728575060036000526101016020527f516f9dc56cb0fb57c0adc39ead1822888cd1b1d04946ab546ff9ab29341eed3954155b15612737575060019392505050565b60ff83166002148015612774575060026000526101016020527f34f48ecb70d0b9ceaba0af892a975df1c49d4004ccc0ec2341be01c6ba8eb11c54155b15612783575060019392505050565b5050919050565b6001600160a01b0382166127e05760405162461bcd60e51b815260206004820181905260248201527f4552433732313a206d696e7420746f20746865207a65726f206164647265737360448201526064016109c5565b6000818152609960205260409020546001600160a01b0316156128455760405162461bcd60e51b815260206004820152601c60248201527f4552433732313a20746f6b656e20616c7265616479206d696e7465640000000060448201526064016109c5565b61285160008383612570565b6001600160a01b0382166000908152609a6020526040812080546001929061287a9084906137c9565b909155505060008181526099602052604080822080546001600160a01b0319166001600160a01b03861690811790915590518392907fddf252ad1be2c89b69c2b068fc378daa952ba7f163c4a11628f55a4df523b3ef908290a45050565b600081815b84518110156111ac57612909828683815181106128fc576128fc6134d5565b6020026020010151612c45565b915080612915816134eb565b9150506128dd565b60006001600160a01b0384163b15612a1f57604051630a85bd0160e11b81526001600160a01b0385169063150b7a02906129619033908990889088906004016138e5565b602060405180830381600087803b15801561297b57600080fd5b505af19250505080156129ab575060408051601f3d908101601f191682019092526129a891810190613922565b60015b612a05573d8080156129d9576040519150601f19603f3d011682016040523d82523d6000602084013e6129de565b606091505b5080516129fd5760405162461bcd60e51b81526004016109c590613848565b805181602001fd5b6001600160e01b031916630a85bd0160e11b149050611f2d565b506001949350505050565b600054610100900460ff16612a515760405162461bcd60e51b81526004016109c59061389a565b8151612a64906097906020850190612cf0565b508051610a66906098906020840190612cf0565b600054610100900460ff16612a9f5760405162461bcd60e51b81526004016109c59061389a565b611381336123a6565b60006001612ab5846112e9565b612abf919061349f565b600083815260ca6020526040902054909150808214612b12576001600160a01b038416600090815260c960209081526040808320858452825280832054848452818420819055835260ca90915290208190555b50600091825260ca602090815260408084208490556001600160a01b03909416835260c981528383209183525290812055565b60cb54600090612b579060019061349f565b600083815260cc602052604081205460cb8054939450909284908110612b7f57612b7f6134d5565b906000526020600020015490508060cb8381548110612ba057612ba06134d5565b600091825260208083209091019290925582815260cc909152604080822084905585825281205560cb805480612bd857612bd861393f565b6001900381819060005260206000200160009055905550505050565b6000612bff836112e9565b6001600160a01b03909316600090815260c960209081526040808320868452825280832085905593825260ca9052919091209190915550565b6000611f2d848484612c74565b6000818310612c61576000828152602084905260409020611e28565b6000838152602083905260409020611e28565b604080514260208083018290524483850181905260608085018790528551808603909101815260808501865280519083012060a085019390935260c084015260e08084018390528451808503909101815261010090930190935281519190920120600091908590612ce69086906137b5565b6113c991906137c9565b828054612cfc9061334a565b90600052602060002090601f016020900481019282612d1e5760008555612d64565b82601f10612d3757805160ff1916838001178555612d64565b82800160010185558215612d64579182015b82811115612d64578251825591602001919060010190612d49565b50612d70929150612d74565b5090565b5b80821115612d705760008155600101612d75565b6001600160e01b031981168114611cd357600080fd5b600060208284031215612db157600080fd5b8135611e2881612d89565b60005b83811015612dd7578181015183820152602001612dbf565b838111156115bd5750506000910152565b60008151808452612e00816020860160208601612dbc565b601f01601f19169290920160200192915050565b602081526000611e286020830184612de8565b600060208284031215612e3957600080fd5b5035919050565b80356001600160a01b0381168114612e5757600080fd5b919050565b60008060408385031215612e6f57600080fd5b612e7883612e40565b946020939093013593505050565b600060208284031215612e9857600080fd5b611e2882612e40565b803560ff81168114612e5757600080fd5b634e487b7160e01b600052604160045260246000fd5b604051601f8201601f1916810167ffffffffffffffff81118282101715612ef157612ef1612eb2565b604052919050565b600067ffffffffffffffff821115612f1357612f13612eb2565b50601f01601f191660200190565b6000612f34612f2f84612ef9565b612ec8565b9050828152838383011115612f4857600080fd5b828260208301376000602084830101529392505050565b600082601f830112612f7057600080fd5b611e2883833560208501612f21565b600080600060608486031215612f9457600080fd5b83359250612fa460208501612ea1565b9150604084013567ffffffffffffffff811115612fc057600080fd5b612fcc86828701612f5f565b9150509250925092565b600080600060608486031215612feb57600080fd5b612ff484612e40565b925061300260208501612e40565b9150604084013590509250925092565b6020808252825182820181905260009190848201906040850190845b8181101561304a5783518352928401929184019160010161302e565b50909695505050505050565b600082601f83011261306757600080fd5b8135602067ffffffffffffffff82111561308357613083612eb2565b8160051b613092828201612ec8565b92835284810182019282810190878511156130ac57600080fd5b83870192505b848310156130cb578235825291830191908301906130b2565b979650505050505050565b6000806000606084860312156130eb57600080fd5b833567ffffffffffffffff81111561310257600080fd5b61310e86828701613056565b93505061300260208501612e40565b60008060006060848603121561313257600080fd5b61313b84612e40565b9250602084013567ffffffffffffffff81111561315757600080fd5b61316386828701613056565b925050604084013590509250925092565b6000806040838503121561318757600080fd5b61319083612e40565b9150602083013580151581146131a557600080fd5b809150509250929050565b600080600080608085870312156131c657600080fd5b6131cf85612e40565b93506131dd60208601612e40565b925060408501359150606085013567ffffffffffffffff81111561320057600080fd5b8501601f8101871361321157600080fd5b61322087823560208401612f21565b91505092959194509250565b6000806000806000806000806000806101408b8d03121561324c57600080fd5b8a3567ffffffffffffffff8082111561326457600080fd5b6132708e838f01612f5f565b9b5060208d013591508082111561328657600080fd5b6132928e838f01612f5f565b9a5060408d01359150808211156132a857600080fd5b506132b58d828e01612f5f565b9850506132c460608c01612e40565b999c989b50969960808101359860a0820135985060c0820135975060e082013596506101008201359550610120909101359350915050565b6000806040838503121561330f57600080fd5b61331883612e40565b915061332660208401612e40565b90509250929050565b60006020828403121561334157600080fd5b611e2882612ea1565b600181811c9082168061335e57607f821691505b6020821081141561337f57634e487b7160e01b600052602260045260246000fd5b50919050565b60006020828403121561339757600080fd5b5051919050565b7f4172744472697665723a205468657265206973206e6f20737563682074797065815261205b60f01b6020820152600082516133e1816022850160208701612dbc565b61205d60f01b6022939091019283015250602401919050565b60ff841681528260208201526060604082015260006113c96060830184612de8565b8381528260208201526060604082015260006113c96060830184612de8565b6020808252602e908201527f4552433732313a2063616c6c6572206973206e6f7420746f6b656e206f776e6560408201526d1c881b9bdc88185c1c1c9bdd995960921b606082015260800190565b634e487b7160e01b600052601160045260246000fd5b6000828210156134b1576134b1613489565b500390565b60008160001904831182151516156134d0576134d0613489565b500290565b634e487b7160e01b600052603260045260246000fd5b60006000198214156134ff576134ff613489565b5060010190565b6020808252602a908201527f4172744472697665723a2055524920717565727920666f72206e6f6e657869736040820152693a32b73a103a37b5b2b760b11b606082015260800190565b8054600090600181811c908083168061356a57607f831692505b602080841082141561358c57634e487b7160e01b600052602260045260246000fd5b8180156135a057600181146135b1576135de565b60ff198616895284890196506135de565b60008881526020902060005b868110156135d65781548b8201529085019083016135bd565b505084890196505b50505050505092915050565b60006135f6828a613550565b602f60f81b8082528951613611816001850160208e01612dbc565b60019201918201819052885161362e816002850160208d01612dbc565b600292019182018190526136456003830189613550565b91508082526136576001830188613550565b91508082526136696001830187613550565b908152905061367b6001820185613550565b9a9950505050505050505050565b600082601f83011261369a57600080fd5b81516136a8612f2f82612ef9565b8181528460208386010111156136bd57600080fd5b611f2d826020830160208701612dbc565b6000806000606084860312156136e357600080fd5b835167ffffffffffffffff808211156136fb57600080fd5b61370787838801613689565b9450602086015191508082111561371d57600080fd5b61372987838801613689565b9350604086015191508082111561373f57600080fd5b50612fcc86828701613689565b8481526080602082015260006137656080830186612de8565b82810360408401526137778186612de8565b905082810360608401526130cb8185612de8565b634e487b7160e01b600052601260045260246000fd5b6000826137b0576137b061378b565b500490565b6000826137c4576137c461378b565b500690565b600082198211156137dc576137dc613489565b500190565b8681526001600160a01b038616602082015260c06040820181905260009061380b90830187612de8565b828103606084015261381d8187612de8565b905082810360808401526138318186612de8565b91505060ff831660a0830152979650505050505050565b60208082526032908201527f4552433732313a207472616e7366657220746f206e6f6e20455243373231526560408201527131b2b4bb32b91034b6b83632b6b2b73a32b960711b606082015260800190565b6020808252602b908201527f496e697469616c697a61626c653a20636f6e7472616374206973206e6f74206960408201526a6e697469616c697a696e6760a81b606082015260800190565b6001600160a01b038581168252841660208201526040810183905260806060820181905260009061391890830184612de8565b9695505050505050565b60006020828403121561393457600080fd5b8151611e2881612d89565b634e487b7160e01b600052603160045260246000fdfea264697066735822122009e9ea5b7248fead8df50f1d8af087289e16604b3060d778ec9dcba7064d743064736f6c63430008090033496e697469616c697a61626c653a20636f6e7472616374206973206e6f742069",
  "devdoc": {
    "kind": "dev",
    "methods": {
      "approve(address,uint256)": {
        "details": "See {IERC721-approve}."
      },
      "balanceOf(address)": {
        "details": "See {IERC721-balanceOf}."
      },
      "getApproved(uint256)": {
        "details": "See {IERC721-getApproved}."
      },
      "isApprovedForAll(address,address)": {
        "details": "See {IERC721-isApprovedForAll}."
      },
      "name()": {
        "details": "See {IERC721Metadata-name}."
      },
      "owner()": {
        "details": "Returns the address of the current owner."
      },
      "ownerOf(uint256)": {
        "details": "See {IERC721-ownerOf}."
      },
      "renounceOwnership()": {
        "details": "Leaves the contract without owner. It will not be possible to call `onlyOwner` functions anymore. Can only be called by the current owner. NOTE: Renouncing ownership will leave the contract without an owner, thereby removing any functionality that is only available to the owner."
      },
      "safeTransferFrom(address,address,uint256)": {
        "details": "See {IERC721-safeTransferFrom}."
      },
      "safeTransferFrom(address,address,uint256,bytes)": {
        "details": "See {IERC721-safeTransferFrom}."
      },
      "setApprovalForAll(address,bool)": {
        "details": "See {IERC721-setApprovalForAll}."
      },
      "supportsInterface(bytes4)": {
        "details": "See {IERC165-supportsInterface}."
      },
      "symbol()": {
        "details": "See {IERC721Metadata-symbol}."
      },
      "tokenByIndex(uint256)": {
        "details": "See {IERC721Enumerable-tokenByIndex}."
      },
      "tokenOfOwnerByIndex(address,uint256)": {
        "details": "See {IERC721Enumerable-tokenOfOwnerByIndex}."
      },
      "totalSupply()": {
        "details": "See {IERC721Enumerable-totalSupply}."
      },
      "transferFrom(address,address,uint256)": {
        "details": "See {IERC721-transferFrom}."
      },
      "transferOwnership(address)": {
        "details": "Transfers ownership of the contract to a new account (`newOwner`). Can only be called by the current owner."
      }
    },
    "version": 1
  },
  "userdoc": {
    "kind": "user",
    "methods": {},
    "version": 1
  },
  "storageLayout": {
    "storage": [
      {
        "astId": 138,
        "contract": "contracts/ArtDriver.sol:ArtDriver",
        "label": "_initialized",
        "offset": 0,
        "slot": "0",
        "type": "t_uint8"
      },
      {
        "astId": 141,
        "contract": "contracts/ArtDriver.sol:ArtDriver",
        "label": "_initializing",
        "offset": 1,
        "slot": "0",
        "type": "t_bool"
      },
      {
        "astId": 2008,
        "contract": "contracts/ArtDriver.sol:ArtDriver",
        "label": "__gap",
        "offset": 0,
        "slot": "1",
        "type": "t_array(t_uint256)50_storage"
      },
      {
        "astId": 10,
        "contract": "contracts/ArtDriver.sol:ArtDriver",
        "label": "_owner",
        "offset": 0,
        "slot": "51",
        "type": "t_address"
      },
      {
        "astId": 130,
        "contract": "contracts/ArtDriver.sol:ArtDriver",
        "label": "__gap",
        "offset": 0,
        "slot": "52",
        "type": "t_array(t_uint256)49_storage"
      },
      {
        "astId": 2854,
        "contract": "contracts/ArtDriver.sol:ArtDriver",
        "label": "__gap",
        "offset": 0,
        "slot": "101",
        "type": "t_array(t_uint256)50_storage"
      },
      {
        "astId": 311,
        "contract": "contracts/ArtDriver.sol:ArtDriver",
        "label": "_name",
        "offset": 0,
        "slot": "151",
        "type": "t_string_storage"
      },
      {
        "astId": 313,
        "contract": "contracts/ArtDriver.sol:ArtDriver",
        "label": "_symbol",
        "offset": 0,
        "slot": "152",
        "type": "t_string_storage"
      },
      {
        "astId": 317,
        "contract": "contracts/ArtDriver.sol:ArtDriver",
        "label": "_owners",
        "offset": 0,
        "slot": "153",
        "type": "t_mapping(t_uint256,t_address)"
      },
      {
        "astId": 321,
        "contract": "contracts/ArtDriver.sol:ArtDriver",
        "label": "_balances",
        "offset": 0,
        "slot": "154",
        "type": "t_mapping(t_address,t_uint256)"
      },
      {
        "astId": 325,
        "contract": "contracts/ArtDriver.sol:ArtDriver",
        "label": "_tokenApprovals",
        "offset": 0,
        "slot": "155",
        "type": "t_mapping(t_uint256,t_address)"
      },
      {
        "astId": 331,
        "contract": "contracts/ArtDriver.sol:ArtDriver",
        "label": "_operatorApprovals",
        "offset": 0,
        "slot": "156",
        "type": "t_mapping(t_address,t_mapping(t_address,t_bool))"
      },
      {
        "astId": 1173,
        "contract": "contracts/ArtDriver.sol:ArtDriver",
        "label": "__gap",
        "offset": 0,
        "slot": "157",
        "type": "t_array(t_uint256)44_storage"
      },
      {
        "astId": 1338,
        "contract": "contracts/ArtDriver.sol:ArtDriver",
        "label": "_ownedTokens",
        "offset": 0,
        "slot": "201",
        "type": "t_mapping(t_address,t_mapping(t_uint256,t_uint256))"
      },
      {
        "astId": 1342,
        "contract": "contracts/ArtDriver.sol:ArtDriver",
        "label": "_ownedTokensIndex",
        "offset": 0,
        "slot": "202",
        "type": "t_mapping(t_uint256,t_uint256)"
      },
      {
        "astId": 1345,
        "contract": "contracts/ArtDriver.sol:ArtDriver",
        "label": "_allTokens",
        "offset": 0,
        "slot": "203",
        "type": "t_array(t_uint256)dyn_storage"
      },
      {
        "astId": 1349,
        "contract": "contracts/ArtDriver.sol:ArtDriver",
        "label": "_allTokensIndex",
        "offset": 0,
        "slot": "204",
        "type": "t_mapping(t_uint256,t_uint256)"
      },
      {
        "astId": 1665,
        "contract": "contracts/ArtDriver.sol:ArtDriver",
        "label": "__gap",
        "offset": 0,
        "slot": "205",
        "type": "t_array(t_uint256)46_storage"
      },
      {
        "astId": 4498,
        "contract": "contracts/ArtDriver.sol:ArtDriver",
        "label": "_tokenIds",
        "offset": 0,
        "slot": "251",
        "type": "t_struct(Counter)2015_storage"
      },
      {
        "astId": 4510,
        "contract": "contracts/ArtDriver.sol:ArtDriver",
        "label": "thesaurus",
        "offset": 0,
        "slot": "252",
        "type": "t_contract(IThesaurus)5881"
      },
      {
        "astId": 4512,
        "contract": "contracts/ArtDriver.sol:ArtDriver",
        "label": "baseURI",
        "offset": 0,
        "slot": "253",
        "type": "t_string_storage"
      },
      {
        "astId": 4514,
        "contract": "contracts/ArtDriver.sol:ArtDriver",
        "label": "price",
        "offset": 0,
        "slot": "254",
        "type": "t_uint256"
      },
      {
        "astId": 4516,
        "contract": "contracts/ArtDriver.sol:ArtDriver",
        "label": "merkleRoot",
        "offset": 0,
        "slot": "255",
        "type": "t_bytes32"
      },
      {
        "astId": 4518,
        "contract": "contracts/ArtDriver.sol:ArtDriver",
        "label": "mintStartTime",
        "offset": 0,
        "slot": "256",
        "type": "t_uint256"
      },
      {
        "astId": 4522,
        "contract": "contracts/ArtDriver.sol:ArtDriver",
        "label": "typeAmount",
        "offset": 0,
        "slot": "257",
        "type": "t_mapping(t_uint8,t_uint256)"
      },
      {
        "astId": 4526,
        "contract": "contracts/ArtDriver.sol:ArtDriver",
        "label": "verb",
        "offset": 0,
        "slot": "258",
        "type": "t_mapping(t_uint256,t_string_storage)"
      },
      {
        "astId": 4530,
        "contract": "contracts/ArtDriver.sol:ArtDriver",
        "label": "adj",
        "offset": 0,
        "slot": "259",
        "type": "t_mapping(t_uint256,t_string_storage)"
      },
      {
        "astId": 4534,
        "contract": "contracts/ArtDriver.sol:ArtDriver",
        "label": "noun",
        "offset": 0,
        "slot": "260",
        "type": "t_mapping(t_uint256,t_string_storage)"
      },
      {
        "astId": 4538,
        "contract": "contracts/ArtDriver.sol:ArtDriver",
        "label": "added",
        "offset": 0,
        "slot": "261",
        "type": "t_mapping(t_uint256,t_string_storage)"
      },
      {
        "astId": 4542,
        "contract": "contracts/ArtDriver.sol:ArtDriver",
        "label": "locked",
        "offset": 0,
        "slot": "262",
        "type": "t_mapping(t_uint256,t_bool)"
      },
      {
        "astId": 4546,
        "contract": "contracts/ArtDriver.sol:ArtDriver",
        "label": "types",
        "offset": 0,
        "slot": "263",
        "type": "t_mapping(t_uint256,t_uint8)"
      },
      {
        "astId": 4550,
        "contract": "contracts/ArtDriver.sol:ArtDriver",
        "label": "claimed",
        "offset": 0,
        "slot": "264",
        "type": "t_mapping(t_address,t_bool)"
      },
      {
        "astId": 4554,
        "contract": "contracts/ArtDriver.sol:ArtDriver",
        "label": "allowedMintAmount",
        "offset": 0,
        "slot": "265",
        "type": "t_mapping(t_address,t_uint256)"
      },
      {
        "astId": 4558,
        "contract": "contracts/ArtDriver.sol:ArtDriver",
        "label": "minted",
        "offset": 0,
        "slot": "266",
        "type": "t_mapping(t_address,t_uint256)"
      }
    ],
    "types": {
      "t_address": {
        "encoding": "inplace",
        "label": "address",
        "numberOfBytes": "20"
      },
      "t_array(t_uint256)44_storage": {
        "base": "t_uint256",
        "encoding": "inplace",
        "label": "uint256[44]",
        "numberOfBytes": "1408"
      },
      "t_array(t_uint256)46_storage": {
        "base": "t_uint256",
        "encoding": "inplace",
        "label": "uint256[46]",
        "numberOfBytes": "1472"
      },
      "t_array(t_uint256)49_storage": {
        "base": "t_uint256",
        "encoding": "inplace",
        "label": "uint256[49]",
        "numberOfBytes": "1568"
      },
      "t_array(t_uint256)50_storage": {
        "base": "t_uint256",
        "encoding": "inplace",
        "label": "uint256[50]",
        "numberOfBytes": "1600"
      },
      "t_array(t_uint256)dyn_storage": {
        "base": "t_uint256",
        "encoding": "dynamic_array",
        "label": "uint256[]",
        "numberOfBytes": "32"
      },
      "t_bool": {
        "encoding": "inplace",
        "label": "bool",
        "numberOfBytes": "1"
      },
      "t_bytes32": {
        "encoding": "inplace",
        "label": "bytes32",
        "numberOfBytes": "32"
      },
      "t_contract(IThesaurus)5881": {
        "encoding": "inplace",
        "label": "contract IThesaurus",
        "numberOfBytes": "20"
      },
      "t_mapping(t_address,t_bool)": {
        "encoding": "mapping",
        "key": "t_address",
        "label": "mapping(address => bool)",
        "numberOfBytes": "32",
        "value": "t_bool"
      },
      "t_mapping(t_address,t_mapping(t_address,t_bool))": {
        "encoding": "mapping",
        "key": "t_address",
        "label": "mapping(address => mapping(address => bool))",
        "numberOfBytes": "32",
        "value": "t_mapping(t_address,t_bool)"
      },
      "t_mapping(t_address,t_mapping(t_uint256,t_uint256))": {
        "encoding": "mapping",
        "key": "t_address",
        "label": "mapping(address => mapping(uint256 => uint256))",
        "numberOfBytes": "32",
        "value": "t_mapping(t_uint256,t_uint256)"
      },
      "t_mapping(t_address,t_uint256)": {
        "encoding": "mapping",
        "key": "t_address",
        "label": "mapping(address => uint256)",
        "numberOfBytes": "32",
        "value": "t_uint256"
      },
      "t_mapping(t_uint256,t_address)": {
        "encoding": "mapping",
        "key": "t_uint256",
        "label": "mapping(uint256 => address)",
        "numberOfBytes": "32",
        "value": "t_address"
      },
      "t_mapping(t_uint256,t_bool)": {
        "encoding": "mapping",
        "key": "t_uint256",
        "label": "mapping(uint256 => bool)",
        "numberOfBytes": "32",
        "value": "t_bool"
      },
      "t_mapping(t_uint256,t_string_storage)": {
        "encoding": "mapping",
        "key": "t_uint256",
        "label": "mapping(uint256 => string)",
        "numberOfBytes": "32",
        "value": "t_string_storage"
      },
      "t_mapping(t_uint256,t_uint256)": {
        "encoding": "mapping",
        "key": "t_uint256",
        "label": "mapping(uint256 => uint256)",
        "numberOfBytes": "32",
        "value": "t_uint256"
      },
      "t_mapping(t_uint256,t_uint8)": {
        "encoding": "mapping",
        "key": "t_uint256",
        "label": "mapping(uint256 => uint8)",
        "numberOfBytes": "32",
        "value": "t_uint8"
      },
      "t_mapping(t_uint8,t_uint256)": {
        "encoding": "mapping",
        "key": "t_uint8",
        "label": "mapping(uint8 => uint256)",
        "numberOfBytes": "32",
        "value": "t_uint256"
      },
      "t_string_storage": {
        "encoding": "bytes",
        "label": "string",
        "numberOfBytes": "32"
      },
      "t_struct(Counter)2015_storage": {
        "encoding": "inplace",
        "label": "struct CountersUpgradeable.Counter",
        "members": [
          {
            "astId": 2014,
            "contract": "contracts/ArtDriver.sol:ArtDriver",
            "label": "_value",
            "offset": 0,
            "slot": "0",
            "type": "t_uint256"
          }
        ],
        "numberOfBytes": "32"
      },
      "t_uint256": {
        "encoding": "inplace",
        "label": "uint256",
        "numberOfBytes": "32"
      },
      "t_uint8": {
        "encoding": "inplace",
        "label": "uint8",
        "numberOfBytes": "1"
      }
    }
  }
}