{
  "address": "0x92B848e99Ef454E17F7A266a567FA2d2F486FCBa",
  "abi": [
    {
      "inputs": [],
      "stateMutability": "nonpayable",
      "type": "constructor"
    },
    {
      "anonymous": false,
      "inputs": [
        {
          "indexed": false,
          "internalType": "address",
          "name": "minter",
          "type": "address"
        }
      ],
      "name": "AddMinter",
      "type": "event"
    },
    {
      "anonymous": false,
      "inputs": [
        {
          "indexed": false,
          "internalType": "uint8",
          "name": "version",
          "type": "uint8"
        }
      ],
      "name": "Initialized",
      "type": "event"
    },
    {
      "anonymous": false,
      "inputs": [
        {
          "indexed": true,
          "internalType": "address",
          "name": "previousOwner",
          "type": "address"
        },
        {
          "indexed": true,
          "internalType": "address",
          "name": "newOwner",
          "type": "address"
        }
      ],
      "name": "OwnershipTransferred",
      "type": "event"
    },
    {
      "anonymous": false,
      "inputs": [
        {
          "indexed": false,
          "internalType": "address",
          "name": "minter",
          "type": "address"
        }
      ],
      "name": "SubMinter",
      "type": "event"
    },
    {
      "inputs": [],
      "name": "ADJ_TYPE",
      "outputs": [
        {
          "internalType": "uint8",
          "name": "",
          "type": "uint8"
        }
      ],
      "stateMutability": "pure",
      "type": "function"
    },
    {
      "inputs": [],
      "name": "NOUN_TYPE",
      "outputs": [
        {
          "internalType": "uint8",
          "name": "",
          "type": "uint8"
        }
      ],
      "stateMutability": "pure",
      "type": "function"
    },
    {
      "inputs": [],
      "name": "VERB_TYPE",
      "outputs": [
        {
          "internalType": "uint8",
          "name": "",
          "type": "uint8"
        }
      ],
      "stateMutability": "pure",
      "type": "function"
    },
    {
      "inputs": [
        {
          "internalType": "address",
          "name": "_minter",
          "type": "address"
        }
      ],
      "name": "addMinter",
      "outputs": [],
      "stateMutability": "nonpayable",
      "type": "function"
    },
    {
      "inputs": [
        {
          "internalType": "uint8",
          "name": "_type",
          "type": "uint8"
        },
        {
          "internalType": "uint256",
          "name": "_weight",
          "type": "uint256"
        },
        {
          "internalType": "string",
          "name": "_word",
          "type": "string"
        }
      ],
      "name": "addWord",
      "outputs": [],
      "stateMutability": "nonpayable",
      "type": "function"
    },
    {
      "inputs": [
        {
          "internalType": "uint8",
          "name": "_type",
          "type": "uint8"
        },
        {
          "internalType": "string[]",
          "name": "_words",
          "type": "string[]"
        }
      ],
      "name": "addWords",
      "outputs": [],
      "stateMutability": "nonpayable",
      "type": "function"
    },
    {
      "inputs": [
        {
          "internalType": "uint256",
          "name": "",
          "type": "uint256"
        }
      ],
      "name": "adjs",
      "outputs": [
        {
          "internalType": "string",
          "name": "",
          "type": "string"
        }
      ],
      "stateMutability": "view",
      "type": "function"
    },
    {
      "inputs": [],
      "name": "adjsAmount",
      "outputs": [
        {
          "internalType": "uint256",
          "name": "",
          "type": "uint256"
        }
      ],
      "stateMutability": "view",
      "type": "function"
    },
    {
      "inputs": [],
      "name": "initialize",
      "outputs": [],
      "stateMutability": "nonpayable",
      "type": "function"
    },
    {
      "inputs": [
        {
          "internalType": "address",
          "name": "",
          "type": "address"
        }
      ],
      "name": "minters",
      "outputs": [
        {
          "internalType": "bool",
          "name": "",
          "type": "bool"
        }
      ],
      "stateMutability": "view",
      "type": "function"
    },
    {
      "inputs": [
        {
          "internalType": "uint256",
          "name": "",
          "type": "uint256"
        }
      ],
      "name": "nouns",
      "outputs": [
        {
          "internalType": "string",
          "name": "",
          "type": "string"
        }
      ],
      "stateMutability": "view",
      "type": "function"
    },
    {
      "inputs": [],
      "name": "nounsAmount",
      "outputs": [
        {
          "internalType": "uint256",
          "name": "",
          "type": "uint256"
        }
      ],
      "stateMutability": "view",
      "type": "function"
    },
    {
      "inputs": [],
      "name": "owner",
      "outputs": [
        {
          "internalType": "address",
          "name": "",
          "type": "address"
        }
      ],
      "stateMutability": "view",
      "type": "function"
    },
    {
      "inputs": [
        {
          "internalType": "uint256",
          "name": "_nonce",
          "type": "uint256"
        }
      ],
      "name": "randomWords",
      "outputs": [
        {
          "internalType": "string",
          "name": "_verb",
          "type": "string"
        },
        {
          "internalType": "string",
          "name": "_adj",
          "type": "string"
        },
        {
          "internalType": "string",
          "name": "_noun",
          "type": "string"
        }
      ],
      "stateMutability": "view",
      "type": "function"
    },
    {
      "inputs": [],
      "name": "renounceOwnership",
      "outputs": [],
      "stateMutability": "nonpayable",
      "type": "function"
    },
    {
      "inputs": [
        {
          "internalType": "address",
          "name": "_minter",
          "type": "address"
        }
      ],
      "name": "subMinter",
      "outputs": [],
      "stateMutability": "nonpayable",
      "type": "function"
    },
    {
      "inputs": [],
      "name": "totalWordsAmount",
      "outputs": [
        {
          "internalType": "uint256",
          "name": "",
          "type": "uint256"
        }
      ],
      "stateMutability": "view",
      "type": "function"
    },
    {
      "inputs": [
        {
          "internalType": "address",
          "name": "newOwner",
          "type": "address"
        }
      ],
      "name": "transferOwnership",
      "outputs": [],
      "stateMutability": "nonpayable",
      "type": "function"
    },
    {
      "inputs": [
        {
          "internalType": "uint256",
          "name": "",
          "type": "uint256"
        }
      ],
      "name": "verbs",
      "outputs": [
        {
          "internalType": "string",
          "name": "",
          "type": "string"
        }
      ],
      "stateMutability": "view",
      "type": "function"
    },
    {
      "inputs": [],
      "name": "verbsAmount",
      "outputs": [
        {
          "internalType": "uint256",
          "name": "",
          "type": "uint256"
        }
      ],
      "stateMutability": "view",
      "type": "function"
    }
  ],
  "transactionHash": "0x14a50b592a7118322bdbe13b90a424fcbceb43193f4aa53eeb786024644b5ff2",
  "args": [],
  "numDeployments": 1,
  "solcInputHash": "c6e1b04bff395aa70a8da124433980e3",
  "bytecode": "0x60806040523480156200001157600080fd5b506200001c62000022565b6200029e565b600054610100900460ff1615808015620000435750600054600160ff909116105b8062000073575062000060306200017460201b62000a991760201c565b15801562000073575060005460ff166001145b620000dc5760405162461bcd60e51b815260206004820152602e60248201527f496e697469616c697a61626c653a20636f6e747261637420697320616c72656160448201526d191e481a5b9a5d1a585b1a5e995960921b60648201526084015b60405180910390fd5b6000805460ff19166001179055801562000100576000805461ff0019166101001790555b6200010a62000183565b6066805460019081019091556067805482019055606880549091018155600052801562000171576000805461ff0019169055604051600181527f7f26b83ff96e1f2b6a682f133852f6798a09c465da95921460cefb38474024989060200160405180910390a15b50565b6001600160a01b03163b151590565b600054610100900460ff16620001df5760405162461bcd60e51b815260206004820152602b6024820152600080516020620015f383398151915260448201526a6e697469616c697a696e6760a81b6064820152608401620000d3565b620001e9620001eb565b565b600054610100900460ff16620002475760405162461bcd60e51b815260206004820152602b6024820152600080516020620015f383398151915260448201526a6e697469616c697a696e6760a81b6064820152608401620000d3565b620001e933603380546001600160a01b038381166001600160a01b0319831681179093556040519116919082907f8be0079c531659141344cd1fd0a4f28419497f9722a3daafe3b4186f6b6457e090600090a35050565b61134580620002ae6000396000f3fe608060405234801561001057600080fd5b506004361061012c5760003560e01c806393feca60116100ad578063c67141b311610071578063c67141b314610245578063cc3a02e614610258578063e69543a014610260578063f2fde38b14610268578063f46eccc41461027b57600080fd5b806393feca60146101ef578063961b87ec146101f6578063983b2d5614610209578063beff730f1461021c578063c537a39b1461023e57600080fd5b806366ac564a116100f457806366ac564a146101a957806368ab2650146101b1578063715018a6146101c45780638129fc1c146101cc5780638da5cb5b146101d457600080fd5b806302680304146101315780630427b2631461014657806304ac75ec1461016057806313871bfc146101735780634f54ea3214610193575b600080fd5b61014461013f366004610e7f565b6102ae565b005b60015b60405160ff90911681526020015b60405180910390f35b61014461016e366004610f7c565b61030e565b610186610181366004610fd3565b610423565b6040516101579190611044565b61019b6104cf565b604051908152602001610157565b61019b6104e6565b6101866101bf366004610fd3565b610515565b610144610525565b610144610539565b6033546040516001600160a01b039091168152602001610157565b6002610149565b610186610204366004610fd3565b610666565b610144610217366004610e7f565b610676565b61022f61022a366004610fd3565b6106d2565b60405161015793929190611057565b6003610149565b61014461025336600461109a565b610963565b61019b6109ff565b61019b610a11565b610144610276366004610e7f565b610a23565b61029e610289366004610e7f565b60656020526000908152604090205460ff1681565b6040519015158152602001610157565b6102b6610aa8565b6001600160a01b038116600081815260656020908152604091829020805460ff1916905590519182527f946494d8c60533bc043c2cb72a2515efd8ef8aa39952f24cdb27d2deda784cda91015b60405180910390a150565b3360009081526065602052604090205460ff166103855760405162461bcd60e51b815260206004820152602a60248201527f4172744472697665725468657361757275733a2073656e646572206973206e6f6044820152693a10309036b4b73a32b960b11b60648201526084015b60405180910390fd5b60ff8316600114156103a25761039d82826066610b02565b505050565b60ff8316600214156103ba5761039d82826067610b02565b60ff8316600314156103d25761039d82826068610b02565b60006103e08460ff16610b46565b6040516020016103f09190611170565b6040516020818303038152906040529061041d5760405162461bcd60e51b815260040161037c9190611044565b50505050565b6066818154811061043357600080fd5b90600052602060002001600091509050805461044e906111d5565b80601f016020809104026020016040519081016040528092919081815260200182805461047a906111d5565b80156104c75780601f1061049c576101008083540402835291602001916104c7565b820191906000526020600020905b8154815290600101906020018083116104aa57829003601f168201915b505050505081565b6068546000906104e190600190611226565b905090565b6068546067546066546000926003929091610501919061123d565b61050b919061123d565b6104e19190611226565b6068818154811061043357600080fd5b61052d610aa8565b6105376000610c4c565b565b600054610100900460ff16158080156105595750600054600160ff909116105b806105735750303b158015610573575060005460ff166001145b6105d65760405162461bcd60e51b815260206004820152602e60248201527f496e697469616c697a61626c653a20636f6e747261637420697320616c72656160448201526d191e481a5b9a5d1a585b1a5e995960921b606482015260840161037c565b6000805460ff1916600117905580156105f9576000805461ff0019166101001790555b610601610c9e565b60668054600190810190915560678054820190556068805490910181556000528015610663576000805461ff0019169055604051600181527f7f26b83ff96e1f2b6a682f133852f6798a09c465da95921460cefb384740249890602001610303565b50565b6067818154811061043357600080fd5b61067e610aa8565b6001600160a01b038116600081815260656020908152604091829020805460ff1916600117905590519182527f16baa937b08d58713325f93ac58b8a9369a4359bbefb4957d6d9b402735722ab9101610303565b606080606060004244866040516020016106ff939291909283526020830191909152604082015260600190565b60408051601f19818403018152919052805160209091012060668054919250906107379060019061073261014d86611226565b610ccd565b8154811061074757610747611255565b90600052602060002001805461075c906111d5565b80601f0160208091040260200160405190810160405280929190818152602001828054610788906111d5565b80156107d55780601f106107aa576101008083540402835291602001916107d5565b820191906000526020600020905b8154815290600101906020018083116107b857829003601f168201915b5050505050935060676107f66001606780549050606f856107329190611226565b8154811061080657610806611255565b90600052602060002001805461081b906111d5565b80601f0160208091040260200160405190810160405280929190818152602001828054610847906111d5565b80156108945780601f1061086957610100808354040283529160200191610894565b820191906000526020600020905b81548152906001019060200180831161087757829003601f168201915b5050505050925060686108b66001606880549050610309856107329190611226565b815481106108c6576108c6611255565b9060005260206000200180546108db906111d5565b80601f0160208091040260200160405190810160405280929190818152602001828054610907906111d5565b80156109545780601f1061092957610100808354040283529160200191610954565b820191906000526020600020905b81548152906001019060200180831161093757829003601f168201915b50505050509150509193909250565b61096b610aa8565b8160ff166001141561098657610982816066610d52565b5050565b8160ff166002141561099d57610982816067610d52565b8160ff16600314156109b457610982816068610d52565b60006109c28360ff16610b46565b6040516020016109d29190611170565b6040516020818303038152906040529061039d5760405162461bcd60e51b815260040161037c9190611044565b6066546000906104e190600190611226565b6067546000906104e190600190611226565b610a2b610aa8565b6001600160a01b038116610a905760405162461bcd60e51b815260206004820152602660248201527f4f776e61626c653a206e6577206f776e657220697320746865207a65726f206160448201526564647265737360d01b606482015260840161037c565b61066381610c4c565b6001600160a01b03163b151590565b6033546001600160a01b031633146105375760405162461bcd60e51b815260206004820181905260248201527f4f776e61626c653a2063616c6c6572206973206e6f7420746865206f776e6572604482015260640161037c565b60005b8381101561041d57815460018101835560008381526020908190208551610b33939190910191860190610de6565b5080610b3e8161126b565b915050610b05565b606081610b6a5750506040805180820190915260018152600360fc1b602082015290565b8160005b8115610b945780610b7e8161126b565b9150610b8d9050600a8361129c565b9150610b6e565b60008167ffffffffffffffff811115610baf57610baf610ec5565b6040519080825280601f01601f191660200182016040528015610bd9576020820181803683370190505b5090505b8415610c4457610bee600183611226565b9150610bfb600a866112b0565b610c0690603061123d565b60f81b818381518110610c1b57610c1b611255565b60200101906001600160f81b031916908160001a905350610c3d600a8661129c565b9450610bdd565b949350505050565b603380546001600160a01b038381166001600160a01b0319831681179093556040519116919082907f8be0079c531659141344cd1fd0a4f28419497f9722a3daafe3b4186f6b6457e090600090a35050565b600054610100900460ff16610cc55760405162461bcd60e51b815260040161037c906112c4565b610537610db6565b604080514260208083018290524483850181905260608085018790528551808603909101815260808501865280519083012060a085019390935260c084015260e08084018390528451808503909101815261010090930190935281519190920120600091908590610d3f9086906112b0565b610d49919061123d565b95945050505050565b60005b825181101561039d5781838281518110610d7157610d71611255565b60209081029190910181015182546001810184556000938452928290208151610da39491909101929190910190610de6565b5080610dae8161126b565b915050610d55565b600054610100900460ff16610ddd5760405162461bcd60e51b815260040161037c906112c4565b61053733610c4c565b828054610df2906111d5565b90600052602060002090601f016020900481019282610e145760008555610e5a565b82601f10610e2d57805160ff1916838001178555610e5a565b82800160010185558215610e5a579182015b82811115610e5a578251825591602001919060010190610e3f565b50610e66929150610e6a565b5090565b5b80821115610e665760008155600101610e6b565b600060208284031215610e9157600080fd5b81356001600160a01b0381168114610ea857600080fd5b9392505050565b803560ff81168114610ec057600080fd5b919050565b634e487b7160e01b600052604160045260246000fd5b604051601f8201601f1916810167ffffffffffffffff81118282101715610f0457610f04610ec5565b604052919050565b600082601f830112610f1d57600080fd5b813567ffffffffffffffff811115610f3757610f37610ec5565b610f4a601f8201601f1916602001610edb565b818152846020838601011115610f5f57600080fd5b816020850160208301376000918101602001919091529392505050565b600080600060608486031215610f9157600080fd5b610f9a84610eaf565b925060208401359150604084013567ffffffffffffffff811115610fbd57600080fd5b610fc986828701610f0c565b9150509250925092565b600060208284031215610fe557600080fd5b5035919050565b60005b83811015611007578181015183820152602001610fef565b8381111561041d5750506000910152565b60008151808452611030816020860160208601610fec565b601f01601f19169290920160200192915050565b602081526000610ea86020830184611018565b60608152600061106a6060830186611018565b828103602084015261107c8186611018565b905082810360408401526110908185611018565b9695505050505050565b600080604083850312156110ad57600080fd5b6110b683610eaf565b915060208084013567ffffffffffffffff808211156110d457600080fd5b818601915086601f8301126110e857600080fd5b8135818111156110fa576110fa610ec5565b8060051b611109858201610edb565b918252838101850191858101908a84111561112357600080fd5b86860192505b8383101561115f578235858111156111415760008081fd5b61114f8c89838a0101610f0c565b8352509186019190860190611129565b809750505050505050509250929050565b7f4172744472697665725468657361757275733a205468657265206973206e6f2081526a737563682074797065205b60a81b6020820152600082516111bc81602b850160208701610fec565b61205d60f01b602b939091019283015250602d01919050565b600181811c908216806111e957607f821691505b6020821081141561120a57634e487b7160e01b600052602260045260246000fd5b50919050565b634e487b7160e01b600052601160045260246000fd5b60008282101561123857611238611210565b500390565b6000821982111561125057611250611210565b500190565b634e487b7160e01b600052603260045260246000fd5b600060001982141561127f5761127f611210565b5060010190565b634e487b7160e01b600052601260045260246000fd5b6000826112ab576112ab611286565b500490565b6000826112bf576112bf611286565b500690565b6020808252602b908201527f496e697469616c697a61626c653a20636f6e7472616374206973206e6f74206960408201526a6e697469616c697a696e6760a81b60608201526080019056fea2646970667358221220d2664b48afd6bb1f9a9438e344b63f63b8b53a826481391a5862a738b66f1cd664736f6c63430008090033496e697469616c697a61626c653a20636f6e7472616374206973206e6f742069",
  "devdoc": {
    "kind": "dev",
    "methods": {
      "owner()": {
        "details": "Returns the address of the current owner."
      },
      "renounceOwnership()": {
        "details": "Leaves the contract without owner. It will not be possible to call `onlyOwner` functions anymore. Can only be called by the current owner. NOTE: Renouncing ownership will leave the contract without an owner, thereby removing any functionality that is only available to the owner."
      },
      "transferOwnership(address)": {
        "details": "Transfers ownership of the contract to a new account (`newOwner`). Can only be called by the current owner."
      }
    },
    "version": 1
  },
  "userdoc": {
    "kind": "user",
    "methods": {},
    "version": 1
  },
  "storageLayout": {
    "storage": [
      {
        "astId": 138,
        "contract": "contracts/ArtDriverThesaurus.sol:ArtDriverThesaurus",
        "label": "_initialized",
        "offset": 0,
        "slot": "0",
        "type": "t_uint8"
      },
      {
        "astId": 141,
        "contract": "contracts/ArtDriverThesaurus.sol:ArtDriverThesaurus",
        "label": "_initializing",
        "offset": 1,
        "slot": "0",
        "type": "t_bool"
      },
      {
        "astId": 2008,
        "contract": "contracts/ArtDriverThesaurus.sol:ArtDriverThesaurus",
        "label": "__gap",
        "offset": 0,
        "slot": "1",
        "type": "t_array(t_uint256)50_storage"
      },
      {
        "astId": 10,
        "contract": "contracts/ArtDriverThesaurus.sol:ArtDriverThesaurus",
        "label": "_owner",
        "offset": 0,
        "slot": "51",
        "type": "t_address"
      },
      {
        "astId": 130,
        "contract": "contracts/ArtDriverThesaurus.sol:ArtDriverThesaurus",
        "label": "__gap",
        "offset": 0,
        "slot": "52",
        "type": "t_array(t_uint256)49_storage"
      },
      {
        "astId": 5408,
        "contract": "contracts/ArtDriverThesaurus.sol:ArtDriverThesaurus",
        "label": "minters",
        "offset": 0,
        "slot": "101",
        "type": "t_mapping(t_address,t_bool)"
      },
      {
        "astId": 5411,
        "contract": "contracts/ArtDriverThesaurus.sol:ArtDriverThesaurus",
        "label": "verbs",
        "offset": 0,
        "slot": "102",
        "type": "t_array(t_string_storage)dyn_storage"
      },
      {
        "astId": 5414,
        "contract": "contracts/ArtDriverThesaurus.sol:ArtDriverThesaurus",
        "label": "adjs",
        "offset": 0,
        "slot": "103",
        "type": "t_array(t_string_storage)dyn_storage"
      },
      {
        "astId": 5417,
        "contract": "contracts/ArtDriverThesaurus.sol:ArtDriverThesaurus",
        "label": "nouns",
        "offset": 0,
        "slot": "104",
        "type": "t_array(t_string_storage)dyn_storage"
      }
    ],
    "types": {
      "t_address": {
        "encoding": "inplace",
        "label": "address",
        "numberOfBytes": "20"
      },
      "t_array(t_string_storage)dyn_storage": {
        "base": "t_string_storage",
        "encoding": "dynamic_array",
        "label": "string[]",
        "numberOfBytes": "32"
      },
      "t_array(t_uint256)49_storage": {
        "base": "t_uint256",
        "encoding": "inplace",
        "label": "uint256[49]",
        "numberOfBytes": "1568"
      },
      "t_array(t_uint256)50_storage": {
        "base": "t_uint256",
        "encoding": "inplace",
        "label": "uint256[50]",
        "numberOfBytes": "1600"
      },
      "t_bool": {
        "encoding": "inplace",
        "label": "bool",
        "numberOfBytes": "1"
      },
      "t_mapping(t_address,t_bool)": {
        "encoding": "mapping",
        "key": "t_address",
        "label": "mapping(address => bool)",
        "numberOfBytes": "32",
        "value": "t_bool"
      },
      "t_string_storage": {
        "encoding": "bytes",
        "label": "string",
        "numberOfBytes": "32"
      },
      "t_uint256": {
        "encoding": "inplace",
        "label": "uint256",
        "numberOfBytes": "32"
      },
      "t_uint8": {
        "encoding": "inplace",
        "label": "uint8",
        "numberOfBytes": "1"
      }
    }
  }
}