{
  "address": "0x44cDF64602520e08A0D07495447B7e91b7a9E14E",
  "abi": [
    {
      "inputs": [],
      "stateMutability": "nonpayable",
      "type": "constructor"
    },
    {
      "anonymous": false,
      "inputs": [
        {
          "indexed": false,
          "internalType": "address",
          "name": "minter",
          "type": "address"
        }
      ],
      "name": "AddMinter",
      "type": "event"
    },
    {
      "anonymous": false,
      "inputs": [
        {
          "indexed": false,
          "internalType": "uint8",
          "name": "version",
          "type": "uint8"
        }
      ],
      "name": "Initialized",
      "type": "event"
    },
    {
      "anonymous": false,
      "inputs": [
        {
          "indexed": true,
          "internalType": "address",
          "name": "previousOwner",
          "type": "address"
        },
        {
          "indexed": true,
          "internalType": "address",
          "name": "newOwner",
          "type": "address"
        }
      ],
      "name": "OwnershipTransferred",
      "type": "event"
    },
    {
      "anonymous": false,
      "inputs": [
        {
          "indexed": false,
          "internalType": "address",
          "name": "minter",
          "type": "address"
        }
      ],
      "name": "SubMinter",
      "type": "event"
    },
    {
      "inputs": [],
      "name": "ADJ_TYPE",
      "outputs": [
        {
          "internalType": "uint8",
          "name": "",
          "type": "uint8"
        }
      ],
      "stateMutability": "pure",
      "type": "function"
    },
    {
      "inputs": [],
      "name": "NOUN_TYPE",
      "outputs": [
        {
          "internalType": "uint8",
          "name": "",
          "type": "uint8"
        }
      ],
      "stateMutability": "pure",
      "type": "function"
    },
    {
      "inputs": [],
      "name": "VERB_TYPE",
      "outputs": [
        {
          "internalType": "uint8",
          "name": "",
          "type": "uint8"
        }
      ],
      "stateMutability": "pure",
      "type": "function"
    },
    {
      "inputs": [
        {
          "internalType": "address",
          "name": "_minter",
          "type": "address"
        }
      ],
      "name": "addMinter",
      "outputs": [],
      "stateMutability": "nonpayable",
      "type": "function"
    },
    {
      "inputs": [
        {
          "internalType": "uint8",
          "name": "_type",
          "type": "uint8"
        },
        {
          "internalType": "uint256",
          "name": "_weight",
          "type": "uint256"
        },
        {
          "internalType": "string",
          "name": "_word",
          "type": "string"
        }
      ],
      "name": "addWord",
      "outputs": [],
      "stateMutability": "nonpayable",
      "type": "function"
    },
    {
      "inputs": [
        {
          "internalType": "uint8",
          "name": "_type",
          "type": "uint8"
        },
        {
          "internalType": "string[]",
          "name": "_words",
          "type": "string[]"
        }
      ],
      "name": "addWords",
      "outputs": [],
      "stateMutability": "nonpayable",
      "type": "function"
    },
    {
      "inputs": [
        {
          "internalType": "uint256",
          "name": "",
          "type": "uint256"
        }
      ],
      "name": "adjs",
      "outputs": [
        {
          "internalType": "string",
          "name": "",
          "type": "string"
        }
      ],
      "stateMutability": "view",
      "type": "function"
    },
    {
      "inputs": [],
      "name": "adjsAmount",
      "outputs": [
        {
          "internalType": "uint256",
          "name": "",
          "type": "uint256"
        }
      ],
      "stateMutability": "view",
      "type": "function"
    },
    {
      "inputs": [],
      "name": "initialize",
      "outputs": [],
      "stateMutability": "nonpayable",
      "type": "function"
    },
    {
      "inputs": [
        {
          "internalType": "address",
          "name": "",
          "type": "address"
        }
      ],
      "name": "minters",
      "outputs": [
        {
          "internalType": "bool",
          "name": "",
          "type": "bool"
        }
      ],
      "stateMutability": "view",
      "type": "function"
    },
    {
      "inputs": [
        {
          "internalType": "uint256",
          "name": "",
          "type": "uint256"
        }
      ],
      "name": "nouns",
      "outputs": [
        {
          "internalType": "string",
          "name": "",
          "type": "string"
        }
      ],
      "stateMutability": "view",
      "type": "function"
    },
    {
      "inputs": [],
      "name": "nounsAmount",
      "outputs": [
        {
          "internalType": "uint256",
          "name": "",
          "type": "uint256"
        }
      ],
      "stateMutability": "view",
      "type": "function"
    },
    {
      "inputs": [],
      "name": "owner",
      "outputs": [
        {
          "internalType": "address",
          "name": "",
          "type": "address"
        }
      ],
      "stateMutability": "view",
      "type": "function"
    },
    {
      "inputs": [],
      "name": "randomWords",
      "outputs": [
        {
          "internalType": "string",
          "name": "_verb",
          "type": "string"
        },
        {
          "internalType": "string",
          "name": "_adj",
          "type": "string"
        },
        {
          "internalType": "string",
          "name": "_noun",
          "type": "string"
        }
      ],
      "stateMutability": "view",
      "type": "function"
    },
    {
      "inputs": [],
      "name": "renounceOwnership",
      "outputs": [],
      "stateMutability": "nonpayable",
      "type": "function"
    },
    {
      "inputs": [
        {
          "internalType": "address",
          "name": "_minter",
          "type": "address"
        }
      ],
      "name": "subMinter",
      "outputs": [],
      "stateMutability": "nonpayable",
      "type": "function"
    },
    {
      "inputs": [],
      "name": "totalWordsAmount",
      "outputs": [
        {
          "internalType": "uint256",
          "name": "",
          "type": "uint256"
        }
      ],
      "stateMutability": "view",
      "type": "function"
    },
    {
      "inputs": [
        {
          "internalType": "address",
          "name": "newOwner",
          "type": "address"
        }
      ],
      "name": "transferOwnership",
      "outputs": [],
      "stateMutability": "nonpayable",
      "type": "function"
    },
    {
      "inputs": [
        {
          "internalType": "uint256",
          "name": "",
          "type": "uint256"
        }
      ],
      "name": "verbs",
      "outputs": [
        {
          "internalType": "string",
          "name": "",
          "type": "string"
        }
      ],
      "stateMutability": "view",
      "type": "function"
    },
    {
      "inputs": [],
      "name": "verbsAmount",
      "outputs": [
        {
          "internalType": "uint256",
          "name": "",
          "type": "uint256"
        }
      ],
      "stateMutability": "view",
      "type": "function"
    }
  ],
  "transactionHash": "0x5970a91bf4a608110c447b304e342c39c5a0896dbb7b9ad856e32adca594e000",
  "args": [],
  "numDeployments": 1,
  "solcInputHash": "a0096befa68c9d0ce4c6842cc314cfa3",
  "bytecode": "0x60806040523480156200001157600080fd5b506200001c62000022565b620002f9565b6000620000306001620000bd565b9050801562000049576000805461ff0019166101001790555b62000053620001cf565b60668054600190810190915560678054820190556068805490910181556000528015620000ba576000805461ff0019169055604051600181527f7f26b83ff96e1f2b6a682f133852f6798a09c465da95921460cefb38474024989060200160405180910390a15b50565b60008054610100900460ff161562000156578160ff166001148015620000f65750620000f4306200023760201b62000a941760201c565b155b6200014e5760405162461bcd60e51b815260206004820152602e6024820152600080516020620016fa83398151915260448201526d191e481a5b9a5d1a585b1a5e995960921b60648201526084015b60405180910390fd5b506000919050565b60005460ff808416911610620001b55760405162461bcd60e51b815260206004820152602e6024820152600080516020620016fa83398151915260448201526d191e481a5b9a5d1a585b1a5e995960921b606482015260840162000145565b506000805460ff191660ff92909216919091179055600190565b600054610100900460ff166200022b5760405162461bcd60e51b815260206004820152602b60248201526000805160206200171a83398151915260448201526a6e697469616c697a696e6760a81b606482015260840162000145565b6200023562000246565b565b6001600160a01b03163b151590565b600054610100900460ff16620002a25760405162461bcd60e51b815260206004820152602b60248201526000805160206200171a83398151915260448201526a6e697469616c697a696e6760a81b606482015260840162000145565b6200023533603380546001600160a01b038381166001600160a01b0319831681179093556040519116919082907f8be0079c531659141344cd1fd0a4f28419497f9722a3daafe3b4186f6b6457e090600090a35050565b6113f180620003096000396000f3fe608060405234801561001057600080fd5b506004361061012c5760003560e01c80638da5cb5b116100ad578063c67141b311610071578063c67141b31461023a578063cc3a02e61461024d578063e69543a014610255578063f2fde38b1461025d578063f46eccc41461027057600080fd5b80638da5cb5b146101eb57806393feca6014610206578063961b87ec1461020d578063983b2d5614610220578063c537a39b1461023357600080fd5b806366ac564a116100f457806366ac564a146101a957806368ab2650146101b15780636a8bb7cc146101c4578063715018a6146101db5780638129fc1c146101e357600080fd5b806302680304146101315780630427b2631461014657806304ac75ec1461016057806313871bfc146101735780634f54ea3214610193575b600080fd5b61014461013f366004610ead565b6102a3565b005b60015b60405160ff90911681526020015b60405180910390f35b61014461016e366004610fa5565b61032e565b610186610181366004610ffc565b61043e565b604051610157919061106d565b61019b6104ea565b604051908152602001610157565b61019b610501565b6101866101bf366004610ffc565b610530565b6101cc610540565b60405161015793929190611080565b6101446107c5565b6101446107fb565b6033546040516001600160a01b039091168152602001610157565b6002610149565b61018661021b366004610ffc565b61088c565b61014461022e366004610ead565b61089c565b6003610149565b6101446102483660046110c3565b61091a565b61019b6109d8565b61019b6109ea565b61014461026b366004610ead565b6109fc565b61029361027e366004610ead565b60656020526000908152604090205460ff1681565b6040519015158152602001610157565b6033546001600160a01b031633146102d65760405162461bcd60e51b81526004016102cd90611199565b60405180910390fd5b6001600160a01b038116600081815260656020908152604091829020805460ff1916905590519182527f946494d8c60533bc043c2cb72a2515efd8ef8aa39952f24cdb27d2deda784cda91015b60405180910390a150565b3360009081526065602052604090205460ff166103a05760405162461bcd60e51b815260206004820152602a60248201527f4172744472697665725468657361757275733a2073656e646572206973206e6f6044820152693a10309036b4b73a32b960b11b60648201526084016102cd565b60ff8316600114156103bd576103b882826066610aa3565b505050565b60ff8316600214156103d5576103b882826067610aa3565b60ff8316600314156103ed576103b882826068610aa3565b60006103fb8460ff16610ae7565b60405160200161040b91906111ce565b604051602081830303815290604052906104385760405162461bcd60e51b81526004016102cd919061106d565b50505050565b6066818154811061044e57600080fd5b90600052602060002001600091509050805461046990611233565b80601f016020809104026020016040519081016040528092919081815260200182805461049590611233565b80156104e25780601f106104b7576101008083540402835291602001916104e2565b820191906000526020600020905b8154815290600101906020018083116104c557829003601f168201915b505050505081565b6068546000906104fc90600190611284565b905090565b606854606754606654600092600392909161051c919061129b565b610526919061129b565b6104fc9190611284565b6068818154811061044e57600080fd5b606080606060004244604051602001610563929190918252602082015260400190565b60408051601f198184030181529190528051602090910120606680549192509061059b9060019061059661014d86611284565b610bed565b815481106105ab576105ab6112b3565b9060005260206000200180546105c090611233565b80601f01602080910402602001604051908101604052809291908181526020018280546105ec90611233565b80156106395780601f1061060e57610100808354040283529160200191610639565b820191906000526020600020905b81548152906001019060200180831161061c57829003601f168201915b50505050509350606761065a6001606780549050606f856105969190611284565b8154811061066a5761066a6112b3565b90600052602060002001805461067f90611233565b80601f01602080910402602001604051908101604052809291908181526020018280546106ab90611233565b80156106f85780601f106106cd576101008083540402835291602001916106f8565b820191906000526020600020905b8154815290600101906020018083116106db57829003601f168201915b50505050509250606861071a6001606880549050610309856105969190611284565b8154811061072a5761072a6112b3565b90600052602060002001805461073f90611233565b80601f016020809104026020016040519081016040528092919081815260200182805461076b90611233565b80156107b85780601f1061078d576101008083540402835291602001916107b8565b820191906000526020600020905b81548152906001019060200180831161079b57829003601f168201915b5050505050915050909192565b6033546001600160a01b031633146107ef5760405162461bcd60e51b81526004016102cd90611199565b6107f96000610c72565b565b60006108076001610cc4565b9050801561081f576000805461ff0019166101001790555b610827610d51565b60668054600190810190915560678054820190556068805490910181556000528015610889576000805461ff0019169055604051600181527f7f26b83ff96e1f2b6a682f133852f6798a09c465da95921460cefb384740249890602001610323565b50565b6067818154811061044e57600080fd5b6033546001600160a01b031633146108c65760405162461bcd60e51b81526004016102cd90611199565b6001600160a01b038116600081815260656020908152604091829020805460ff1916600117905590519182527f16baa937b08d58713325f93ac58b8a9369a4359bbefb4957d6d9b402735722ab9101610323565b6033546001600160a01b031633146109445760405162461bcd60e51b81526004016102cd90611199565b8160ff166001141561095f5761095b816066610d80565b5050565b8160ff16600214156109765761095b816067610d80565b8160ff166003141561098d5761095b816068610d80565b600061099b8360ff16610ae7565b6040516020016109ab91906111ce565b604051602081830303815290604052906103b85760405162461bcd60e51b81526004016102cd919061106d565b6066546000906104fc90600190611284565b6067546000906104fc90600190611284565b6033546001600160a01b03163314610a265760405162461bcd60e51b81526004016102cd90611199565b6001600160a01b038116610a8b5760405162461bcd60e51b815260206004820152602660248201527f4f776e61626c653a206e6577206f776e657220697320746865207a65726f206160448201526564647265737360d01b60648201526084016102cd565b61088981610c72565b6001600160a01b03163b151590565b60005b8381101561043857815460018101835560008381526020908190208551610ad4939190910191860190610e14565b5080610adf816112c9565b915050610aa6565b606081610b0b5750506040805180820190915260018152600360fc1b602082015290565b8160005b8115610b355780610b1f816112c9565b9150610b2e9050600a836112fa565b9150610b0f565b60008167ffffffffffffffff811115610b5057610b50610eee565b6040519080825280601f01601f191660200182016040528015610b7a576020820181803683370190505b5090505b8415610be557610b8f600183611284565b9150610b9c600a8661130e565b610ba790603061129b565b60f81b818381518110610bbc57610bbc6112b3565b60200101906001600160f81b031916908160001a905350610bde600a866112fa565b9450610b7e565b949350505050565b604080514260208083018290524483850181905260608085018790528551808603909101815260808501865280519083012060a085019390935260c084015260e08084018390528451808503909101815261010090930190935281519190920120600091908590610c5f90869061130e565b610c69919061129b565b95945050505050565b603380546001600160a01b038381166001600160a01b0319831681179093556040519116919082907f8be0079c531659141344cd1fd0a4f28419497f9722a3daafe3b4186f6b6457e090600090a35050565b60008054610100900460ff1615610d0b578160ff166001148015610ce75750303b155b610d035760405162461bcd60e51b81526004016102cd90611322565b506000919050565b60005460ff808416911610610d325760405162461bcd60e51b81526004016102cd90611322565b506000805460ff191660ff92909216919091179055600190565b919050565b600054610100900460ff16610d785760405162461bcd60e51b81526004016102cd90611370565b6107f9610de4565b60005b82518110156103b85781838281518110610d9f57610d9f6112b3565b60209081029190910181015182546001810184556000938452928290208151610dd19491909101929190910190610e14565b5080610ddc816112c9565b915050610d83565b600054610100900460ff16610e0b5760405162461bcd60e51b81526004016102cd90611370565b6107f933610c72565b828054610e2090611233565b90600052602060002090601f016020900481019282610e425760008555610e88565b82601f10610e5b57805160ff1916838001178555610e88565b82800160010185558215610e88579182015b82811115610e88578251825591602001919060010190610e6d565b50610e94929150610e98565b5090565b5b80821115610e945760008155600101610e99565b600060208284031215610ebf57600080fd5b81356001600160a01b0381168114610ed657600080fd5b9392505050565b803560ff81168114610d4c57600080fd5b634e487b7160e01b600052604160045260246000fd5b604051601f8201601f1916810167ffffffffffffffff81118282101715610f2d57610f2d610eee565b604052919050565b600082601f830112610f4657600080fd5b813567ffffffffffffffff811115610f6057610f60610eee565b610f73601f8201601f1916602001610f04565b818152846020838601011115610f8857600080fd5b816020850160208301376000918101602001919091529392505050565b600080600060608486031215610fba57600080fd5b610fc384610edd565b925060208401359150604084013567ffffffffffffffff811115610fe657600080fd5b610ff286828701610f35565b9150509250925092565b60006020828403121561100e57600080fd5b5035919050565b60005b83811015611030578181015183820152602001611018565b838111156104385750506000910152565b60008151808452611059816020860160208601611015565b601f01601f19169290920160200192915050565b602081526000610ed66020830184611041565b6060815260006110936060830186611041565b82810360208401526110a58186611041565b905082810360408401526110b98185611041565b9695505050505050565b600080604083850312156110d657600080fd5b6110df83610edd565b915060208084013567ffffffffffffffff808211156110fd57600080fd5b818601915086601f83011261111157600080fd5b81358181111561112357611123610eee565b8060051b611132858201610f04565b918252838101850191858101908a84111561114c57600080fd5b86860192505b838310156111885782358581111561116a5760008081fd5b6111788c89838a0101610f35565b8352509186019190860190611152565b809750505050505050509250929050565b6020808252818101527f4f776e61626c653a2063616c6c6572206973206e6f7420746865206f776e6572604082015260600190565b7f4172744472697665725468657361757275733a205468657265206973206e6f2081526a737563682074797065205b60a81b60208201526000825161121a81602b850160208701611015565b61205d60f01b602b939091019283015250602d01919050565b600181811c9082168061124757607f821691505b6020821081141561126857634e487b7160e01b600052602260045260246000fd5b50919050565b634e487b7160e01b600052601160045260246000fd5b6000828210156112965761129661126e565b500390565b600082198211156112ae576112ae61126e565b500190565b634e487b7160e01b600052603260045260246000fd5b60006000198214156112dd576112dd61126e565b5060010190565b634e487b7160e01b600052601260045260246000fd5b600082611309576113096112e4565b500490565b60008261131d5761131d6112e4565b500690565b6020808252602e908201527f496e697469616c697a61626c653a20636f6e747261637420697320616c72656160408201526d191e481a5b9a5d1a585b1a5e995960921b606082015260800190565b6020808252602b908201527f496e697469616c697a61626c653a20636f6e7472616374206973206e6f74206960408201526a6e697469616c697a696e6760a81b60608201526080019056fea2646970667358221220e5c92f8f3d77cc63e5b28f6b942d98fbd5b387ea59f54d195108479e712423bc64736f6c63430008090033496e697469616c697a61626c653a20636f6e747261637420697320616c726561496e697469616c697a61626c653a20636f6e7472616374206973206e6f742069",
  "devdoc": {
    "kind": "dev",
    "methods": {
      "owner()": {
        "details": "Returns the address of the current owner."
      },
      "renounceOwnership()": {
        "details": "Leaves the contract without owner. It will not be possible to call `onlyOwner` functions anymore. Can only be called by the current owner. NOTE: Renouncing ownership will leave the contract without an owner, thereby removing any functionality that is only available to the owner."
      },
      "transferOwnership(address)": {
        "details": "Transfers ownership of the contract to a new account (`newOwner`). Can only be called by the current owner."
      }
    },
    "version": 1
  },
  "userdoc": {
    "kind": "user",
    "methods": {},
    "version": 1
  },
  "storageLayout": {
    "storage": [
      {
        "astId": 130,
        "contract": "contracts/ArtDriveThesaurus.sol:ArtDriveThesaurus",
        "label": "_initialized",
        "offset": 0,
        "slot": "0",
        "type": "t_uint8"
      },
      {
        "astId": 133,
        "contract": "contracts/ArtDriveThesaurus.sol:ArtDriveThesaurus",
        "label": "_initializing",
        "offset": 1,
        "slot": "0",
        "type": "t_bool"
      },
      {
        "astId": 1990,
        "contract": "contracts/ArtDriveThesaurus.sol:ArtDriveThesaurus",
        "label": "__gap",
        "offset": 0,
        "slot": "1",
        "type": "t_array(t_uint256)50_storage"
      },
      {
        "astId": 10,
        "contract": "contracts/ArtDriveThesaurus.sol:ArtDriveThesaurus",
        "label": "_owner",
        "offset": 0,
        "slot": "51",
        "type": "t_address"
      },
      {
        "astId": 122,
        "contract": "contracts/ArtDriveThesaurus.sol:ArtDriveThesaurus",
        "label": "__gap",
        "offset": 0,
        "slot": "52",
        "type": "t_array(t_uint256)49_storage"
      },
      {
        "astId": 3751,
        "contract": "contracts/ArtDriveThesaurus.sol:ArtDriveThesaurus",
        "label": "minters",
        "offset": 0,
        "slot": "101",
        "type": "t_mapping(t_address,t_bool)"
      },
      {
        "astId": 3754,
        "contract": "contracts/ArtDriveThesaurus.sol:ArtDriveThesaurus",
        "label": "verbs",
        "offset": 0,
        "slot": "102",
        "type": "t_array(t_string_storage)dyn_storage"
      },
      {
        "astId": 3757,
        "contract": "contracts/ArtDriveThesaurus.sol:ArtDriveThesaurus",
        "label": "adjs",
        "offset": 0,
        "slot": "103",
        "type": "t_array(t_string_storage)dyn_storage"
      },
      {
        "astId": 3760,
        "contract": "contracts/ArtDriveThesaurus.sol:ArtDriveThesaurus",
        "label": "nouns",
        "offset": 0,
        "slot": "104",
        "type": "t_array(t_string_storage)dyn_storage"
      }
    ],
    "types": {
      "t_address": {
        "encoding": "inplace",
        "label": "address",
        "numberOfBytes": "20"
      },
      "t_array(t_string_storage)dyn_storage": {
        "base": "t_string_storage",
        "encoding": "dynamic_array",
        "label": "string[]",
        "numberOfBytes": "32"
      },
      "t_array(t_uint256)49_storage": {
        "base": "t_uint256",
        "encoding": "inplace",
        "label": "uint256[49]",
        "numberOfBytes": "1568"
      },
      "t_array(t_uint256)50_storage": {
        "base": "t_uint256",
        "encoding": "inplace",
        "label": "uint256[50]",
        "numberOfBytes": "1600"
      },
      "t_bool": {
        "encoding": "inplace",
        "label": "bool",
        "numberOfBytes": "1"
      },
      "t_mapping(t_address,t_bool)": {
        "encoding": "mapping",
        "key": "t_address",
        "label": "mapping(address => bool)",
        "numberOfBytes": "32",
        "value": "t_bool"
      },
      "t_string_storage": {
        "encoding": "bytes",
        "label": "string",
        "numberOfBytes": "32"
      },
      "t_uint256": {
        "encoding": "inplace",
        "label": "uint256",
        "numberOfBytes": "32"
      },
      "t_uint8": {
        "encoding": "inplace",
        "label": "uint8",
        "numberOfBytes": "1"
      }
    }
  }
}