{
  "address": "0x5eC2A0a17E7f212c021be1F9904eBebAFE7B0d98",
  "abi": [
    {
      "inputs": [
        {
          "internalType": "string",
          "name": "_name",
          "type": "string"
        },
        {
          "internalType": "string",
          "name": "_symbol",
          "type": "string"
        },
        {
          "internalType": "string",
          "name": "_baseURI",
          "type": "string"
        },
        {
          "internalType": "address",
          "name": "_thesaurus",
          "type": "address"
        },
        {
          "internalType": "uint256",
          "name": "_price",
          "type": "uint256"
        },
        {
          "internalType": "uint256",
          "name": "_orangeAmount",
          "type": "uint256"
        },
        {
          "internalType": "uint256",
          "name": "_blueAmount",
          "type": "uint256"
        },
        {
          "internalType": "uint256",
          "name": "_greyAmount",
          "type": "uint256"
        },
        {
          "internalType": "uint256",
          "name": "_defAllowedMintAmount",
          "type": "uint256"
        },
        {
          "internalType": "bytes32",
          "name": "_merkleRoot",
          "type": "bytes32"
        }
      ],
      "stateMutability": "nonpayable",
      "type": "constructor"
    },
    {
      "anonymous": false,
      "inputs": [
        {
          "indexed": false,
          "internalType": "uint256",
          "name": "tokenId",
          "type": "uint256"
        },
        {
          "indexed": false,
          "internalType": "uint256",
          "name": "weight",
          "type": "uint256"
        },
        {
          "indexed": false,
          "internalType": "string",
          "name": "word",
          "type": "string"
        }
      ],
      "name": "AddWord",
      "type": "event"
    },
    {
      "anonymous": false,
      "inputs": [
        {
          "indexed": true,
          "internalType": "address",
          "name": "owner",
          "type": "address"
        },
        {
          "indexed": true,
          "internalType": "address",
          "name": "approved",
          "type": "address"
        },
        {
          "indexed": true,
          "internalType": "uint256",
          "name": "tokenId",
          "type": "uint256"
        }
      ],
      "name": "Approval",
      "type": "event"
    },
    {
      "anonymous": false,
      "inputs": [
        {
          "indexed": true,
          "internalType": "address",
          "name": "owner",
          "type": "address"
        },
        {
          "indexed": true,
          "internalType": "address",
          "name": "operator",
          "type": "address"
        },
        {
          "indexed": false,
          "internalType": "bool",
          "name": "approved",
          "type": "bool"
        }
      ],
      "name": "ApprovalForAll",
      "type": "event"
    },
    {
      "anonymous": false,
      "inputs": [
        {
          "indexed": false,
          "internalType": "address",
          "name": "_recipient",
          "type": "address"
        },
        {
          "indexed": false,
          "internalType": "uint256",
          "name": "_amount",
          "type": "uint256"
        }
      ],
      "name": "ClaimMintAmount",
      "type": "event"
    },
    {
      "anonymous": false,
      "inputs": [
        {
          "indexed": false,
          "internalType": "uint8",
          "name": "version",
          "type": "uint8"
        }
      ],
      "name": "Initialized",
      "type": "event"
    },
    {
      "anonymous": false,
      "inputs": [
        {
          "indexed": false,
          "internalType": "uint256",
          "name": "tokenId",
          "type": "uint256"
        }
      ],
      "name": "Locked",
      "type": "event"
    },
    {
      "anonymous": false,
      "inputs": [
        {
          "indexed": false,
          "internalType": "uint256",
          "name": "tokenId",
          "type": "uint256"
        },
        {
          "indexed": false,
          "internalType": "address",
          "name": "player",
          "type": "address"
        },
        {
          "indexed": false,
          "internalType": "string",
          "name": "verb",
          "type": "string"
        },
        {
          "indexed": false,
          "internalType": "string",
          "name": "adj",
          "type": "string"
        },
        {
          "indexed": false,
          "internalType": "string",
          "name": "noun",
          "type": "string"
        },
        {
          "indexed": false,
          "internalType": "uint8",
          "name": "types",
          "type": "uint8"
        }
      ],
      "name": "Mint",
      "type": "event"
    },
    {
      "anonymous": false,
      "inputs": [
        {
          "indexed": false,
          "internalType": "uint256",
          "name": "_old",
          "type": "uint256"
        },
        {
          "indexed": false,
          "internalType": "uint256",
          "name": "_new",
          "type": "uint256"
        }
      ],
      "name": "NewDefAllowedMintAmount",
      "type": "event"
    },
    {
      "anonymous": false,
      "inputs": [
        {
          "indexed": false,
          "internalType": "uint256",
          "name": "_old",
          "type": "uint256"
        },
        {
          "indexed": false,
          "internalType": "uint256",
          "name": "_new",
          "type": "uint256"
        }
      ],
      "name": "NewPrice",
      "type": "event"
    },
    {
      "anonymous": false,
      "inputs": [
        {
          "indexed": true,
          "internalType": "address",
          "name": "previousOwner",
          "type": "address"
        },
        {
          "indexed": true,
          "internalType": "address",
          "name": "newOwner",
          "type": "address"
        }
      ],
      "name": "OwnershipTransferred",
      "type": "event"
    },
    {
      "anonymous": false,
      "inputs": [
        {
          "indexed": false,
          "internalType": "uint256",
          "name": "tokenId",
          "type": "uint256"
        },
        {
          "indexed": false,
          "internalType": "string",
          "name": "verb",
          "type": "string"
        },
        {
          "indexed": false,
          "internalType": "string",
          "name": "adj",
          "type": "string"
        },
        {
          "indexed": false,
          "internalType": "string",
          "name": "noun",
          "type": "string"
        }
      ],
      "name": "RefreshWords",
      "type": "event"
    },
    {
      "anonymous": false,
      "inputs": [
        {
          "indexed": true,
          "internalType": "address",
          "name": "from",
          "type": "address"
        },
        {
          "indexed": true,
          "internalType": "address",
          "name": "to",
          "type": "address"
        },
        {
          "indexed": true,
          "internalType": "uint256",
          "name": "tokenId",
          "type": "uint256"
        }
      ],
      "name": "Transfer",
      "type": "event"
    },
    {
      "anonymous": false,
      "inputs": [
        {
          "indexed": false,
          "internalType": "address",
          "name": "_recipient",
          "type": "address"
        },
        {
          "indexed": false,
          "internalType": "uint256",
          "name": "_amount",
          "type": "uint256"
        }
      ],
      "name": "TransferEth",
      "type": "event"
    },
    {
      "stateMutability": "payable",
      "type": "fallback"
    },
    {
      "inputs": [
        {
          "internalType": "uint256",
          "name": "_tokenId",
          "type": "uint256"
        },
        {
          "internalType": "uint8",
          "name": "_type",
          "type": "uint8"
        },
        {
          "internalType": "string",
          "name": "_word",
          "type": "string"
        }
      ],
      "name": "addWord",
      "outputs": [],
      "stateMutability": "nonpayable",
      "type": "function"
    },
    {
      "inputs": [
        {
          "internalType": "uint256",
          "name": "",
          "type": "uint256"
        }
      ],
      "name": "added",
      "outputs": [
        {
          "internalType": "bool",
          "name": "",
          "type": "bool"
        }
      ],
      "stateMutability": "view",
      "type": "function"
    },
    {
      "inputs": [
        {
          "internalType": "uint256",
          "name": "",
          "type": "uint256"
        }
      ],
      "name": "adj",
      "outputs": [
        {
          "internalType": "string",
          "name": "",
          "type": "string"
        }
      ],
      "stateMutability": "view",
      "type": "function"
    },
    {
      "inputs": [
        {
          "internalType": "address",
          "name": "",
          "type": "address"
        }
      ],
      "name": "allowedMintAmount",
      "outputs": [
        {
          "internalType": "uint256",
          "name": "",
          "type": "uint256"
        }
      ],
      "stateMutability": "view",
      "type": "function"
    },
    {
      "inputs": [
        {
          "internalType": "address",
          "name": "to",
          "type": "address"
        },
        {
          "internalType": "uint256",
          "name": "tokenId",
          "type": "uint256"
        }
      ],
      "name": "approve",
      "outputs": [],
      "stateMutability": "nonpayable",
      "type": "function"
    },
    {
      "inputs": [
        {
          "internalType": "address",
          "name": "owner",
          "type": "address"
        }
      ],
      "name": "balanceOf",
      "outputs": [
        {
          "internalType": "uint256",
          "name": "",
          "type": "uint256"
        }
      ],
      "stateMutability": "view",
      "type": "function"
    },
    {
      "inputs": [],
      "name": "baseURI",
      "outputs": [
        {
          "internalType": "string",
          "name": "",
          "type": "string"
        }
      ],
      "stateMutability": "view",
      "type": "function"
    },
    {
      "inputs": [],
      "name": "blueAmount",
      "outputs": [
        {
          "internalType": "uint256",
          "name": "",
          "type": "uint256"
        }
      ],
      "stateMutability": "view",
      "type": "function"
    },
    {
      "inputs": [
        {
          "internalType": "address",
          "name": "_recipient",
          "type": "address"
        },
        {
          "internalType": "bytes32[]",
          "name": "_proof",
          "type": "bytes32[]"
        },
        {
          "internalType": "uint256",
          "name": "_amount",
          "type": "uint256"
        }
      ],
      "name": "claimMintAmount",
      "outputs": [],
      "stateMutability": "nonpayable",
      "type": "function"
    },
    {
      "inputs": [],
      "name": "defAllowedMintAmount",
      "outputs": [
        {
          "internalType": "uint256",
          "name": "",
          "type": "uint256"
        }
      ],
      "stateMutability": "view",
      "type": "function"
    },
    {
      "inputs": [
        {
          "internalType": "uint256",
          "name": "tokenId",
          "type": "uint256"
        }
      ],
      "name": "getApproved",
      "outputs": [
        {
          "internalType": "address",
          "name": "",
          "type": "address"
        }
      ],
      "stateMutability": "view",
      "type": "function"
    },
    {
      "inputs": [],
      "name": "greyAmount",
      "outputs": [
        {
          "internalType": "uint256",
          "name": "",
          "type": "uint256"
        }
      ],
      "stateMutability": "view",
      "type": "function"
    },
    {
      "inputs": [
        {
          "internalType": "string",
          "name": "_name",
          "type": "string"
        },
        {
          "internalType": "string",
          "name": "_symbol",
          "type": "string"
        },
        {
          "internalType": "string",
          "name": "_baseURI",
          "type": "string"
        },
        {
          "internalType": "address",
          "name": "_thesaurus",
          "type": "address"
        },
        {
          "internalType": "uint256",
          "name": "_price",
          "type": "uint256"
        },
        {
          "internalType": "uint256",
          "name": "_orangeAmount",
          "type": "uint256"
        },
        {
          "internalType": "uint256",
          "name": "_blueAmount",
          "type": "uint256"
        },
        {
          "internalType": "uint256",
          "name": "_greyAmount",
          "type": "uint256"
        },
        {
          "internalType": "uint256",
          "name": "_defAllowedMintAmount",
          "type": "uint256"
        },
        {
          "internalType": "bytes32",
          "name": "_merkleRoot",
          "type": "bytes32"
        }
      ],
      "name": "initialize",
      "outputs": [],
      "stateMutability": "nonpayable",
      "type": "function"
    },
    {
      "inputs": [
        {
          "internalType": "address",
          "name": "owner",
          "type": "address"
        },
        {
          "internalType": "address",
          "name": "operator",
          "type": "address"
        }
      ],
      "name": "isApprovedForAll",
      "outputs": [
        {
          "internalType": "bool",
          "name": "",
          "type": "bool"
        }
      ],
      "stateMutability": "view",
      "type": "function"
    },
    {
      "inputs": [
        {
          "internalType": "uint256",
          "name": "_tokenId",
          "type": "uint256"
        }
      ],
      "name": "lock",
      "outputs": [],
      "stateMutability": "nonpayable",
      "type": "function"
    },
    {
      "inputs": [
        {
          "internalType": "uint256",
          "name": "",
          "type": "uint256"
        }
      ],
      "name": "locked",
      "outputs": [
        {
          "internalType": "bool",
          "name": "",
          "type": "bool"
        }
      ],
      "stateMutability": "view",
      "type": "function"
    },
    {
      "inputs": [],
      "name": "merkleRoot",
      "outputs": [
        {
          "internalType": "bytes32",
          "name": "",
          "type": "bytes32"
        }
      ],
      "stateMutability": "view",
      "type": "function"
    },
    {
      "inputs": [
        {
          "internalType": "address",
          "name": "_player",
          "type": "address"
        },
        {
          "internalType": "uint256",
          "name": "_amount",
          "type": "uint256"
        }
      ],
      "name": "mint",
      "outputs": [],
      "stateMutability": "nonpayable",
      "type": "function"
    },
    {
      "inputs": [],
      "name": "name",
      "outputs": [
        {
          "internalType": "string",
          "name": "",
          "type": "string"
        }
      ],
      "stateMutability": "view",
      "type": "function"
    },
    {
      "inputs": [
        {
          "internalType": "uint256",
          "name": "",
          "type": "uint256"
        }
      ],
      "name": "noun",
      "outputs": [
        {
          "internalType": "string",
          "name": "",
          "type": "string"
        }
      ],
      "stateMutability": "view",
      "type": "function"
    },
    {
      "inputs": [],
      "name": "orangeAmount",
      "outputs": [
        {
          "internalType": "uint256",
          "name": "",
          "type": "uint256"
        }
      ],
      "stateMutability": "view",
      "type": "function"
    },
    {
      "inputs": [],
      "name": "owner",
      "outputs": [
        {
          "internalType": "address",
          "name": "",
          "type": "address"
        }
      ],
      "stateMutability": "view",
      "type": "function"
    },
    {
      "inputs": [
        {
          "internalType": "uint256",
          "name": "tokenId",
          "type": "uint256"
        }
      ],
      "name": "ownerOf",
      "outputs": [
        {
          "internalType": "address",
          "name": "",
          "type": "address"
        }
      ],
      "stateMutability": "view",
      "type": "function"
    },
    {
      "inputs": [],
      "name": "price",
      "outputs": [
        {
          "internalType": "uint256",
          "name": "",
          "type": "uint256"
        }
      ],
      "stateMutability": "view",
      "type": "function"
    },
    {
      "inputs": [
        {
          "internalType": "uint256",
          "name": "_tokenId",
          "type": "uint256"
        }
      ],
      "name": "refreshWords",
      "outputs": [],
      "stateMutability": "nonpayable",
      "type": "function"
    },
    {
      "inputs": [],
      "name": "renounceOwnership",
      "outputs": [],
      "stateMutability": "nonpayable",
      "type": "function"
    },
    {
      "inputs": [
        {
          "internalType": "address",
          "name": "from",
          "type": "address"
        },
        {
          "internalType": "address",
          "name": "to",
          "type": "address"
        },
        {
          "internalType": "uint256",
          "name": "tokenId",
          "type": "uint256"
        }
      ],
      "name": "safeTransferFrom",
      "outputs": [],
      "stateMutability": "nonpayable",
      "type": "function"
    },
    {
      "inputs": [
        {
          "internalType": "address",
          "name": "from",
          "type": "address"
        },
        {
          "internalType": "address",
          "name": "to",
          "type": "address"
        },
        {
          "internalType": "uint256",
          "name": "tokenId",
          "type": "uint256"
        },
        {
          "internalType": "bytes",
          "name": "_data",
          "type": "bytes"
        }
      ],
      "name": "safeTransferFrom",
      "outputs": [],
      "stateMutability": "nonpayable",
      "type": "function"
    },
    {
      "inputs": [
        {
          "internalType": "address",
          "name": "operator",
          "type": "address"
        },
        {
          "internalType": "bool",
          "name": "approved",
          "type": "bool"
        }
      ],
      "name": "setApprovalForAll",
      "outputs": [],
      "stateMutability": "nonpayable",
      "type": "function"
    },
    {
      "inputs": [
        {
          "internalType": "uint256",
          "name": "_amount",
          "type": "uint256"
        }
      ],
      "name": "setDefAllowedMintAmount",
      "outputs": [],
      "stateMutability": "nonpayable",
      "type": "function"
    },
    {
      "inputs": [
        {
          "internalType": "uint256",
          "name": "_price",
          "type": "uint256"
        }
      ],
      "name": "setPrice",
      "outputs": [],
      "stateMutability": "nonpayable",
      "type": "function"
    },
    {
      "inputs": [
        {
          "internalType": "bytes4",
          "name": "interfaceId",
          "type": "bytes4"
        }
      ],
      "name": "supportsInterface",
      "outputs": [
        {
          "internalType": "bool",
          "name": "",
          "type": "bool"
        }
      ],
      "stateMutability": "view",
      "type": "function"
    },
    {
      "inputs": [],
      "name": "symbol",
      "outputs": [
        {
          "internalType": "string",
          "name": "",
          "type": "string"
        }
      ],
      "stateMutability": "view",
      "type": "function"
    },
    {
      "inputs": [],
      "name": "thesaurus",
      "outputs": [
        {
          "internalType": "contract IThesaurus",
          "name": "",
          "type": "address"
        }
      ],
      "stateMutability": "view",
      "type": "function"
    },
    {
      "inputs": [
        {
          "internalType": "uint256",
          "name": "index",
          "type": "uint256"
        }
      ],
      "name": "tokenByIndex",
      "outputs": [
        {
          "internalType": "uint256",
          "name": "",
          "type": "uint256"
        }
      ],
      "stateMutability": "view",
      "type": "function"
    },
    {
      "inputs": [
        {
          "internalType": "address",
          "name": "owner",
          "type": "address"
        },
        {
          "internalType": "uint256",
          "name": "index",
          "type": "uint256"
        }
      ],
      "name": "tokenOfOwnerByIndex",
      "outputs": [
        {
          "internalType": "uint256",
          "name": "",
          "type": "uint256"
        }
      ],
      "stateMutability": "view",
      "type": "function"
    },
    {
      "inputs": [
        {
          "internalType": "uint256",
          "name": "_tokenId",
          "type": "uint256"
        }
      ],
      "name": "tokenURI",
      "outputs": [
        {
          "internalType": "string",
          "name": "",
          "type": "string"
        }
      ],
      "stateMutability": "view",
      "type": "function"
    },
    {
      "inputs": [],
      "name": "totalSupply",
      "outputs": [
        {
          "internalType": "uint256",
          "name": "",
          "type": "uint256"
        }
      ],
      "stateMutability": "view",
      "type": "function"
    },
    {
      "inputs": [
        {
          "internalType": "address",
          "name": "_recipient",
          "type": "address"
        },
        {
          "internalType": "uint256",
          "name": "_amount",
          "type": "uint256"
        }
      ],
      "name": "transferEth",
      "outputs": [],
      "stateMutability": "payable",
      "type": "function"
    },
    {
      "inputs": [
        {
          "internalType": "address",
          "name": "from",
          "type": "address"
        },
        {
          "internalType": "address",
          "name": "to",
          "type": "address"
        },
        {
          "internalType": "uint256",
          "name": "tokenId",
          "type": "uint256"
        }
      ],
      "name": "transferFrom",
      "outputs": [],
      "stateMutability": "nonpayable",
      "type": "function"
    },
    {
      "inputs": [
        {
          "internalType": "address",
          "name": "newOwner",
          "type": "address"
        }
      ],
      "name": "transferOwnership",
      "outputs": [],
      "stateMutability": "nonpayable",
      "type": "function"
    },
    {
      "inputs": [
        {
          "internalType": "uint256",
          "name": "",
          "type": "uint256"
        }
      ],
      "name": "types",
      "outputs": [
        {
          "internalType": "uint8",
          "name": "",
          "type": "uint8"
        }
      ],
      "stateMutability": "view",
      "type": "function"
    },
    {
      "inputs": [
        {
          "internalType": "uint256",
          "name": "",
          "type": "uint256"
        }
      ],
      "name": "verb",
      "outputs": [
        {
          "internalType": "string",
          "name": "",
          "type": "string"
        }
      ],
      "stateMutability": "view",
      "type": "function"
    },
    {
      "inputs": [
        {
          "internalType": "bytes32[]",
          "name": "_proof",
          "type": "bytes32[]"
        },
        {
          "internalType": "address",
          "name": "_recipient",
          "type": "address"
        },
        {
          "internalType": "uint256",
          "name": "_amount",
          "type": "uint256"
        }
      ],
      "name": "verifyProof",
      "outputs": [
        {
          "internalType": "bool",
          "name": "",
          "type": "bool"
        }
      ],
      "stateMutability": "view",
      "type": "function"
    },
    {
      "stateMutability": "payable",
      "type": "receive"
    }
  ],
  "transactionHash": "0x918be0231cf48a88bf2117fb7fccdc79a64d3cc3c6b57fc70f3d4b525838238e",
  "args": [
    "Digital Art Drive",
    "DAD",
    "https://www.google.com",
    "0x7Bd5416b9FEAb9ad18B7dF563800e17E289fDe6C",
    0,
    100,
    1000,
    10000,
    1,
    "0xbb716b003040397e4b9210b019f46c573fcca87271087157114b6819f59bc9e8"
  ],
  "numDeployments": 1,
  "solcInputHash": "a0096befa68c9d0ce4c6842cc314cfa3",
  "bytecode": "0x60806040523480156200001157600080fd5b506040516200414838038062004148833981016040819052620000349162000600565b620000488a8a8a8a8a8a8a8a8a8a62000058565b505050505050505050506200071d565b60006200006660016200013c565b905080156200007f576000805461ff0019166101001790555b6200008b8b8b62000253565b62000095620002bf565b8851620000aa9060fd9060208c019062000475565b5060fc80546001600160a01b0319166001600160a01b038a1617905561010187905560fe86905560ff85905561010084905561010383905561010282905580156200012f576000805461ff0019169055604051600181527f7f26b83ff96e1f2b6a682f133852f6798a09c465da95921460cefb38474024989060200160405180910390a15b5050505050505050505050565b60008054610100900460ff1615620001d5578160ff16600114801562000175575062000173306200032760201b62001b5a1760201c565b155b620001cd5760405162461bcd60e51b815260206004820152602e60248201526000805160206200410883398151915260448201526d191e481a5b9a5d1a585b1a5e995960921b60648201526084015b60405180910390fd5b506000919050565b60005460ff808416911610620002345760405162461bcd60e51b815260206004820152602e60248201526000805160206200410883398151915260448201526d191e481a5b9a5d1a585b1a5e995960921b6064820152608401620001c4565b506000805460ff191660ff92909216919091179055600190565b919050565b600054610100900460ff16620002af5760405162461bcd60e51b815260206004820152602b60248201526000805160206200412883398151915260448201526a6e697469616c697a696e6760a81b6064820152608401620001c4565b620002bb828262000336565b5050565b600054610100900460ff166200031b5760405162461bcd60e51b815260206004820152602b60248201526000805160206200412883398151915260448201526a6e697469616c697a696e6760a81b6064820152608401620001c4565b62000325620003c2565b565b6001600160a01b03163b151590565b600054610100900460ff16620003925760405162461bcd60e51b815260206004820152602b60248201526000805160206200412883398151915260448201526a6e697469616c697a696e6760a81b6064820152608401620001c4565b8151620003a790609790602085019062000475565b508051620003bd90609890602084019062000475565b505050565b600054610100900460ff166200041e5760405162461bcd60e51b815260206004820152602b60248201526000805160206200412883398151915260448201526a6e697469616c697a696e6760a81b6064820152608401620001c4565b6200032533603380546001600160a01b038381166001600160a01b0319831681179093556040519116919082907f8be0079c531659141344cd1fd0a4f28419497f9722a3daafe3b4186f6b6457e090600090a35050565b8280546200048390620006e0565b90600052602060002090601f016020900481019282620004a75760008555620004f2565b82601f10620004c257805160ff1916838001178555620004f2565b82800160010185558215620004f2579182015b82811115620004f2578251825591602001919060010190620004d5565b506200050092915062000504565b5090565b5b8082111562000500576000815560010162000505565b634e487b7160e01b600052604160045260246000fd5b600082601f8301126200054357600080fd5b81516001600160401b03808211156200056057620005606200051b565b604051601f8301601f19908116603f011681019082821181831017156200058b576200058b6200051b565b81604052838152602092508683858801011115620005a857600080fd5b600091505b83821015620005cc5785820183015181830184015290820190620005ad565b83821115620005de5760008385830101525b9695505050505050565b80516001600160a01b03811681146200024e57600080fd5b6000806000806000806000806000806101408b8d0312156200062157600080fd5b8a516001600160401b03808211156200063957600080fd5b620006478e838f0162000531565b9b5060208d01519150808211156200065e57600080fd5b6200066c8e838f0162000531565b9a5060408d01519150808211156200068357600080fd5b50620006928d828e0162000531565b985050620006a360608c01620005e8565b965060808b0151955060a08b0151945060c08b0151935060e08b015192506101008b015191506101208b015190509295989b9194979a5092959850565b600181811c90821680620006f557607f821691505b602082108114156200071757634e487b7160e01b600052602260045260246000fd5b50919050565b6139db806200072d6000396000f3fe6080604052600436106102535760003560e01c8063726d20fe11610138578063c87b56dd116100b0578063e985e9c511610077578063e985e9c51461072c578063e9bb84c214610775578063ea71b92214610788578063ed76bd0b1461079f578063f2fde38b146107cd578063fa4ad06d146107ed57005b8063c87b56dd14610673578063cefbfa3614610693578063d88eae00146106d6578063dd467064146106ec578063e20b21271461070c57005b8063a035b1fe116100ff578063a035b1fe146105b5578063a22cb465146105cc578063b45a3c0e146105ec578063b563f72d1461061d578063b88d4fde14610633578063b9fd27bd1461065357005b8063726d20fe146105225780638da5cb5b1461054257806391b7f5ed14610560578063929943b11461058057806395d89b41146105a057005b806340c10f19116101cb5780636286eb08116101925780636286eb08146104815780636352211e146104a1578063655fe881146104c15780636c0360eb146104d857806370a08231146104ed578063715018a61461050d57005b806340c10f19146103e157806342842e0e14610401578063437f0728146104215780634f6ccce71461044157806355a498c81461046157005b8063227eac8b1161021a578063227eac8b1461032a57806322abd4e31461034a57806323b872dd1461036a5780632eb4a7ab1461038a5780632f745c59146103a157806336b04f26146103c157005b806301ffc9a71461025c57806306fdde0314610291578063081812fc146102b3578063095ea7b3146102eb57806318160ddd1461030b57005b3661025a57005b005b34801561026857600080fd5b5061027c610277366004612e0e565b61081e565b60405190151581526020015b60405180910390f35b34801561029d57600080fd5b506102a6610849565b6040516102889190612e83565b3480156102bf57600080fd5b506102d36102ce366004612e96565b6108db565b6040516001600160a01b039091168152602001610288565b3480156102f757600080fd5b5061025a610306366004612ec6565b610968565b34801561031757600080fd5b5060cb545b604051908152602001610288565b34801561033657600080fd5b5061025a610345366004612fbd565b610a7e565b34801561035657600080fd5b5060fc546102d3906001600160a01b031681565b34801561037657600080fd5b5061025a61038536600461301c565b610dae565b34801561039657600080fd5b5061031c6101025481565b3480156103ad57600080fd5b5061031c6103bc366004612ec6565b610ddf565b3480156103cd57600080fd5b506102a66103dc366004612e96565b610e75565b3480156103ed57600080fd5b5061025a6103fc366004612ec6565b610f10565b34801561040d57600080fd5b5061025a61041c36600461301c565b610f37565b34801561042d57600080fd5b5061025a61043c366004612e96565b610f52565b34801561044d57600080fd5b5061031c61045c366004612e96565b610fc3565b34801561046d57600080fd5b506102a661047c366004612e96565b611056565b34801561048d57600080fd5b5061025a61049c366004613058565b611070565b3480156104ad57600080fd5b506102d36104bc366004612e96565b61114a565b3480156104cd57600080fd5b5061031c6101005481565b3480156104e457600080fd5b506102a66111c1565b3480156104f957600080fd5b5061031c610508366004613128565b6111ce565b34801561051957600080fd5b5061025a611255565b34801561052e57600080fd5b5061027c61053d3660046131c3565b61128b565b34801561054e57600080fd5b506033546001600160a01b03166102d3565b34801561056c57600080fd5b5061025a61057b366004612e96565b6112db565b34801561058c57600080fd5b5061025a61059b36600461320a565b611344565b3480156105ac57600080fd5b506102a6611470565b3480156105c157600080fd5b5061031c6101015481565b3480156105d857600080fd5b5061025a6105e7366004613261565b61147f565b3480156105f857600080fd5b5061027c610607366004612e96565b6101086020526000908152604090205460ff1681565b34801561062957600080fd5b5061031c60ff5481565b34801561063f57600080fd5b5061025a61064e36600461329d565b61148e565b34801561065f57600080fd5b506102a661066e366004612e96565b6114c6565b34801561067f57600080fd5b506102a661068e366004612e96565b6114e0565b34801561069f57600080fd5b506106c46106ae366004612e96565b6101096020526000908152604090205460ff1681565b60405160ff9091168152602001610288565b3480156106e257600080fd5b5061031c60fe5481565b3480156106f857600080fd5b5061025a610707366004612e96565b61172f565b34801561071857600080fd5b5061025a610727366004612e96565b61186a565b34801561073857600080fd5b5061027c610747366004613319565b6001600160a01b039182166000908152609c6020908152604080832093909416825291909152205460ff1690565b61025a610783366004612ec6565b611a1f565b34801561079457600080fd5b5061031c6101035481565b3480156107ab57600080fd5b5061031c6107ba366004613128565b61010a6020526000908152604090205481565b3480156107d957600080fd5b5061025a6107e8366004613128565b611abf565b3480156107f957600080fd5b5061027c610808366004612e96565b6101076020526000908152604090205460ff1681565b60006001600160e01b0319821663780e9d6360e01b1480610843575061084382611b69565b92915050565b6060609780546108589061334c565b80601f01602080910402602001604051908101604052809291908181526020018280546108849061334c565b80156108d15780601f106108a6576101008083540402835291602001916108d1565b820191906000526020600020905b8154815290600101906020018083116108b457829003601f168201915b5050505050905090565b60006108e682611bb9565b61094c5760405162461bcd60e51b815260206004820152602c60248201527f4552433732313a20617070726f76656420717565727920666f72206e6f6e657860448201526b34b9ba32b73a103a37b5b2b760a11b60648201526084015b60405180910390fd5b506000908152609b60205260409020546001600160a01b031690565b60006109738261114a565b9050806001600160a01b0316836001600160a01b031614156109e15760405162461bcd60e51b815260206004820152602160248201527f4552433732313a20617070726f76616c20746f2063757272656e74206f776e656044820152603960f91b6064820152608401610943565b336001600160a01b03821614806109fd57506109fd8133610747565b610a6f5760405162461bcd60e51b815260206004820152603860248201527f4552433732313a20617070726f76652063616c6c6572206973206e6f74206f7760448201527f6e6572206e6f7220617070726f76656420666f7220616c6c00000000000000006064820152608401610943565b610a798383611bd6565b505050565b610a8783611bb9565b610aa35760405162461bcd60e51b815260040161094390613387565b33610aad8461114a565b6001600160a01b031614610b035760405162461bcd60e51b815260206004820152601c60248201527f4172744472697665723a20596f7520617265206e6f74206f776e6572000000006044820152606401610943565b6000838152610107602052604090205460ff16610b625760405162461bcd60e51b815260206004820152601960248201527f4172744472697665723a20746f6b656e206973206164646564000000000000006044820152606401610943565b6010815110610bc15760405162461bcd60e51b815260206004820152602560248201527f4172744472697665723a20776f7264206d6178696d756d203135206368617261604482015264637465727360d81b6064820152608401610943565b6000838152610109602052604081205460ff1660011415610be457506001610d07565b6000848152610109602052604090205460ff1660021415610c0757506005610d07565b6000848152610109602052604090205460ff1660031415610cba57610cb3606460fc60009054906101000a90046001600160a01b03166001600160a01b03166366ac564a6040518163ffffffff1660e01b815260040160206040518083038186803b158015610c7557600080fd5b505afa158015610c89573d6000803e3d6000fd5b505050506040513d601f19601f82011682018060405250810190610cad91906133d1565b90611c44565b9050610d07565b6000610cc88460ff16611c57565b604051602001610cd89190613406565b60405160208183030381529060405290610d055760405162461bcd60e51b81526004016109439190612e83565b505b60fc5460405163012b1d7b60e21b81526001600160a01b03909116906304ac75ec90610d3b90869085908790600401613462565b600060405180830381600087803b158015610d5557600080fd5b505af1158015610d69573d6000803e3d6000fd5b505050507ffdac6959a3a5882f20eeb4ea8e8a0007e1e99d29434bed07ce50b0d675d1f60f848284604051610da093929190613484565b60405180910390a150505050565b610db83382611d5d565b610dd45760405162461bcd60e51b8152600401610943906134a3565b610a79838383611e46565b6000610dea836111ce565b8210610e4c5760405162461bcd60e51b815260206004820152602b60248201527f455243373231456e756d657261626c653a206f776e657220696e646578206f7560448201526a74206f6620626f756e647360a81b6064820152608401610943565b506001600160a01b0391909116600090815260c960209081526040808320938352929052205490565b6101056020526000908152604090208054610e8f9061334c565b80601f0160208091040260200160405190810160405280929190818152602001828054610ebb9061334c565b8015610f085780601f10610edd57610100808354040283529160200191610f08565b820191906000526020600020905b815481529060010190602001808311610eeb57829003601f168201915b505050505081565b60005b81811015610a7957610f2483611fed565b5080610f2f8161350a565b915050610f13565b610a798383836040518060200160405280600081525061148e565b6033546001600160a01b03163314610f7c5760405162461bcd60e51b815260040161094390613525565b61010380549082905560408051828152602081018490527fd69665acf13372710dd6e2cb5397fc0424e25f4e490ae03215736546ba2dddf291015b60405180910390a15050565b6000610fce60cb5490565b82106110315760405162461bcd60e51b815260206004820152602c60248201527f455243373231456e756d657261626c653a20676c6f62616c20696e646578206f60448201526b7574206f6620626f756e647360a01b6064820152608401610943565b60cb82815481106110445761104461355a565b90600052602060002001549050919050565b6101046020526000908152604090208054610e8f9061334c565b600061107c60016122b3565b90508015611094576000805461ff0019166101001790555b61109e8b8b612340565b6110a6612371565b88516110b99060fd9060208c0190612d5f565b5060fc80546001600160a01b0319166001600160a01b038a1617905561010187905560fe86905560ff859055610100849055610103839055610102829055801561113d576000805461ff0019169055604051600181527f7f26b83ff96e1f2b6a682f133852f6798a09c465da95921460cefb38474024989060200160405180910390a15b5050505050505050505050565b6000818152609960205260408120546001600160a01b0316806108435760405162461bcd60e51b815260206004820152602960248201527f4552433732313a206f776e657220717565727920666f72206e6f6e657869737460448201526832b73a103a37b5b2b760b91b6064820152608401610943565b60fd8054610e8f9061334c565b60006001600160a01b0382166112395760405162461bcd60e51b815260206004820152602a60248201527f4552433732313a2062616c616e636520717565727920666f7220746865207a65604482015269726f206164647265737360b01b6064820152608401610943565b506001600160a01b03166000908152609a602052604090205490565b6033546001600160a01b0316331461127f5760405162461bcd60e51b815260040161094390613525565b61128960006123a0565b565b604080516001600160a01b038416602082015290810182905260009081906060016040516020818303038152906040528051906020012090506112d28561010254836123f2565b95945050505050565b6033546001600160a01b031633146113055760405162461bcd60e51b815260040161094390613525565b61010180549082905560408051828152602081018490527fb9362b96e28efbb7a7e63bb4a97faf9924ec0394635feff8588a6ae2a5f784fe9101610fb7565b6001600160a01b038316600090815261010a6020526040902054156113ab5760405162461bcd60e51b815260206004820152601b60248201527f4172744472697665723a20416c726561647920726563656976656400000000006044820152606401610943565b6113b682848361128b565b6114165760405162461bcd60e51b815260206004820152602b60248201527f4172744472697665723a205468652070726f6f6620636f756c64206e6f74206260448201526a32903b32b934b334b2b21760a91b6064820152608401610943565b6001600160a01b038316600081815261010a6020908152604091829020849055815192835282018390527fba5ec43de175afadf4606466cf5d34a6a29fe6bd172df29a0476e8eadb7b38e7910160405180910390a1505050565b6060609880546108589061334c565b61148a338383612408565b5050565b6114983383611d5d565b6114b45760405162461bcd60e51b8152600401610943906134a3565b6114c0848484846124d7565b50505050565b6101066020526000908152604090208054610e8f9061334c565b60606114eb82611bb9565b6115075760405162461bcd60e51b815260040161094390613387565b60008281526101046020526040812080546115219061334c565b80601f016020809104026020016040519081016040528092919081815260200182805461154d9061334c565b801561159a5780601f1061156f5761010080835404028352916020019161159a565b820191906000526020600020905b81548152906001019060200180831161157d57829003601f168201915b505050505090506000610105600085815260200190815260200160002080546115c29061334c565b80601f01602080910402602001604051908101604052809291908181526020018280546115ee9061334c565b801561163b5780601f106116105761010080835404028352916020019161163b565b820191906000526020600020905b81548152906001019060200180831161161e57829003601f168201915b505050505090506000610106600086815260200190815260200160002080546116639061334c565b80601f016020809104026020016040519081016040528092919081815260200182805461168f9061334c565b80156116dc5780601f106116b1576101008083540402835291602001916116dc565b820191906000526020600020905b8154815290600101906020018083116116bf57829003601f168201915b5050506000888152610109602090815260409182902054915194955060ff90911693611715935060fd9250849188918891889101613570565b604051602081830303815290604052945050505050919050565b61173881611bb9565b6117545760405162461bcd60e51b815260040161094390613387565b6000818152610108602052604090205460ff166117b35760405162461bcd60e51b815260206004820152601a60248201527f4172744472697665723a20746f6b656e206973206c6f636b65640000000000006044820152606401610943565b336117bd8261114a565b6001600160a01b0316146118135760405162461bcd60e51b815260206004820152601c60248201527f4172744472697665723a20596f7520617265206e6f74206f776e6572000000006044820152606401610943565b6000818152610108602052604090819020805460ff19166001179055517f032bc66be43dbccb7487781d168eb7bda224628a3b2c3388bdf69b532a3a16119061185f9083815260200190565b60405180910390a150565b61187381611bb9565b61188f5760405162461bcd60e51b815260040161094390613387565b6000818152610108602052604090205460ff166118ee5760405162461bcd60e51b815260206004820152601a60248201527f4172744472697665723a20746f6b656e206973206c6f636b65640000000000006044820152606401610943565b600080600060fc60009054906101000a90046001600160a01b03166001600160a01b0316636a8bb7cc6040518163ffffffff1660e01b815260040160006040518083038186803b15801561194157600080fd5b505afa158015611955573d6000803e3d6000fd5b505050506040513d6000823e601f3d908101601f1916820160405261197d91908101906136b9565b60008781526101046020908152604090912084519497509295509093506119a79290860190612d5f565b5060008481526101056020908152604090912083516119c892850190612d5f565b5060008481526101066020908152604090912082516119e992840190612d5f565b507f57f3798e8ce1fb9ea6eea73c23e95f2e6fabfbc4c8dd4586374c5c176393b74084848484604051610da09493929190613737565b6033546001600160a01b03163314611a495760405162461bcd60e51b815260040161094390613525565b6040516001600160a01b0383169082156108fc029083906000818181858888f19350505050158015611a7f573d6000803e3d6000fd5b50604080516001600160a01b0384168152602081018390527fd9b66890b56321a19d7a216dd918f8c0d4023759afc4088deb9be15aca68ece29101610fb7565b6033546001600160a01b03163314611ae95760405162461bcd60e51b815260040161094390613525565b6001600160a01b038116611b4e5760405162461bcd60e51b815260206004820152602660248201527f4f776e61626c653a206e6577206f776e657220697320746865207a65726f206160448201526564647265737360d01b6064820152608401610943565b611b57816123a0565b50565b6001600160a01b03163b151590565b60006001600160e01b031982166380ac58cd60e01b1480611b9a57506001600160e01b03198216635b5e139f60e01b145b8061084357506301ffc9a760e01b6001600160e01b0319831614610843565b6000908152609960205260409020546001600160a01b0316151590565b6000818152609b6020526040902080546001600160a01b0319166001600160a01b0384169081179091558190611c0b8261114a565b6001600160a01b03167f8c5be1e5ebec7d5bd14f71427d1e84f3dd0314c0f7b2291e5b200ac8c7c3b92560405160405180910390a45050565b6000611c50828461378c565b9392505050565b606081611c7b5750506040805180820190915260018152600360fc1b602082015290565b8160005b8115611ca55780611c8f8161350a565b9150611c9e9050600a8361378c565b9150611c7f565b60008167ffffffffffffffff811115611cc057611cc0612ef0565b6040519080825280601f01601f191660200182016040528015611cea576020820181803683370190505b5090505b8415611d5557611cff6001836137a0565b9150611d0c600a866137b7565b611d179060306137cb565b60f81b818381518110611d2c57611d2c61355a565b60200101906001600160f81b031916908160001a905350611d4e600a8661378c565b9450611cee565b949350505050565b6000611d6882611bb9565b611dc95760405162461bcd60e51b815260206004820152602c60248201527f4552433732313a206f70657261746f7220717565727920666f72206e6f6e657860448201526b34b9ba32b73a103a37b5b2b760a11b6064820152608401610943565b6000611dd48361114a565b9050806001600160a01b0316846001600160a01b03161480611e1b57506001600160a01b038082166000908152609c602090815260408083209388168352929052205460ff165b80611d555750836001600160a01b0316611e34846108db565b6001600160a01b031614949350505050565b826001600160a01b0316611e598261114a565b6001600160a01b031614611ebd5760405162461bcd60e51b815260206004820152602560248201527f4552433732313a207472616e736665722066726f6d20696e636f72726563742060448201526437bbb732b960d91b6064820152608401610943565b6001600160a01b038216611f1f5760405162461bcd60e51b8152602060048201526024808201527f4552433732313a207472616e7366657220746f20746865207a65726f206164646044820152637265737360e01b6064820152608401610943565b611f2a83838361250a565b611f35600082611bd6565b6001600160a01b0383166000908152609a60205260408120805460019290611f5e9084906137a0565b90915550506001600160a01b0382166000908152609a60205260408120805460019290611f8c9084906137cb565b909155505060008181526099602052604080822080546001600160a01b0319166001600160a01b0386811691821790925591518493918716917fddf252ad1be2c89b69c2b068fc378daa952ba7f163c4a11628f55a4df523b3ef91a4505050565b60006120016033546001600160a01b031690565b6001600160a01b0316336001600160a01b031614612127576001600160a01b038216600090815261010a602052604090205461010354612040916125c2565b612049836111ce565b106120ac5760405162461bcd60e51b815260206004820152602d60248201527f4172744472697665723a204578636565647320746865206d6178696d756d206e60448201526c1d5b58995c881bd9881b5a5b9d609a1b6064820152608401610943565b6001600160a01b038216600090815261010a60205260409020546120cf836111ce565b1061212757610101543410156121275760405162461bcd60e51b815260206004820152601f60248201527f4172744472697665723a206d73672e76616c756520446566696369656e6379006044820152606401610943565b60fb549050600080600060fc60009054906101000a90046001600160a01b03166001600160a01b0316636a8bb7cc6040518163ffffffff1660e01b815260040160006040518083038186803b15801561217f57600080fd5b505afa158015612193573d6000803e3d6000fd5b505050506040513d6000823e601f3d908101601f191682016040526121bb91908101906136b9565b60008781526101046020908152604090912084519497509295509093506121e59290860190612d5f565b50600084815261010560209081526040909120835161220692850190612d5f565b50600084815261010660209081526040909120825161222792840190612d5f565b506000612233856125ce565b600086815261010960205260409020805460ff191660ff8316179055905061225b86866126cd565b61226960fb80546001019055565b7f06d462992b94a71271caecaa4d7031f82eed46383a2d5c24c15f7ab75b9a7a948587868686866040516122a2969594939291906137e3565b60405180910390a150505050919050565b60008054610100900460ff16156122fa578160ff1660011480156122d65750303b155b6122f25760405162461bcd60e51b81526004016109439061384a565b506000919050565b60005460ff8084169116106123215760405162461bcd60e51b81526004016109439061384a565b506000805460ff191660ff92909216919091179055600190565b919050565b600054610100900460ff166123675760405162461bcd60e51b815260040161094390613898565b61148a828261280c565b600054610100900460ff166123985760405162461bcd60e51b815260040161094390613898565b61128961285a565b603380546001600160a01b038381166001600160a01b0319831681179093556040519116919082907f8be0079c531659141344cd1fd0a4f28419497f9722a3daafe3b4186f6b6457e090600090a35050565b6000826123ff858461288a565b14949350505050565b816001600160a01b0316836001600160a01b0316141561246a5760405162461bcd60e51b815260206004820152601960248201527f4552433732313a20617070726f766520746f2063616c6c6572000000000000006044820152606401610943565b6001600160a01b038381166000818152609c6020908152604080832094871680845294825291829020805460ff191686151590811790915591519182527f17307eab39ab6107e8899845ad3d59bd9653f200f220920489ca2b5937696c31910160405180910390a3505050565b6124e2848484611e46565b6124ee848484846128fe565b6114c05760405162461bcd60e51b8152600401610943906138e3565b6001600160a01b038316612565576125608160cb8054600083815260cc60205260408120829055600182018355919091527fa7ce836d032b2bf62b7e2097a8e0a6d8aeb35405ad15271e96d3b0188a1d06fb0155565b612588565b816001600160a01b0316836001600160a01b031614612588576125888382612a0b565b6001600160a01b03821661259f57610a7981612aa8565b826001600160a01b0316826001600160a01b031614610a7957610a798282612b57565b6000611c5082846137cb565b60408051600380825260808201909252600091829190602082016060803683375050610100549192505015612627576001816000815181106126125761261261355a565b602002602001019060ff16908160ff16815250505b60ff5415612659576002816001815181106126445761264461355a565b602002602001019060ff16908160ff16815250505b60fe541561268b576003816002815181106126765761267661355a565b602002602001019060ff16908160ff16815250505b61269481612b9b565b905060006126a56000835186612cdb565b9050818160ff16815181106126bc576126bc61355a565b602002602001015192505050919050565b6001600160a01b0382166127235760405162461bcd60e51b815260206004820181905260248201527f4552433732313a206d696e7420746f20746865207a65726f20616464726573736044820152606401610943565b61272c81611bb9565b156127795760405162461bcd60e51b815260206004820152601c60248201527f4552433732313a20746f6b656e20616c7265616479206d696e746564000000006044820152606401610943565b6127856000838361250a565b6001600160a01b0382166000908152609a602052604081208054600192906127ae9084906137cb565b909155505060008181526099602052604080822080546001600160a01b0319166001600160a01b03861690811790915590518392907fddf252ad1be2c89b69c2b068fc378daa952ba7f163c4a11628f55a4df523b3ef908290a45050565b600054610100900460ff166128335760405162461bcd60e51b815260040161094390613898565b8151612846906097906020850190612d5f565b508051610a79906098906020840190612d5f565b600054610100900460ff166128815760405162461bcd60e51b815260040161094390613898565b611289336123a0565b600081815b84518110156128f65760008582815181106128ac576128ac61355a565b602002602001015190508083116128d257600083815260208290526040902092506128e3565b600081815260208490526040902092505b50806128ee8161350a565b91505061288f565b509392505050565b60006001600160a01b0384163b15612a0057604051630a85bd0160e11b81526001600160a01b0385169063150b7a0290612942903390899088908890600401613935565b602060405180830381600087803b15801561295c57600080fd5b505af192505050801561298c575060408051601f3d908101601f1916820190925261298991810190613972565b60015b6129e6573d8080156129ba576040519150601f19603f3d011682016040523d82523d6000602084013e6129bf565b606091505b5080516129de5760405162461bcd60e51b8152600401610943906138e3565b805181602001fd5b6001600160e01b031916630a85bd0160e11b149050611d55565b506001949350505050565b60006001612a18846111ce565b612a2291906137a0565b600083815260ca6020526040902054909150808214612a75576001600160a01b038416600090815260c960209081526040808320858452825280832054848452818420819055835260ca90915290208190555b50600091825260ca602090815260408084208490556001600160a01b03909416835260c981528383209183525290812055565b60cb54600090612aba906001906137a0565b600083815260cc602052604081205460cb8054939450909284908110612ae257612ae261355a565b906000526020600020015490508060cb8381548110612b0357612b0361355a565b600091825260208083209091019290925582815260cc909152604080822084905585825281205560cb805480612b3b57612b3b61398f565b6001900381819060005260206000200160009055905550505050565b6000612b62836111ce565b6001600160a01b03909316600090815260c960209081526040808320868452825280832085905593825260ca9052919091209190915550565b60606000805b8351811015612bf157600060ff16848281518110612bc157612bc161355a565b602002602001015160ff1614612bdf5781612bdb8161350a565b9250505b80612be98161350a565b915050612ba1565b5060008167ffffffffffffffff811115612c0d57612c0d612ef0565b604051908082528060200260200182016040528015612c36578160200160208202803683370190505b5090506000805b8551811015612cd157600060ff16868281518110612c5d57612c5d61355a565b602002602001015160ff161415612c7357612cbf565b858181518110612c8557612c8561355a565b6020026020010151838381518110612c9f57612c9f61355a565b60ff9092166020928302919091019091015281612cbb8161350a565b9250505b80612cc98161350a565b915050612c3d565b5090949350505050565b6000611d55848484604080514260208083018290524483850181905260608085018790528551808603909101815260808501865280519083012060a085019390935260c084015260e08084018390528451808503909101815261010090930190935281519190920120600091908590612d559086906137b7565b6112d291906137cb565b828054612d6b9061334c565b90600052602060002090601f016020900481019282612d8d5760008555612dd3565b82601f10612da657805160ff1916838001178555612dd3565b82800160010185558215612dd3579182015b82811115612dd3578251825591602001919060010190612db8565b50612ddf929150612de3565b5090565b5b80821115612ddf5760008155600101612de4565b6001600160e01b031981168114611b5757600080fd5b600060208284031215612e2057600080fd5b8135611c5081612df8565b60005b83811015612e46578181015183820152602001612e2e565b838111156114c05750506000910152565b60008151808452612e6f816020860160208601612e2b565b601f01601f19169290920160200192915050565b602081526000611c506020830184612e57565b600060208284031215612ea857600080fd5b5035919050565b80356001600160a01b038116811461233b57600080fd5b60008060408385031215612ed957600080fd5b612ee283612eaf565b946020939093013593505050565b634e487b7160e01b600052604160045260246000fd5b604051601f8201601f1916810167ffffffffffffffff81118282101715612f2f57612f2f612ef0565b604052919050565b600067ffffffffffffffff821115612f5157612f51612ef0565b50601f01601f191660200190565b6000612f72612f6d84612f37565b612f06565b9050828152838383011115612f8657600080fd5b828260208301376000602084830101529392505050565b600082601f830112612fae57600080fd5b611c5083833560208501612f5f565b600080600060608486031215612fd257600080fd5b83359250602084013560ff81168114612fea57600080fd5b9150604084013567ffffffffffffffff81111561300657600080fd5b61301286828701612f9d565b9150509250925092565b60008060006060848603121561303157600080fd5b61303a84612eaf565b925061304860208501612eaf565b9150604084013590509250925092565b6000806000806000806000806000806101408b8d03121561307857600080fd5b8a3567ffffffffffffffff8082111561309057600080fd5b61309c8e838f01612f9d565b9b5060208d01359150808211156130b257600080fd5b6130be8e838f01612f9d565b9a5060408d01359150808211156130d457600080fd5b506130e18d828e01612f9d565b9850506130f060608c01612eaf565b999c989b50969960808101359860a0820135985060c0820135975060e082013596506101008201359550610120909101359350915050565b60006020828403121561313a57600080fd5b611c5082612eaf565b600082601f83011261315457600080fd5b8135602067ffffffffffffffff82111561317057613170612ef0565b8160051b61317f828201612f06565b928352848101820192828101908785111561319957600080fd5b83870192505b848310156131b85782358252918301919083019061319f565b979650505050505050565b6000806000606084860312156131d857600080fd5b833567ffffffffffffffff8111156131ef57600080fd5b6131fb86828701613143565b93505061304860208501612eaf565b60008060006060848603121561321f57600080fd5b61322884612eaf565b9250602084013567ffffffffffffffff81111561324457600080fd5b61325086828701613143565b925050604084013590509250925092565b6000806040838503121561327457600080fd5b61327d83612eaf565b91506020830135801515811461329257600080fd5b809150509250929050565b600080600080608085870312156132b357600080fd5b6132bc85612eaf565b93506132ca60208601612eaf565b925060408501359150606085013567ffffffffffffffff8111156132ed57600080fd5b8501601f810187136132fe57600080fd5b61330d87823560208401612f5f565b91505092959194509250565b6000806040838503121561332c57600080fd5b61333583612eaf565b915061334360208401612eaf565b90509250929050565b600181811c9082168061336057607f821691505b6020821081141561338157634e487b7160e01b600052602260045260246000fd5b50919050565b6020808252602a908201527f4172744472697665723a2055524920717565727920666f72206e6f6e657869736040820152693a32b73a103a37b5b2b760b11b606082015260800190565b6000602082840312156133e357600080fd5b5051919050565b600081516133fc818560208601612e2b565b9290920192915050565b7f4172744472697665723a205468657265206973206e6f20737563682074797065815261205b60f01b602082015260008251613449816022850160208701612e2b565b61205d60f01b6022939091019283015250602401919050565b60ff841681528260208201526060604082015260006112d26060830184612e57565b8381528260208201526060604082015260006112d26060830184612e57565b60208082526031908201527f4552433732313a207472616e736665722063616c6c6572206973206e6f74206f6040820152701ddb995c881b9bdc88185c1c1c9bdd9959607a1b606082015260800190565b634e487b7160e01b600052601160045260246000fd5b600060001982141561351e5761351e6134f4565b5060010190565b6020808252818101527f4f776e61626c653a2063616c6c6572206973206e6f7420746865206f776e6572604082015260600190565b634e487b7160e01b600052603260045260246000fd5b600080875481600182811c91508083168061358c57607f831692505b60208084108214156135ac57634e487b7160e01b86526022600452602486fd5b8180156135c057600181146135d1576135fe565b60ff198616895284890196506135fe565b60008e81526020902060005b868110156135f65781548b8201529085019083016135dd565b505084890196505b5050602f60f81b855250600184019350613624848b60f81b6001600160f81b0319169052565b61366561365f61364c61365961364c613646868a01602f60f81b815260010190565b8e6133ea565b602f60f81b815260010190565b8b6133ea565b886133ea565b9b9a5050505050505050505050565b600082601f83011261368557600080fd5b8151613693612f6d82612f37565b8181528460208386010111156136a857600080fd5b611d55826020830160208701612e2b565b6000806000606084860312156136ce57600080fd5b835167ffffffffffffffff808211156136e657600080fd5b6136f287838801613674565b9450602086015191508082111561370857600080fd5b61371487838801613674565b9350604086015191508082111561372a57600080fd5b5061301286828701613674565b8481526080602082015260006137506080830186612e57565b82810360408401526137628186612e57565b905082810360608401526131b88185612e57565b634e487b7160e01b600052601260045260246000fd5b60008261379b5761379b613776565b500490565b6000828210156137b2576137b26134f4565b500390565b6000826137c6576137c6613776565b500690565b600082198211156137de576137de6134f4565b500190565b8681526001600160a01b038616602082015260c06040820181905260009061380d90830187612e57565b828103606084015261381f8187612e57565b905082810360808401526138338186612e57565b91505060ff831660a0830152979650505050505050565b6020808252602e908201527f496e697469616c697a61626c653a20636f6e747261637420697320616c72656160408201526d191e481a5b9a5d1a585b1a5e995960921b606082015260800190565b6020808252602b908201527f496e697469616c697a61626c653a20636f6e7472616374206973206e6f74206960408201526a6e697469616c697a696e6760a81b606082015260800190565b60208082526032908201527f4552433732313a207472616e7366657220746f206e6f6e20455243373231526560408201527131b2b4bb32b91034b6b83632b6b2b73a32b960711b606082015260800190565b6001600160a01b038581168252841660208201526040810183905260806060820181905260009061396890830184612e57565b9695505050505050565b60006020828403121561398457600080fd5b8151611c5081612df8565b634e487b7160e01b600052603160045260246000fdfea26469706673582212200f21de07edce4cf81cb13964ad10ca114acae2624c450aa5f2ecad573860a2bf64736f6c63430008090033496e697469616c697a61626c653a20636f6e747261637420697320616c726561496e697469616c697a61626c653a20636f6e7472616374206973206e6f742069",
  "devdoc": {
    "kind": "dev",
    "methods": {
      "approve(address,uint256)": {
        "details": "See {IERC721-approve}."
      },
      "balanceOf(address)": {
        "details": "See {IERC721-balanceOf}."
      },
      "getApproved(uint256)": {
        "details": "See {IERC721-getApproved}."
      },
      "isApprovedForAll(address,address)": {
        "details": "See {IERC721-isApprovedForAll}."
      },
      "name()": {
        "details": "See {IERC721Metadata-name}."
      },
      "owner()": {
        "details": "Returns the address of the current owner."
      },
      "ownerOf(uint256)": {
        "details": "See {IERC721-ownerOf}."
      },
      "renounceOwnership()": {
        "details": "Leaves the contract without owner. It will not be possible to call `onlyOwner` functions anymore. Can only be called by the current owner. NOTE: Renouncing ownership will leave the contract without an owner, thereby removing any functionality that is only available to the owner."
      },
      "safeTransferFrom(address,address,uint256)": {
        "details": "See {IERC721-safeTransferFrom}."
      },
      "safeTransferFrom(address,address,uint256,bytes)": {
        "details": "See {IERC721-safeTransferFrom}."
      },
      "setApprovalForAll(address,bool)": {
        "details": "See {IERC721-setApprovalForAll}."
      },
      "supportsInterface(bytes4)": {
        "details": "See {IERC165-supportsInterface}."
      },
      "symbol()": {
        "details": "See {IERC721Metadata-symbol}."
      },
      "tokenByIndex(uint256)": {
        "details": "See {IERC721Enumerable-tokenByIndex}."
      },
      "tokenOfOwnerByIndex(address,uint256)": {
        "details": "See {IERC721Enumerable-tokenOfOwnerByIndex}."
      },
      "totalSupply()": {
        "details": "See {IERC721Enumerable-totalSupply}."
      },
      "transferFrom(address,address,uint256)": {
        "details": "See {IERC721-transferFrom}."
      },
      "transferOwnership(address)": {
        "details": "Transfers ownership of the contract to a new account (`newOwner`). Can only be called by the current owner."
      }
    },
    "version": 1
  },
  "userdoc": {
    "kind": "user",
    "methods": {},
    "version": 1
  },
  "storageLayout": {
    "storage": [
      {
        "astId": 130,
        "contract": "contracts/ArtDrive.sol:ArtDrive",
        "label": "_initialized",
        "offset": 0,
        "slot": "0",
        "type": "t_uint8"
      },
      {
        "astId": 133,
        "contract": "contracts/ArtDrive.sol:ArtDrive",
        "label": "_initializing",
        "offset": 1,
        "slot": "0",
        "type": "t_bool"
      },
      {
        "astId": 1990,
        "contract": "contracts/ArtDrive.sol:ArtDrive",
        "label": "__gap",
        "offset": 0,
        "slot": "1",
        "type": "t_array(t_uint256)50_storage"
      },
      {
        "astId": 10,
        "contract": "contracts/ArtDrive.sol:ArtDrive",
        "label": "_owner",
        "offset": 0,
        "slot": "51",
        "type": "t_address"
      },
      {
        "astId": 122,
        "contract": "contracts/ArtDrive.sol:ArtDrive",
        "label": "__gap",
        "offset": 0,
        "slot": "52",
        "type": "t_array(t_uint256)49_storage"
      },
      {
        "astId": 2404,
        "contract": "contracts/ArtDrive.sol:ArtDrive",
        "label": "__gap",
        "offset": 0,
        "slot": "101",
        "type": "t_array(t_uint256)50_storage"
      },
      {
        "astId": 294,
        "contract": "contracts/ArtDrive.sol:ArtDrive",
        "label": "_name",
        "offset": 0,
        "slot": "151",
        "type": "t_string_storage"
      },
      {
        "astId": 296,
        "contract": "contracts/ArtDrive.sol:ArtDrive",
        "label": "_symbol",
        "offset": 0,
        "slot": "152",
        "type": "t_string_storage"
      },
      {
        "astId": 300,
        "contract": "contracts/ArtDrive.sol:ArtDrive",
        "label": "_owners",
        "offset": 0,
        "slot": "153",
        "type": "t_mapping(t_uint256,t_address)"
      },
      {
        "astId": 304,
        "contract": "contracts/ArtDrive.sol:ArtDrive",
        "label": "_balances",
        "offset": 0,
        "slot": "154",
        "type": "t_mapping(t_address,t_uint256)"
      },
      {
        "astId": 308,
        "contract": "contracts/ArtDrive.sol:ArtDrive",
        "label": "_tokenApprovals",
        "offset": 0,
        "slot": "155",
        "type": "t_mapping(t_uint256,t_address)"
      },
      {
        "astId": 314,
        "contract": "contracts/ArtDrive.sol:ArtDrive",
        "label": "_operatorApprovals",
        "offset": 0,
        "slot": "156",
        "type": "t_mapping(t_address,t_mapping(t_address,t_bool))"
      },
      {
        "astId": 1155,
        "contract": "contracts/ArtDrive.sol:ArtDrive",
        "label": "__gap",
        "offset": 0,
        "slot": "157",
        "type": "t_array(t_uint256)44_storage"
      },
      {
        "astId": 1320,
        "contract": "contracts/ArtDrive.sol:ArtDrive",
        "label": "_ownedTokens",
        "offset": 0,
        "slot": "201",
        "type": "t_mapping(t_address,t_mapping(t_uint256,t_uint256))"
      },
      {
        "astId": 1324,
        "contract": "contracts/ArtDrive.sol:ArtDrive",
        "label": "_ownedTokensIndex",
        "offset": 0,
        "slot": "202",
        "type": "t_mapping(t_uint256,t_uint256)"
      },
      {
        "astId": 1327,
        "contract": "contracts/ArtDrive.sol:ArtDrive",
        "label": "_allTokens",
        "offset": 0,
        "slot": "203",
        "type": "t_array(t_uint256)dyn_storage"
      },
      {
        "astId": 1331,
        "contract": "contracts/ArtDrive.sol:ArtDrive",
        "label": "_allTokensIndex",
        "offset": 0,
        "slot": "204",
        "type": "t_mapping(t_uint256,t_uint256)"
      },
      {
        "astId": 1647,
        "contract": "contracts/ArtDrive.sol:ArtDrive",
        "label": "__gap",
        "offset": 0,
        "slot": "205",
        "type": "t_array(t_uint256)46_storage"
      },
      {
        "astId": 2960,
        "contract": "contracts/ArtDrive.sol:ArtDrive",
        "label": "_tokenIds",
        "offset": 0,
        "slot": "251",
        "type": "t_struct(Counter)1997_storage"
      },
      {
        "astId": 2972,
        "contract": "contracts/ArtDrive.sol:ArtDrive",
        "label": "thesaurus",
        "offset": 0,
        "slot": "252",
        "type": "t_contract(IThesaurus)4219"
      },
      {
        "astId": 2974,
        "contract": "contracts/ArtDrive.sol:ArtDrive",
        "label": "baseURI",
        "offset": 0,
        "slot": "253",
        "type": "t_string_storage"
      },
      {
        "astId": 2976,
        "contract": "contracts/ArtDrive.sol:ArtDrive",
        "label": "orangeAmount",
        "offset": 0,
        "slot": "254",
        "type": "t_uint256"
      },
      {
        "astId": 2978,
        "contract": "contracts/ArtDrive.sol:ArtDrive",
        "label": "blueAmount",
        "offset": 0,
        "slot": "255",
        "type": "t_uint256"
      },
      {
        "astId": 2980,
        "contract": "contracts/ArtDrive.sol:ArtDrive",
        "label": "greyAmount",
        "offset": 0,
        "slot": "256",
        "type": "t_uint256"
      },
      {
        "astId": 2982,
        "contract": "contracts/ArtDrive.sol:ArtDrive",
        "label": "price",
        "offset": 0,
        "slot": "257",
        "type": "t_uint256"
      },
      {
        "astId": 2984,
        "contract": "contracts/ArtDrive.sol:ArtDrive",
        "label": "merkleRoot",
        "offset": 0,
        "slot": "258",
        "type": "t_bytes32"
      },
      {
        "astId": 2986,
        "contract": "contracts/ArtDrive.sol:ArtDrive",
        "label": "defAllowedMintAmount",
        "offset": 0,
        "slot": "259",
        "type": "t_uint256"
      },
      {
        "astId": 2990,
        "contract": "contracts/ArtDrive.sol:ArtDrive",
        "label": "verb",
        "offset": 0,
        "slot": "260",
        "type": "t_mapping(t_uint256,t_string_storage)"
      },
      {
        "astId": 2994,
        "contract": "contracts/ArtDrive.sol:ArtDrive",
        "label": "adj",
        "offset": 0,
        "slot": "261",
        "type": "t_mapping(t_uint256,t_string_storage)"
      },
      {
        "astId": 2998,
        "contract": "contracts/ArtDrive.sol:ArtDrive",
        "label": "noun",
        "offset": 0,
        "slot": "262",
        "type": "t_mapping(t_uint256,t_string_storage)"
      },
      {
        "astId": 3002,
        "contract": "contracts/ArtDrive.sol:ArtDrive",
        "label": "added",
        "offset": 0,
        "slot": "263",
        "type": "t_mapping(t_uint256,t_bool)"
      },
      {
        "astId": 3006,
        "contract": "contracts/ArtDrive.sol:ArtDrive",
        "label": "locked",
        "offset": 0,
        "slot": "264",
        "type": "t_mapping(t_uint256,t_bool)"
      },
      {
        "astId": 3010,
        "contract": "contracts/ArtDrive.sol:ArtDrive",
        "label": "types",
        "offset": 0,
        "slot": "265",
        "type": "t_mapping(t_uint256,t_uint8)"
      },
      {
        "astId": 3014,
        "contract": "contracts/ArtDrive.sol:ArtDrive",
        "label": "allowedMintAmount",
        "offset": 0,
        "slot": "266",
        "type": "t_mapping(t_address,t_uint256)"
      }
    ],
    "types": {
      "t_address": {
        "encoding": "inplace",
        "label": "address",
        "numberOfBytes": "20"
      },
      "t_array(t_uint256)44_storage": {
        "base": "t_uint256",
        "encoding": "inplace",
        "label": "uint256[44]",
        "numberOfBytes": "1408"
      },
      "t_array(t_uint256)46_storage": {
        "base": "t_uint256",
        "encoding": "inplace",
        "label": "uint256[46]",
        "numberOfBytes": "1472"
      },
      "t_array(t_uint256)49_storage": {
        "base": "t_uint256",
        "encoding": "inplace",
        "label": "uint256[49]",
        "numberOfBytes": "1568"
      },
      "t_array(t_uint256)50_storage": {
        "base": "t_uint256",
        "encoding": "inplace",
        "label": "uint256[50]",
        "numberOfBytes": "1600"
      },
      "t_array(t_uint256)dyn_storage": {
        "base": "t_uint256",
        "encoding": "dynamic_array",
        "label": "uint256[]",
        "numberOfBytes": "32"
      },
      "t_bool": {
        "encoding": "inplace",
        "label": "bool",
        "numberOfBytes": "1"
      },
      "t_bytes32": {
        "encoding": "inplace",
        "label": "bytes32",
        "numberOfBytes": "32"
      },
      "t_contract(IThesaurus)4219": {
        "encoding": "inplace",
        "label": "contract IThesaurus",
        "numberOfBytes": "20"
      },
      "t_mapping(t_address,t_bool)": {
        "encoding": "mapping",
        "key": "t_address",
        "label": "mapping(address => bool)",
        "numberOfBytes": "32",
        "value": "t_bool"
      },
      "t_mapping(t_address,t_mapping(t_address,t_bool))": {
        "encoding": "mapping",
        "key": "t_address",
        "label": "mapping(address => mapping(address => bool))",
        "numberOfBytes": "32",
        "value": "t_mapping(t_address,t_bool)"
      },
      "t_mapping(t_address,t_mapping(t_uint256,t_uint256))": {
        "encoding": "mapping",
        "key": "t_address",
        "label": "mapping(address => mapping(uint256 => uint256))",
        "numberOfBytes": "32",
        "value": "t_mapping(t_uint256,t_uint256)"
      },
      "t_mapping(t_address,t_uint256)": {
        "encoding": "mapping",
        "key": "t_address",
        "label": "mapping(address => uint256)",
        "numberOfBytes": "32",
        "value": "t_uint256"
      },
      "t_mapping(t_uint256,t_address)": {
        "encoding": "mapping",
        "key": "t_uint256",
        "label": "mapping(uint256 => address)",
        "numberOfBytes": "32",
        "value": "t_address"
      },
      "t_mapping(t_uint256,t_bool)": {
        "encoding": "mapping",
        "key": "t_uint256",
        "label": "mapping(uint256 => bool)",
        "numberOfBytes": "32",
        "value": "t_bool"
      },
      "t_mapping(t_uint256,t_string_storage)": {
        "encoding": "mapping",
        "key": "t_uint256",
        "label": "mapping(uint256 => string)",
        "numberOfBytes": "32",
        "value": "t_string_storage"
      },
      "t_mapping(t_uint256,t_uint256)": {
        "encoding": "mapping",
        "key": "t_uint256",
        "label": "mapping(uint256 => uint256)",
        "numberOfBytes": "32",
        "value": "t_uint256"
      },
      "t_mapping(t_uint256,t_uint8)": {
        "encoding": "mapping",
        "key": "t_uint256",
        "label": "mapping(uint256 => uint8)",
        "numberOfBytes": "32",
        "value": "t_uint8"
      },
      "t_string_storage": {
        "encoding": "bytes",
        "label": "string",
        "numberOfBytes": "32"
      },
      "t_struct(Counter)1997_storage": {
        "encoding": "inplace",
        "label": "struct CountersUpgradeable.Counter",
        "members": [
          {
            "astId": 1996,
            "contract": "contracts/ArtDrive.sol:ArtDrive",
            "label": "_value",
            "offset": 0,
            "slot": "0",
            "type": "t_uint256"
          }
        ],
        "numberOfBytes": "32"
      },
      "t_uint256": {
        "encoding": "inplace",
        "label": "uint256",
        "numberOfBytes": "32"
      },
      "t_uint8": {
        "encoding": "inplace",
        "label": "uint8",
        "numberOfBytes": "1"
      }
    }
  }
}